{"contracts/MegaNFT.sol":{"MegaNFT":{"abi":[{"inputs":[{"internalType":"string","name":"_name","type":"string"},{"internalType":"string","name":"_symbol","type":"string"}],"stateMutability":"nonpayable","type":"constructor"},{"anonymous":false,"inputs":[{"indexed":true,"internalType":"address","name":"owner","type":"address"},{"indexed":true,"internalType":"address","name":"approved","type":"address"},{"indexed":true,"internalType":"uint256","name":"tokenId","type":"uint256"}],"name":"Approval","type":"event"},{"anonymous":false,"inputs":[{"indexed":true,"internalType":"address","name":"owner","type":"address"},{"indexed":true,"internalType":"address","name":"operator","type":"address"},{"indexed":false,"internalType":"bool","name":"approved","type":"bool"}],"name":"ApprovalForAll","type":"event"},{"anonymous":false,"inputs":[{"indexed":true,"internalType":"address","name":"previousOwner","type":"address"},{"indexed":true,"internalType":"address","name":"newOwner","type":"address"}],"name":"OwnershipTransferred","type":"event"},{"anonymous":false,"inputs":[{"indexed":false,"internalType":"string","name":"baseURI","type":"string"}],"name":"SetBaseURI","type":"event"},{"anonymous":false,"inputs":[{"indexed":true,"internalType":"address","name":"from","type":"address"},{"indexed":true,"internalType":"address","name":"to","type":"address"},{"indexed":true,"internalType":"uint256","name":"tokenId","type":"uint256"}],"name":"Transfer","type":"event"},{"anonymous":false,"inputs":[{"indexed":false,"internalType":"uint256","name":"amount","type":"uint256"},{"indexed":false,"internalType":"address","name":"addr","type":"address"}],"name":"Withdraw","type":"event"},{"inputs":[{"internalType":"address","name":"to","type":"address"},{"internalType":"uint256","name":"tokenId","type":"uint256"}],"name":"approve","outputs":[],"stateMutability":"nonpayable","type":"function"},{"inputs":[{"internalType":"address","name":"owner","type":"address"}],"name":"balanceOf","outputs":[{"internalType":"uint256","name":"","type":"uint256"}],"stateMutability":"view","type":"function"},{"inputs":[{"internalType":"uint256","name":"level","type":"uint256"},{"internalType":"uint256","name":"price","type":"uint256"}],"name":"changeLevelPrice","outputs":[],"stateMutability":"nonpayable","type":"function"},{"inputs":[{"internalType":"bool","name":"state","type":"bool"}],"name":"changeSaleState","outputs":[],"stateMutability":"nonpayable","type":"function"},{"inputs":[{"internalType":"uint256","name":"tokenId","type":"uint256"}],"name":"getApproved","outputs":[{"internalType":"address","name":"","type":"address"}],"stateMutability":"view","type":"function"},{"inputs":[{"internalType":"address","name":"_to","type":"address"},{"internalType":"uint256","name":"num","type":"uint256"},{"internalType":"uint256","name":"level","type":"uint256"}],"name":"internalLevelMint","outputs":[],"stateMutability":"nonpayable","type":"function"},{"inputs":[{"internalType":"address","name":"owner","type":"address"},{"internalType":"address","name":"operator","type":"address"}],"name":"isApprovedForAll","outputs":[{"internalType":"bool","name":"","type":"bool"}],"stateMutability":"view","type":"function"},{"inputs":[{"internalType":"uint256","name":"num","type":"uint256"},{"internalType":"uint256","name":"level","type":"uint256"}],"name":"levelMint","outputs":[],"stateMutability":"payable","type":"function"},{"inputs":[{"internalType":"uint256","name":"id","type":"uint256"}],"name":"levelOfId","outputs":[{"internalType":"uint256","name":"level","type":"uint256"}],"stateMutability":"view","type":"function"},{"inputs":[{"internalType":"address","name":"_owner","type":"address"}],"name":"listMyNFTs","outputs":[{"internalType":"uint256[]","name":"","type":"uint256[]"}],"stateMutability":"view","type":"function"},{"inputs":[{"internalType":"uint256","name":"","type":"uint256"}],"name":"mintLimitPerLevel","outputs":[{"internalType":"uint256","name":"","type":"uint256"}],"stateMutability":"view","type":"function"},{"inputs":[{"internalType":"uint256","name":"","type":"uint256"}],"name":"mintPricePerLevel","outputs":[{"internalType":"uint256","name":"","type":"uint256"}],"stateMutability":"view","type":"function"},{"inputs":[{"internalType":"uint256","name":"","type":"uint256"}],"name":"mintedPerLevel","outputs":[{"internalType":"uint256","name":"","type":"uint256"}],"stateMutability":"view","type":"function"},{"inputs":[],"name":"name","outputs":[{"internalType":"string","name":"","type":"string"}],"stateMutability":"view","type":"function"},{"inputs":[],"name":"owner","outputs":[{"internalType":"address","name":"","type":"address"}],"stateMutability":"view","type":"function"},{"inputs":[{"internalType":"uint256","name":"tokenId","type":"uint256"}],"name":"ownerOf","outputs":[{"internalType":"address","name":"","type":"address"}],"stateMutability":"view","type":"function"},{"inputs":[],"name":"renounceOwnership","outputs":[],"stateMutability":"nonpayable","type":"function"},{"inputs":[{"internalType":"address","name":"from","type":"address"},{"internalType":"address","name":"to","type":"address"},{"internalType":"uint256","name":"tokenId","type":"uint256"}],"name":"safeTransferFrom","outputs":[],"stateMutability":"nonpayable","type":"function"},{"inputs":[{"internalType":"address","name":"from","type":"address"},{"internalType":"address","name":"to","type":"address"},{"internalType":"uint256","name":"tokenId","type":"uint256"},{"internalType":"bytes","name":"data","type":"bytes"}],"name":"safeTransferFrom","outputs":[],"stateMutability":"nonpayable","type":"function"},{"inputs":[],"name":"saleStarted","outputs":[{"internalType":"bool","name":"","type":"bool"}],"stateMutability":"view","type":"function"},{"inputs":[{"internalType":"address","name":"operator","type":"address"},{"internalType":"bool","name":"approved","type":"bool"}],"name":"setApprovalForAll","outputs":[],"stateMutability":"nonpayable","type":"function"},{"inputs":[{"internalType":"string","name":"baseURI","type":"string"}],"name":"setBaseURI","outputs":[],"stateMutability":"nonpayable","type":"function"},{"inputs":[{"internalType":"bytes4","name":"interfaceId","type":"bytes4"}],"name":"supportsInterface","outputs":[{"internalType":"bool","name":"","type":"bool"}],"stateMutability":"view","type":"function"},{"inputs":[],"name":"symbol","outputs":[{"internalType":"string","name":"","type":"string"}],"stateMutability":"view","type":"function"},{"inputs":[{"internalType":"uint256","name":"index","type":"uint256"}],"name":"tokenByIndex","outputs":[{"internalType":"uint256","name":"","type":"uint256"}],"stateMutability":"view","type":"function"},{"inputs":[{"internalType":"address","name":"owner","type":"address"},{"internalType":"uint256","name":"index","type":"uint256"}],"name":"tokenOfOwnerByIndex","outputs":[{"internalType":"uint256","name":"","type":"uint256"}],"stateMutability":"view","type":"function"},{"inputs":[{"internalType":"uint256","name":"tokenId","type":"uint256"}],"name":"tokenURI","outputs":[{"internalType":"string","name":"","type":"string"}],"stateMutability":"view","type":"function"},{"inputs":[],"name":"totalSupply","outputs":[{"internalType":"uint256","name":"","type":"uint256"}],"stateMutability":"view","type":"function"},{"inputs":[{"internalType":"address","name":"from","type":"address"},{"internalType":"address","name":"to","type":"address"},{"internalType":"uint256","name":"tokenId","type":"uint256"}],"name":"transferFrom","outputs":[],"stateMutability":"nonpayable","type":"function"},{"inputs":[{"internalType":"address","name":"newOwner","type":"address"}],"name":"transferOwnership","outputs":[],"stateMutability":"nonpayable","type":"function"},{"inputs":[],"name":"withdraw","outputs":[],"stateMutability":"payable","type":"function"}],"devdoc":{"kind":"dev","methods":{"approve(address,uint256)":{"details":"See {IERC721-approve}."},"balanceOf(address)":{"details":"See {IERC721-balanceOf}."},"getApproved(uint256)":{"details":"See {IERC721-getApproved}."},"isApprovedForAll(address,address)":{"details":"See {IERC721-isApprovedForAll}."},"name()":{"details":"See {IERC721Metadata-name}."},"owner()":{"details":"Returns the address of the current owner."},"ownerOf(uint256)":{"details":"See {IERC721-ownerOf}."},"renounceOwnership()":{"details":"Leaves the contract without owner. It will not be possible to call `onlyOwner` functions anymore. Can only be called by the current owner. NOTE: Renouncing ownership will leave the contract without an owner, thereby removing any functionality that is only available to the owner."},"safeTransferFrom(address,address,uint256)":{"details":"See {IERC721-safeTransferFrom}."},"safeTransferFrom(address,address,uint256,bytes)":{"details":"See {IERC721-safeTransferFrom}."},"setApprovalForAll(address,bool)":{"details":"See {IERC721-setApprovalForAll}."},"symbol()":{"details":"See {IERC721Metadata-symbol}."},"tokenByIndex(uint256)":{"details":"See {IERC721Enumerable-tokenByIndex}."},"tokenOfOwnerByIndex(address,uint256)":{"details":"See {IERC721Enumerable-tokenOfOwnerByIndex}."},"tokenURI(uint256)":{"details":"See {IERC721Metadata-tokenURI}."},"totalSupply()":{"details":"See {IERC721Enumerable-totalSupply}."},"transferFrom(address,address,uint256)":{"details":"See {IERC721-transferFrom}."},"transferOwnership(address)":{"details":"Transfers ownership of the contract to a new account (`newOwner`). Can only be called by the current owner."}},"version":1},"evm":{"bytecode":{"linkReferences":{},"object":"608060405261115c600d556011805460ff191690553480156200002157600080fd5b50604051620031d3380380620031d383398101604081905262000044916200035f565b81816000620000548382620004dc565b506001620000638282620004dc565b505050620000806200007a620001cc60201b60201c565b620001d0565b50506104b87fa7c5ba7114a813b50159add3a36832908dc83db71d0b9a24c2ad0f83be958207556103e87f9adb202b1492743bc00c81d33cdc6423fa8c79109027eb6a845391e8fc1f0481556102ee7fe0283e559c29e31ee7f56467acc9dd307779c843a883aeeb3bf5c6128c908144556101777fa1d6913cd9e08c872be3e7525cca82e4fc0fc298a783f19022be725b19be685a55600f602052655af3107a40007f169f97de0d9a84d840042b17d3c6b9638b3d6fd9024c9eb0c7a306a17b49f88f5565e35fa931a0007fa74ba3945261e09fde15ba3db55005b205e61eeb4ad811ac0faa2b315bffeead556601c6bf526340007f45f76dafbbad695564362934e24d72eedc57f9fc1a65f39bca62176cc829682855600460005266038d7ea4c680007f367ccd2d0ac16bf7110a5dffe0801fdc9452a95a1adb7e1a12fe97dd3e9a4edd55620005ac565b3390565b600a80546001600160a01b038381166001600160a01b0319831681179093556040519116919082907f8be0079c531659141344cd1fd0a4f28419497f9722a3daafe3b4186f6b6457e090600090a35050565b634e487b7160e01b600052604160045260246000fd5b601f19601f83011681018181106001600160401b038211171562000260576200026062000222565b6040525050565b60006200027360405190565b905062000281828262000238565b919050565b60006001600160401b03821115620002a257620002a262000222565b601f19601f83011660200192915050565b60005b83811015620002d0578181015183820152602001620002b6565b83811115620002e0576000848401525b50505050565b6000620002fd620002f78462000286565b62000267565b9050828152602081018484840111156200031a576200031a600080fd5b62000327848285620002b3565b509392505050565b600082601f830112620003455762000345600080fd5b815162000357848260208601620002e6565b949350505050565b60008060408385031215620003775762000377600080fd5b82516001600160401b03811115620003925762000392600080fd5b620003a0858286016200032f565b92505060208301516001600160401b03811115620003c157620003c1600080fd5b620003cf858286016200032f565b9150509250929050565b634e487b7160e01b600052602260045260246000fd5b6002810460018216806200040457607f821691505b602082108103620004195762000419620003d9565b50919050565b6000620004306200042d8381565b90565b92915050565b62000441836200041f565b81546008840282811b60001990911b908116901990911617825550505050565b60006200047081848462000436565b505050565b8181101562000494576200048b60008262000461565b60010162000475565b5050565b601f82111562000470576000818152602090206020601f85010481016020851015620004c15750805b620004d56020601f86010483018262000475565b5050505050565b81516001600160401b03811115620004f857620004f862000222565b620005048254620003ef565b6200051182828562000498565b6020601f8311600181146200054857600084156200052f5750858201515b600019600886021c1981166002860217865550620005a4565b600085815260208120601f198616915b828110156200057a578885015182556020948501946001909201910162000558565b86831015620005975784890151600019601f89166008021c191682555b6001600288020188555050505b505050505050565b612c1780620005bc6000396000f3fe6080604052600436106101d85760003560e01c806351cd66a21161010257806395d89b4111610095578063c87b56dd11610064578063c87b56dd14610553578063d3bfe07714610573578063e985e9c5146105a0578063f2fde38b146105e957600080fd5b806395d89b41146104de578063a22cb465146104f3578063b322078d14610513578063b88d4fde1461053357600080fd5b806370a08231116100d157806370a082311461045e578063715018a61461047e5780638928577e146104935780638da5cb5b146104c057600080fd5b806351cd66a2146103f157806355f804b3146104045780635c474f9e146104245780636352211e1461043e57600080fd5b806323b872dd1161017a57806342842e0e1161014957806342842e0e14610364578063451337721461038457806348ceb90e146103a45780634f6ccce7146103d157600080fd5b806323b872dd146102ef578063241ea22c1461030f5780632f745c591461033c5780633ccfd60b1461035c57600080fd5b8063081812fc116101b6578063081812fc14610257578063095ea7b31461028457806318160ddd146102a457806321b1dc4b146102c257600080fd5b806301ffc9a7146101dd57806306fdde0314610213578063075f447b14610235575b600080fd5b3480156101e957600080fd5b506101fd6101f8366004611b07565b610609565b60405161020a9190611b32565b60405180910390f35b34801561021f57600080fd5b5061022861061a565b60405161020a9190611b9e565b34801561024157600080fd5b50610255610250366004611bc0565b6106ac565b005b34801561026357600080fd5b50610277610272366004611bfd565b6106c6565b60405161020a9190611c38565b34801561029057600080fd5b5061025561029f366004611c5a565b6106ed565b3480156102b057600080fd5b506008545b60405161020a9190611c82565b3480156102ce57600080fd5b506102b56102dd366004611bfd565b6000908152600c602052604090205490565b3480156102fb57600080fd5b5061025561030a366004611c90565b61077b565b34801561031b57600080fd5b506102b561032a366004611bfd565b600f6020526000908152604090205481565b34801561034857600080fd5b506102b5610357366004611c5a565b6107ac565b6102556107fe565b34801561037057600080fd5b5061025561037f366004611c90565b610869565b34801561039057600080fd5b5061025561039f366004611ce0565b610884565b3480156103b057600080fd5b506102b56103bf366004611bfd565b600e6020526000908152604090205481565b3480156103dd57600080fd5b506102b56103ec366004611bfd565b61095a565b6102556103ff366004611bc0565b6109a8565b34801561041057600080fd5b5061025561041f366004611e21565b610b10565b34801561043057600080fd5b506011546101fd9060ff1681565b34801561044a57600080fd5b50610277610459366004611bfd565b610b55565b34801561046a57600080fd5b506102b5610479366004611e5c565b610b8a565b34801561048a57600080fd5b50610255610bce565b34801561049f57600080fd5b506102b56104ae366004611bfd565b60106020526000908152604090205481565b3480156104cc57600080fd5b50600a546001600160a01b0316610277565b3480156104ea57600080fd5b50610228610be2565b3480156104ff57600080fd5b5061025561050e366004611e90565b610bf1565b34801561051f57600080fd5b5061025561052e366004611ec3565b610c00565b34801561053f57600080fd5b5061025561054e366004611ee4565b610c69565b34801561055f57600080fd5b5061022861056e366004611bfd565b610ca1565b34801561057f57600080fd5b5061059361058e366004611e5c565b610d34565b60405161020a9190611fc0565b3480156105ac57600080fd5b506101fd6105bb366004611fd1565b6001600160a01b03918216600090815260056020908152604080832093909416825291909152205460ff1690565b3480156105f557600080fd5b50610255610604366004611e5c565b610df6565b600061061482610e2d565b92915050565b60606000805461062990612033565b80601f016020809104026020016040519081016040528092919081815260200182805461065590612033565b80156106a25780601f10610677576101008083540402835291602001916106a2565b820191906000526020600020905b81548152906001019060200180831161068557829003601f168201915b5050505050905090565b6106b4610e83565b6000918252600f602052604090912055565b60006106d182610ead565b506000908152600460205260409020546001600160a01b031690565b60006106f882610b55565b9050806001600160a01b0316836001600160a01b0316036107345760405162461bcd60e51b815260040161072b906120b6565b60405180910390fd5b336001600160a01b0382161480610750575061075081336105bb565b61076c5760405162461bcd60e51b815260040161072b90612120565b6107768383610ee1565b505050565b6107853382610f67565b6107a15760405162461bcd60e51b815260040161072b9061218a565b610776838383610fe6565b60006107b783610b8a565b82106107d55760405162461bcd60e51b815260040161072b906121f4565b506001600160a01b03919091166000908152600660209081526040808320938352929052205490565b610806610e83565b6040514790339082156108fc029083906000818181858888f1935050505061082d57600080fd5b7f8353ffcac0876ad14e226d9783c04540bfebf13871e868157d2a391cad98e918813360405161085e929190612204565b60405180910390a150565b61077683838360405180602001604052806000815250610c69565b61088c610e83565b600d548261089960085490565b6108a3919061224e565b11156108c15760405162461bcd60e51b815260040161072b9061229d565b60006108cc60085490565b905060015b6108dc84600161224e565b811015610928576108f6856108f1838561224e565b611133565b82600c6000610905848661224e565b815260208101919091526040016000205580610920816122ad565b9150506108d1565b50600082815260106020526040902054610942908461114d565b60009283526010602052604090922091909155505050565b600061096560085490565b82106109835760405162461bcd60e51b815260040161072b90612321565b6008828154811061099657610996612331565b90600052602060002001549050919050565b60115460ff166109ca5760405162461bcd60e51b815260040161072b90612394565b6000818152600f60205260409020546109e39083611159565b341015610a025760405162461bcd60e51b815260040161072b906123d8565b600d5482610a0f60085490565b610a19919061224e565b1115610a375760405162461bcd60e51b815260040161072b9061229d565b600081815260106020526040902054610a50908361114d565b6000828152600e60205260409020541015610a7d5760405162461bcd60e51b815260040161072b9061241c565b6000610a8860085490565b905060015b610a9884600161224e565b811015610adf57610aad336108f1838561224e565b82600c6000610abc848661224e565b815260208101919091526040016000205580610ad7816122ad565b915050610a8d565b50600082815260106020526040902054610af9908461114d565b600092835260106020526040909220919091555050565b610b18610e83565b600b610b2482826124c5565b507f23c8c9488efebfd474e85a7956de6f39b17c7ab88502d42a623db2d8e382bbaa600b60405161085e9190612603565b6000818152600260205260408120546001600160a01b0316806106145760405162461bcd60e51b815260040161072b90612648565b60006001600160a01b038216610bb25760405162461bcd60e51b815260040161072b906126b2565b506001600160a01b031660009081526003602052604090205490565b610bd6610e83565b610be06000611165565b565b60606001805461062990612033565b610bfc3383836111cf565b5050565b610c08610e83565b8015610c445760115460ff1615610c315760405162461bcd60e51b815260040161072b906126f6565b6011805482151560ff1990911617905550565b60115460ff16610c315760405162461bcd60e51b815260040161072b9061273a565b50565b610c733383610f67565b610c8f5760405162461bcd60e51b815260040161072b9061218a565b610c9b84848484611271565b50505050565b6000818152600260205260409020546060906001600160a01b0316610cd85760405162461bcd60e51b815260040161072b906127a4565b6000610ce26112a4565b90506000815111610d025760405180602001604052806000815250610d2d565b80610d0c846112b3565b604051602001610d1d9291906127d6565b6040516020818303038152906040525b9392505050565b60606000610d4183610b8a565b905080600003610d655760408051600080825260208201909252905b509392505050565b60008167ffffffffffffffff811115610d8057610d80611d15565b604051908082528060200260200182016040528015610da9578160200160208202803683370190505b50905060005b82811015610d5d57610dc185826107ac565b828281518110610dd357610dd3612331565b602090810291909101015280610de8816122ad565b915050610daf565b50919050565b610dfe610e83565b6001600160a01b038116610e245760405162461bcd60e51b815260040161072b90612848565b610c6681611165565b60007fffffffff0000000000000000000000000000000000000000000000000000000082167f780e9d63000000000000000000000000000000000000000000000000000000001480610614575061061482611353565b600a546001600160a01b03163314610be05760405162461bcd60e51b815260040161072b9061288a565b6000818152600260205260409020546001600160a01b0316610c665760405162461bcd60e51b815260040161072b90612648565b600081815260046020526040902080547fffffffffffffffffffffffff0000000000000000000000000000000000000000166001600160a01b0384169081179091558190610f2e82610b55565b6001600160a01b03167f8c5be1e5ebec7d5bd14f71427d1e84f3dd0314c0f7b2291e5b200ac8c7c3b92560405160405180910390a45050565b600080610f7383610b55565b9050806001600160a01b0316846001600160a01b03161480610fba57506001600160a01b0380821660009081526005602090815260408083209388168352929052205460ff165b80610fde5750836001600160a01b0316610fd3846106c6565b6001600160a01b0316145b949350505050565b826001600160a01b0316610ff982610b55565b6001600160a01b03161461101f5760405162461bcd60e51b815260040161072b906128f4565b6001600160a01b0382166110455760405162461bcd60e51b815260040161072b9061295e565b6110528383836001611436565b826001600160a01b031661106582610b55565b6001600160a01b03161461108b5760405162461bcd60e51b815260040161072b906128f4565b600081815260046020908152604080832080547fffffffffffffffffffffffff00000000000000000000000000000000000000009081169091556001600160a01b0387811680865260038552838620805460001901905590871680865283862080546001019055868652600290945282852080549092168417909155905184937fddf252ad1be2c89b69c2b068fc378daa952ba7f163c4a11628f55a4df523b3ef91a4505050565b610bfc828260405180602001604052806000815250611442565b6000610d2d828461224e565b6000610d2d828461296e565b600a80546001600160a01b038381167fffffffffffffffffffffffff0000000000000000000000000000000000000000831681179093556040519116919082907f8be0079c531659141344cd1fd0a4f28419497f9722a3daafe3b4186f6b6457e090600090a35050565b816001600160a01b0316836001600160a01b0316036112005760405162461bcd60e51b815260040161072b906129c1565b6001600160a01b0383811660008181526005602090815260408083209487168084529490915290819020805460ff1916851515179055517f17307eab39ab6107e8899845ad3d59bd9653f200f220920489ca2b5937696c3190611264908590611b32565b60405180910390a3505050565b61127c848484610fe6565b61128884848484611475565b610c9b5760405162461bcd60e51b815260040161072b90612a2b565b6060600b805461062990612033565b606060006112c0836115c0565b600101905060008167ffffffffffffffff8111156112e0576112e0611d15565b6040519080825280601f01601f19166020018201604052801561130a576020820181803683370190505b5090508181016020015b600019017f3031323334353637383961626364656600000000000000000000000000000000600a86061a8153600a850494508461131457509392505050565b60007fffffffff0000000000000000000000000000000000000000000000000000000082167f80ac58cd0000000000000000000000000000000000000000000000000000000014806113e657507fffffffff0000000000000000000000000000000000000000000000000000000082167f5b5e139f00000000000000000000000000000000000000000000000000000000145b8061061457507f01ffc9a7000000000000000000000000000000000000000000000000000000007fffffffff00000000000000000000000000000000000000000000000000000000831614610614565b610c9b848484846116a2565b61144c8383611794565b6114596000848484611475565b6107765760405162461bcd60e51b815260040161072b90612a2b565b60006001600160a01b0384163b156115b5576040517f150b7a020000000000000000000000000000000000000000000000000000000081526001600160a01b0385169063150b7a02906114d2903390899088908890600401612a3b565b6020604051808303816000875af192505050801561150d575060408051601f3d908101601f1916820190925261150a91810190612a8a565b60015b61156a573d80801561153b576040519150601f19603f3d011682016040523d82523d6000602084013e611540565b606091505b5080516000036115625760405162461bcd60e51b815260040161072b90612a2b565b805181602001fd5b7fffffffff00000000000000000000000000000000000000000000000000000000167f150b7a0200000000000000000000000000000000000000000000000000000000149050610fde565b506001949350505050565b6000807a184f03e93ff9f4daa797ed6e38ed64bf6a1f0100000000000000008310611609577a184f03e93ff9f4daa797ed6e38ed64bf6a1f010000000000000000830492506040015b6d04ee2d6d415b85acef81000000008310611635576d04ee2d6d415b85acef8100000000830492506020015b662386f26fc10000831061165357662386f26fc10000830492506010015b6305f5e100831061166b576305f5e100830492506008015b612710831061167f57612710830492506004015b60648310611691576064830492506002015b600a83106106145760010192915050565b6116ae848484846118b5565b60018111156116cf5760405162461bcd60e51b815260040161072b90612b05565b816001600160a01b03851661172b5761172681600880546000838152600960205260408120829055600182018355919091527ff3f7a9fe364faab93b216da50a3214154f22a0a2b415b23a84c8169e8b636ee30155565b61174e565b836001600160a01b0316856001600160a01b03161461174e5761174e858261193d565b6001600160a01b03841661176a57611765816119da565b61178d565b846001600160a01b0316846001600160a01b03161461178d5761178d8482611a89565b5050505050565b6001600160a01b0382166117ba5760405162461bcd60e51b815260040161072b90612b47565b6000818152600260205260409020546001600160a01b0316156117ef5760405162461bcd60e51b815260040161072b90612b8b565b6117fd600083836001611436565b6000818152600260205260409020546001600160a01b0316156118325760405162461bcd60e51b815260040161072b90612b8b565b6001600160a01b038216600081815260036020908152604080832080546001019055848352600290915280822080547fffffffffffffffffffffffff0000000000000000000000000000000000000000168417905551839291907fddf252ad1be2c89b69c2b068fc378daa952ba7f163c4a11628f55a4df523b3ef908290a45050565b6001811115610c9b576001600160a01b038416156118fb576001600160a01b038416600090815260036020526040812080548392906118f5908490612b9b565b90915550505b6001600160a01b03831615610c9b576001600160a01b0383166000908152600360205260408120805483929061193290849061224e565b909155505050505050565b6000600161194a84610b8a565b6119549190612b9b565b6000838152600760205260409020549091508082146119a7576001600160a01b03841660009081526006602090815260408083208584528252808320548484528184208190558352600790915290208190555b5060009182526007602090815260408084208490556001600160a01b039094168352600681528383209183525290812055565b6008546000906119ec90600190612b9b565b60008381526009602052604081205460088054939450909284908110611a1457611a14612331565b906000526020600020015490508060088381548110611a3557611a35612331565b6000918252602080832090910192909255828152600990915260408082208490558582528120556008805480611a6d57611a6d612bb2565b6001900381819060005260206000200160009055905550505050565b6000611a9483610b8a565b6001600160a01b039093166000908152600660209081526040808320868452825280832085905593825260079052919091209190915550565b7fffffffff0000000000000000000000000000000000000000000000000000000081165b8114610c6657600080fd5b803561061481611acd565b600060208284031215611b1c57611b1c600080fd5b6000610fde8484611afc565b8015155b82525050565b602081016106148284611b28565b60005b83811015611b5b578181015183820152602001611b43565b83811115610c9b5750506000910152565b6000611b76825190565b808452602084019350611b8d818560208601611b40565b601f01601f19169290920192915050565b60208082528101610d2d8184611b6c565b80611af1565b803561061481611baf565b60008060408385031215611bd657611bd6600080fd5b6000611be28585611bb5565b9250506020611bf385828601611bb5565b9150509250929050565b600060208284031215611c1257611c12600080fd5b6000610fde8484611bb5565b60006001600160a01b038216610614565b611b2c81611c1e565b602081016106148284611c2f565b611af181611c1e565b803561061481611c46565b60008060408385031215611c7057611c70600080fd5b6000611be28585611c4f565b80611b2c565b602081016106148284611c7c565b600080600060608486031215611ca857611ca8600080fd5b6000611cb48686611c4f565b9350506020611cc586828701611c4f565b9250506040611cd686828701611bb5565b9150509250925092565b600080600060608486031215611cf857611cf8600080fd5b6000611d048686611c4f565b9350506020611cc586828701611bb5565b7f4e487b7100000000000000000000000000000000000000000000000000000000600052604160045260246000fd5b601f19601f830116810181811067ffffffffffffffff82111715611d6a57611d6a611d15565b6040525050565b6000611d7c60405190565b9050611d888282611d44565b919050565b600067ffffffffffffffff821115611da757611da7611d15565b601f19601f83011660200192915050565b82818337506000910152565b6000611dd7611dd284611d8d565b611d71565b905082815260208101848484011115611df257611df2600080fd5b610d5d848285611db8565b600082601f830112611e1157611e11600080fd5b8135610fde848260208601611dc4565b600060208284031215611e3657611e36600080fd5b813567ffffffffffffffff811115611e5057611e50600080fd5b610fde84828501611dfd565b600060208284031215611e7157611e71600080fd5b6000610fde8484611c4f565b801515611af1565b803561061481611e7d565b60008060408385031215611ea657611ea6600080fd5b6000611eb28585611c4f565b9250506020611bf385828601611e85565b600060208284031215611ed857611ed8600080fd5b6000610fde8484611e85565b60008060008060808587031215611efd57611efd600080fd5b6000611f098787611c4f565b9450506020611f1a87828801611c4f565b9350506040611f2b87828801611bb5565b925050606085013567ffffffffffffffff811115611f4b57611f4b600080fd5b611f5787828801611dfd565b91505092959194509250565b6000611f6f8383611c7c565b505060200190565b6000611f81825190565b80845260209384019383018060005b83811015611fb5578151611fa48882611f63565b975060208301925050600101611f90565b509495945050505050565b60208082528101610d2d8184611f77565b60008060408385031215611fe757611fe7600080fd5b6000611ff38585611c4f565b9250506020611bf385828601611c4f565b7f4e487b7100000000000000000000000000000000000000000000000000000000600052602260045260246000fd5b60028104600182168061204757607f821691505b602082108103610df057610df0612004565b602181526000602082017f4552433732313a20617070726f76616c20746f2063757272656e74206f776e6581527f7200000000000000000000000000000000000000000000000000000000000000602082015291505b5060400190565b6020808252810161061481612059565b603d81526000602082017f4552433732313a20617070726f76652063616c6c6572206973206e6f7420746f81527f6b656e206f776e6572206f7220617070726f76656420666f7220616c6c000000602082015291506120af565b60208082528101610614816120c6565b602d81526000602082017f4552433732313a2063616c6c6572206973206e6f7420746f6b656e206f776e6581527f72206f7220617070726f76656400000000000000000000000000000000000000602082015291506120af565b6020808252810161061481612130565b602b81526000602082017f455243373231456e756d657261626c653a206f776e657220696e646578206f7581527f74206f6620626f756e6473000000000000000000000000000000000000000000602082015291506120af565b602080825281016106148161219a565b604081016122128285611c7c565b610d2d6020830184611c2f565b7f4e487b7100000000000000000000000000000000000000000000000000000000600052601160045260246000fd5b600082198211156122615761226161221f565b500190565b601381526000602082017f4d617820737570706c7920726561636865642100000000000000000000000000815291505b5060200190565b6020808252810161061481612266565b600060001982036122c0576122c061221f565b5060010190565b602c81526000602082017f455243373231456e756d657261626c653a20676c6f62616c20696e646578206f81527f7574206f6620626f756e64730000000000000000000000000000000000000000602082015291506120af565b60208082528101610614816122c7565b7f4e487b7100000000000000000000000000000000000000000000000000000000600052603260045260246000fd5b600c81526000602082017f53616c6520636c6f73656421000000000000000000000000000000000000000081529150612296565b6020808252810161061481612360565b601c81526000602082017f496e73756666696369656e7420416d6f756e74206f66206d696e74210000000081529150612296565b60208082528101610614816123a4565b601b81526000602082017f4d6178206d696e7420666f72206c6576656c207265616368656421000000000081529150612296565b60208082528101610614816123e8565b60006106146124388381565b90565b6124448361242c565b81546008840282811b60001990911b908116901990911617825550505050565b600061077681848461243b565b81811015610bfc57612484600082612464565b600101612471565b601f821115610776576000818152602090206020601f850104810160208510156124b35750805b61178d6020601f860104830182612471565b815167ffffffffffffffff8111156124df576124df611d15565b6124e98254612033565b6124f482828561248c565b6020601f83116001811461252857600084156125105750858201515b600019600886021c1981166002860217865550612581565b600085815260208120601f198616915b828110156125585788850151825560209485019460019092019101612538565b868310156125745784890151600019601f89166008021c191682555b6001600288020188555050505b505050505050565b6000815461259681612033565b8085526020850194506001821680156125b657600181146125cc576125fa565b60ff1983168652602082151502860193506125fa565b60008581526020902060005b838110156125f4578154888201526001909101906020016125d8565b87019450505b50505092915050565b60208082528101610d2d8184612589565b601881526000602082017f4552433732313a20696e76616c696420746f6b656e204944000000000000000081529150612296565b6020808252810161061481612614565b602981526000602082017f4552433732313a2061646472657373207a65726f206973206e6f74206120766181527f6c6964206f776e65720000000000000000000000000000000000000000000000602082015291506120af565b6020808252810161061481612658565b601481526000602082017f53616c6520616c7265616479206f70656e65642100000000000000000000000081529150612296565b60208082528101610614816126c2565b601481526000602082017f53616c6520616c726561647920636c6f7365642100000000000000000000000081529150612296565b6020808252810161061481612706565b602f81526000602082017f4552433732314d657461646174613a2055524920717565727920666f72206e6f81527f6e6578697374656e7420746f6b656e0000000000000000000000000000000000602082015291506120af565b602080825281016106148161274a565b60006127be825190565b6127cc818560208601611b40565b9290920192915050565b60006127e282856127b4565b9150610fde82846127b4565b602681526000602082017f4f776e61626c653a206e6577206f776e657220697320746865207a65726f206181527f6464726573730000000000000000000000000000000000000000000000000000602082015291506120af565b60208082528101610614816127ee565b60208082527f4f776e61626c653a2063616c6c6572206973206e6f7420746865206f776e657291019081526000612296565b6020808252810161061481612858565b602581526000602082017f4552433732313a207472616e736665722066726f6d20696e636f72726563742081527f6f776e6572000000000000000000000000000000000000000000000000000000602082015291506120af565b602080825281016106148161289a565b602481526000602082017f4552433732313a207472616e7366657220746f20746865207a65726f2061646481527f7265737300000000000000000000000000000000000000000000000000000000602082015291506120af565b6020808252810161061481612904565b60008160001904831182151516156129885761298861221f565b500290565b601981526000602082017f4552433732313a20617070726f766520746f2063616c6c65720000000000000081529150612296565b602080825281016106148161298d565b603281526000602082017f4552433732313a207472616e7366657220746f206e6f6e20455243373231526581527f63656976657220696d706c656d656e7465720000000000000000000000000000602082015291506120af565b60208082528101610614816129d1565b60808101612a498287611c2f565b612a566020830186611c2f565b612a636040830185611c7c565b8181036060830152612a758184611b6c565b9695505050505050565b805161061481611acd565b600060208284031215612a9f57612a9f600080fd5b6000610fde8484612a7f565b603581526000602082017f455243373231456e756d657261626c653a20636f6e736563757469766520747281527f616e7366657273206e6f7420737570706f727465640000000000000000000000602082015291506120af565b6020808252810161061481612aab565b60208082527f4552433732313a206d696e7420746f20746865207a65726f206164647265737391019081526000612296565b6020808252810161061481612b15565b601c81526000602082017f4552433732313a20746f6b656e20616c7265616479206d696e7465640000000081529150612296565b6020808252810161061481612b57565b600082821015612bad57612bad61221f565b500390565b7f4e487b7100000000000000000000000000000000000000000000000000000000600052603160045260246000fdfea2646970667358221220b29587abfb3e5d8576d843f18b9c71810ffb7216a8aca432afcde40f2d0b5cc164736f6c634300080f0033","opcodes":"PUSH1 0x80 PUSH1 0x40 MSTORE PUSH2 0x115C PUSH1 0xD SSTORE PUSH1 0x11 DUP1 SLOAD PUSH1 0xFF NOT AND SWAP1 SSTORE CALLVALUE DUP1 ISZERO PUSH3 0x21 JUMPI PUSH1 0x0 DUP1 REVERT JUMPDEST POP PUSH1 0x40 MLOAD PUSH3 0x31D3 CODESIZE SUB DUP1 PUSH3 0x31D3 DUP4 CODECOPY DUP2 ADD PUSH1 0x40 DUP2 SWAP1 MSTORE PUSH3 0x44 SWAP2 PUSH3 0x35F JUMP JUMPDEST DUP2 DUP2 PUSH1 0x0 PUSH3 0x54 DUP4 DUP3 PUSH3 0x4DC JUMP JUMPDEST POP PUSH1 0x1 PUSH3 0x63 DUP3 DUP3 PUSH3 0x4DC JUMP JUMPDEST POP POP POP PUSH3 0x80 PUSH3 0x7A PUSH3 0x1CC PUSH1 0x20 SHL PUSH1 0x20 SHR JUMP JUMPDEST PUSH3 0x1D0 JUMP JUMPDEST POP POP PUSH2 0x4B8 PUSH32 0xA7C5BA7114A813B50159ADD3A36832908DC83DB71D0B9A24C2AD0F83BE958207 SSTORE PUSH2 0x3E8 PUSH32 0x9ADB202B1492743BC00C81D33CDC6423FA8C79109027EB6A845391E8FC1F0481 SSTORE PUSH2 0x2EE PUSH32 0xE0283E559C29E31EE7F56467ACC9DD307779C843A883AEEB3BF5C6128C908144 SSTORE PUSH2 0x177 PUSH32 0xA1D6913CD9E08C872BE3E7525CCA82E4FC0FC298A783F19022BE725B19BE685A SSTORE PUSH1 0xF PUSH1 0x20 MSTORE PUSH6 0x5AF3107A4000 PUSH32 0x169F97DE0D9A84D840042B17D3C6B9638B3D6FD9024C9EB0C7A306A17B49F88F SSTORE PUSH6 0xE35FA931A000 PUSH32 0xA74BA3945261E09FDE15BA3DB55005B205E61EEB4AD811AC0FAA2B315BFFEEAD SSTORE PUSH7 0x1C6BF52634000 PUSH32 0x45F76DAFBBAD695564362934E24D72EEDC57F9FC1A65F39BCA62176CC8296828 SSTORE PUSH1 0x4 PUSH1 0x0 MSTORE PUSH7 0x38D7EA4C68000 PUSH32 0x367CCD2D0AC16BF7110A5DFFE0801FDC9452A95A1ADB7E1A12FE97DD3E9A4EDD SSTORE PUSH3 0x5AC JUMP JUMPDEST CALLER SWAP1 JUMP JUMPDEST PUSH1 0xA DUP1 SLOAD PUSH1 0x1 PUSH1 0x1 PUSH1 0xA0 SHL SUB DUP4 DUP2 AND PUSH1 0x1 PUSH1 0x1 PUSH1 0xA0 SHL SUB NOT DUP4 AND DUP2 OR SWAP1 SWAP4 SSTORE PUSH1 0x40 MLOAD SWAP2 AND SWAP2 SWAP1 DUP3 SWAP1 PUSH32 0x8BE0079C531659141344CD1FD0A4F28419497F9722A3DAAFE3B4186F6B6457E0 SWAP1 PUSH1 0x0 SWAP1 LOG3 POP POP JUMP JUMPDEST PUSH4 0x4E487B71 PUSH1 0xE0 SHL PUSH1 0x0 MSTORE PUSH1 0x41 PUSH1 0x4 MSTORE PUSH1 0x24 PUSH1 0x0 REVERT JUMPDEST PUSH1 0x1F NOT PUSH1 0x1F DUP4 ADD AND DUP2 ADD DUP2 DUP2 LT PUSH1 0x1 PUSH1 0x1 PUSH1 0x40 SHL SUB DUP3 GT OR ISZERO PUSH3 0x260 JUMPI PUSH3 0x260 PUSH3 0x222 JUMP JUMPDEST PUSH1 0x40 MSTORE POP POP JUMP JUMPDEST PUSH1 0x0 PUSH3 0x273 PUSH1 0x40 MLOAD SWAP1 JUMP JUMPDEST SWAP1 POP PUSH3 0x281 DUP3 DUP3 PUSH3 0x238 JUMP JUMPDEST SWAP2 SWAP1 POP JUMP JUMPDEST PUSH1 0x0 PUSH1 0x1 PUSH1 0x1 PUSH1 0x40 SHL SUB DUP3 GT ISZERO PUSH3 0x2A2 JUMPI PUSH3 0x2A2 PUSH3 0x222 JUMP JUMPDEST PUSH1 0x1F NOT PUSH1 0x1F DUP4 ADD AND PUSH1 0x20 ADD SWAP3 SWAP2 POP POP JUMP JUMPDEST PUSH1 0x0 JUMPDEST DUP4 DUP2 LT ISZERO PUSH3 0x2D0 JUMPI DUP2 DUP2 ADD MLOAD DUP4 DUP3 ADD MSTORE PUSH1 0x20 ADD PUSH3 0x2B6 JUMP JUMPDEST DUP4 DUP2 GT ISZERO PUSH3 0x2E0 JUMPI PUSH1 0x0 DUP5 DUP5 ADD MSTORE JUMPDEST POP POP POP POP JUMP JUMPDEST PUSH1 0x0 PUSH3 0x2FD PUSH3 0x2F7 DUP5 PUSH3 0x286 JUMP JUMPDEST PUSH3 0x267 JUMP JUMPDEST SWAP1 POP DUP3 DUP2 MSTORE PUSH1 0x20 DUP2 ADD DUP5 DUP5 DUP5 ADD GT ISZERO PUSH3 0x31A JUMPI PUSH3 0x31A PUSH1 0x0 DUP1 REVERT JUMPDEST PUSH3 0x327 DUP5 DUP3 DUP6 PUSH3 0x2B3 JUMP JUMPDEST POP SWAP4 SWAP3 POP POP POP JUMP JUMPDEST PUSH1 0x0 DUP3 PUSH1 0x1F DUP4 ADD SLT PUSH3 0x345 JUMPI PUSH3 0x345 PUSH1 0x0 DUP1 REVERT JUMPDEST DUP2 MLOAD PUSH3 0x357 DUP5 DUP3 PUSH1 0x20 DUP7 ADD PUSH3 0x2E6 JUMP JUMPDEST SWAP5 SWAP4 POP POP POP POP JUMP JUMPDEST PUSH1 0x0 DUP1 PUSH1 0x40 DUP4 DUP6 SUB SLT ISZERO PUSH3 0x377 JUMPI PUSH3 0x377 PUSH1 0x0 DUP1 REVERT JUMPDEST DUP3 MLOAD PUSH1 0x1 PUSH1 0x1 PUSH1 0x40 SHL SUB DUP2 GT ISZERO PUSH3 0x392 JUMPI PUSH3 0x392 PUSH1 0x0 DUP1 REVERT JUMPDEST PUSH3 0x3A0 DUP6 DUP3 DUP7 ADD PUSH3 0x32F JUMP JUMPDEST SWAP3 POP POP PUSH1 0x20 DUP4 ADD MLOAD PUSH1 0x1 PUSH1 0x1 PUSH1 0x40 SHL SUB DUP2 GT ISZERO PUSH3 0x3C1 JUMPI PUSH3 0x3C1 PUSH1 0x0 DUP1 REVERT JUMPDEST PUSH3 0x3CF DUP6 DUP3 DUP7 ADD PUSH3 0x32F JUMP JUMPDEST SWAP2 POP POP SWAP3 POP SWAP3 SWAP1 POP JUMP JUMPDEST PUSH4 0x4E487B71 PUSH1 0xE0 SHL PUSH1 0x0 MSTORE PUSH1 0x22 PUSH1 0x4 MSTORE PUSH1 0x24 PUSH1 0x0 REVERT JUMPDEST PUSH1 0x2 DUP2 DIV PUSH1 0x1 DUP3 AND DUP1 PUSH3 0x404 JUMPI PUSH1 0x7F DUP3 AND SWAP2 POP JUMPDEST PUSH1 0x20 DUP3 LT DUP2 SUB PUSH3 0x419 JUMPI PUSH3 0x419 PUSH3 0x3D9 JUMP JUMPDEST POP SWAP2 SWAP1 POP JUMP JUMPDEST PUSH1 0x0 PUSH3 0x430 PUSH3 0x42D DUP4 DUP2 JUMP JUMPDEST SWAP1 JUMP JUMPDEST SWAP3 SWAP2 POP POP JUMP JUMPDEST PUSH3 0x441 DUP4 PUSH3 0x41F JUMP JUMPDEST DUP2 SLOAD PUSH1 0x8 DUP5 MUL DUP3 DUP2 SHL PUSH1 0x0 NOT SWAP1 SWAP2 SHL SWAP1 DUP2 AND SWAP1 NOT SWAP1 SWAP2 AND OR DUP3 SSTORE POP POP POP POP JUMP JUMPDEST PUSH1 0x0 PUSH3 0x470 DUP2 DUP5 DUP5 PUSH3 0x436 JUMP JUMPDEST POP POP POP JUMP JUMPDEST DUP2 DUP2 LT ISZERO PUSH3 0x494 JUMPI PUSH3 0x48B PUSH1 0x0 DUP3 PUSH3 0x461 JUMP JUMPDEST PUSH1 0x1 ADD PUSH3 0x475 JUMP JUMPDEST POP POP JUMP JUMPDEST PUSH1 0x1F DUP3 GT ISZERO PUSH3 0x470 JUMPI PUSH1 0x0 DUP2 DUP2 MSTORE PUSH1 0x20 SWAP1 KECCAK256 PUSH1 0x20 PUSH1 0x1F DUP6 ADD DIV DUP2 ADD PUSH1 0x20 DUP6 LT ISZERO PUSH3 0x4C1 JUMPI POP DUP1 JUMPDEST PUSH3 0x4D5 PUSH1 0x20 PUSH1 0x1F DUP7 ADD DIV DUP4 ADD DUP3 PUSH3 0x475 JUMP JUMPDEST POP POP POP POP POP JUMP JUMPDEST DUP2 MLOAD PUSH1 0x1 PUSH1 0x1 PUSH1 0x40 SHL SUB DUP2 GT ISZERO PUSH3 0x4F8 JUMPI PUSH3 0x4F8 PUSH3 0x222 JUMP JUMPDEST PUSH3 0x504 DUP3 SLOAD PUSH3 0x3EF JUMP JUMPDEST PUSH3 0x511 DUP3 DUP3 DUP6 PUSH3 0x498 JUMP JUMPDEST PUSH1 0x20 PUSH1 0x1F DUP4 GT PUSH1 0x1 DUP2 EQ PUSH3 0x548 JUMPI PUSH1 0x0 DUP5 ISZERO PUSH3 0x52F JUMPI POP DUP6 DUP3 ADD MLOAD JUMPDEST PUSH1 0x0 NOT PUSH1 0x8 DUP7 MUL SHR NOT DUP2 AND PUSH1 0x2 DUP7 MUL OR DUP7 SSTORE POP PUSH3 0x5A4 JUMP JUMPDEST PUSH1 0x0 DUP6 DUP2 MSTORE PUSH1 0x20 DUP2 KECCAK256 PUSH1 0x1F NOT DUP7 AND SWAP2 JUMPDEST DUP3 DUP2 LT ISZERO PUSH3 0x57A JUMPI DUP9 DUP6 ADD MLOAD DUP3 SSTORE PUSH1 0x20 SWAP5 DUP6 ADD SWAP5 PUSH1 0x1 SWAP1 SWAP3 ADD SWAP2 ADD PUSH3 0x558 JUMP JUMPDEST DUP7 DUP4 LT ISZERO PUSH3 0x597 JUMPI DUP5 DUP10 ADD MLOAD PUSH1 0x0 NOT PUSH1 0x1F DUP10 AND PUSH1 0x8 MUL SHR NOT AND DUP3 SSTORE JUMPDEST PUSH1 0x1 PUSH1 0x2 DUP9 MUL ADD DUP9 SSTORE POP POP POP JUMPDEST POP POP POP POP POP POP JUMP JUMPDEST PUSH2 0x2C17 DUP1 PUSH3 0x5BC PUSH1 0x0 CODECOPY PUSH1 0x0 RETURN INVALID PUSH1 0x80 PUSH1 0x40 MSTORE PUSH1 0x4 CALLDATASIZE LT PUSH2 0x1D8 JUMPI PUSH1 0x0 CALLDATALOAD PUSH1 0xE0 SHR DUP1 PUSH4 0x51CD66A2 GT PUSH2 0x102 JUMPI DUP1 PUSH4 0x95D89B41 GT PUSH2 0x95 JUMPI DUP1 PUSH4 0xC87B56DD GT PUSH2 0x64 JUMPI DUP1 PUSH4 0xC87B56DD EQ PUSH2 0x553 JUMPI DUP1 PUSH4 0xD3BFE077 EQ PUSH2 0x573 JUMPI DUP1 PUSH4 0xE985E9C5 EQ PUSH2 0x5A0 JUMPI DUP1 PUSH4 0xF2FDE38B EQ PUSH2 0x5E9 JUMPI PUSH1 0x0 DUP1 REVERT JUMPDEST DUP1 PUSH4 0x95D89B41 EQ PUSH2 0x4DE JUMPI DUP1 PUSH4 0xA22CB465 EQ PUSH2 0x4F3 JUMPI DUP1 PUSH4 0xB322078D EQ PUSH2 0x513 JUMPI DUP1 PUSH4 0xB88D4FDE EQ PUSH2 0x533 JUMPI PUSH1 0x0 DUP1 REVERT JUMPDEST DUP1 PUSH4 0x70A08231 GT PUSH2 0xD1 JUMPI DUP1 PUSH4 0x70A08231 EQ PUSH2 0x45E JUMPI DUP1 PUSH4 0x715018A6 EQ PUSH2 0x47E JUMPI DUP1 PUSH4 0x8928577E EQ PUSH2 0x493 JUMPI DUP1 PUSH4 0x8DA5CB5B EQ PUSH2 0x4C0 JUMPI PUSH1 0x0 DUP1 REVERT JUMPDEST DUP1 PUSH4 0x51CD66A2 EQ PUSH2 0x3F1 JUMPI DUP1 PUSH4 0x55F804B3 EQ PUSH2 0x404 JUMPI DUP1 PUSH4 0x5C474F9E EQ PUSH2 0x424 JUMPI DUP1 PUSH4 0x6352211E EQ PUSH2 0x43E JUMPI PUSH1 0x0 DUP1 REVERT JUMPDEST DUP1 PUSH4 0x23B872DD GT PUSH2 0x17A JUMPI DUP1 PUSH4 0x42842E0E GT PUSH2 0x149 JUMPI DUP1 PUSH4 0x42842E0E EQ PUSH2 0x364 JUMPI DUP1 PUSH4 0x45133772 EQ PUSH2 0x384 JUMPI DUP1 PUSH4 0x48CEB90E EQ PUSH2 0x3A4 JUMPI DUP1 PUSH4 0x4F6CCCE7 EQ PUSH2 0x3D1 JUMPI PUSH1 0x0 DUP1 REVERT JUMPDEST DUP1 PUSH4 0x23B872DD EQ PUSH2 0x2EF JUMPI DUP1 PUSH4 0x241EA22C EQ PUSH2 0x30F JUMPI DUP1 PUSH4 0x2F745C59 EQ PUSH2 0x33C JUMPI DUP1 PUSH4 0x3CCFD60B EQ PUSH2 0x35C JUMPI PUSH1 0x0 DUP1 REVERT JUMPDEST DUP1 PUSH4 0x81812FC GT PUSH2 0x1B6 JUMPI DUP1 PUSH4 0x81812FC EQ PUSH2 0x257 JUMPI DUP1 PUSH4 0x95EA7B3 EQ PUSH2 0x284 JUMPI DUP1 PUSH4 0x18160DDD EQ PUSH2 0x2A4 JUMPI DUP1 PUSH4 0x21B1DC4B EQ PUSH2 0x2C2 JUMPI PUSH1 0x0 DUP1 REVERT JUMPDEST DUP1 PUSH4 0x1FFC9A7 EQ PUSH2 0x1DD JUMPI DUP1 PUSH4 0x6FDDE03 EQ PUSH2 0x213 JUMPI DUP1 PUSH4 0x75F447B EQ PUSH2 0x235 JUMPI JUMPDEST PUSH1 0x0 DUP1 REVERT JUMPDEST CALLVALUE DUP1 ISZERO PUSH2 0x1E9 JUMPI PUSH1 0x0 DUP1 REVERT JUMPDEST POP PUSH2 0x1FD PUSH2 0x1F8 CALLDATASIZE PUSH1 0x4 PUSH2 0x1B07 JUMP JUMPDEST PUSH2 0x609 JUMP JUMPDEST PUSH1 0x40 MLOAD PUSH2 0x20A SWAP2 SWAP1 PUSH2 0x1B32 JUMP JUMPDEST PUSH1 0x40 MLOAD DUP1 SWAP2 SUB SWAP1 RETURN JUMPDEST CALLVALUE DUP1 ISZERO PUSH2 0x21F JUMPI PUSH1 0x0 DUP1 REVERT JUMPDEST POP PUSH2 0x228 PUSH2 0x61A JUMP JUMPDEST PUSH1 0x40 MLOAD PUSH2 0x20A SWAP2 SWAP1 PUSH2 0x1B9E JUMP JUMPDEST CALLVALUE DUP1 ISZERO PUSH2 0x241 JUMPI PUSH1 0x0 DUP1 REVERT JUMPDEST POP PUSH2 0x255 PUSH2 0x250 CALLDATASIZE PUSH1 0x4 PUSH2 0x1BC0 JUMP JUMPDEST PUSH2 0x6AC JUMP JUMPDEST STOP JUMPDEST CALLVALUE DUP1 ISZERO PUSH2 0x263 JUMPI PUSH1 0x0 DUP1 REVERT JUMPDEST POP PUSH2 0x277 PUSH2 0x272 CALLDATASIZE PUSH1 0x4 PUSH2 0x1BFD JUMP JUMPDEST PUSH2 0x6C6 JUMP JUMPDEST PUSH1 0x40 MLOAD PUSH2 0x20A SWAP2 SWAP1 PUSH2 0x1C38 JUMP JUMPDEST CALLVALUE DUP1 ISZERO PUSH2 0x290 JUMPI PUSH1 0x0 DUP1 REVERT JUMPDEST POP PUSH2 0x255 PUSH2 0x29F CALLDATASIZE PUSH1 0x4 PUSH2 0x1C5A JUMP JUMPDEST PUSH2 0x6ED JUMP JUMPDEST CALLVALUE DUP1 ISZERO PUSH2 0x2B0 JUMPI PUSH1 0x0 DUP1 REVERT JUMPDEST POP PUSH1 0x8 SLOAD JUMPDEST PUSH1 0x40 MLOAD PUSH2 0x20A SWAP2 SWAP1 PUSH2 0x1C82 JUMP JUMPDEST CALLVALUE DUP1 ISZERO PUSH2 0x2CE JUMPI PUSH1 0x0 DUP1 REVERT JUMPDEST POP PUSH2 0x2B5 PUSH2 0x2DD CALLDATASIZE PUSH1 0x4 PUSH2 0x1BFD JUMP JUMPDEST PUSH1 0x0 SWAP1 DUP2 MSTORE PUSH1 0xC PUSH1 0x20 MSTORE PUSH1 0x40 SWAP1 KECCAK256 SLOAD SWAP1 JUMP JUMPDEST CALLVALUE DUP1 ISZERO PUSH2 0x2FB JUMPI PUSH1 0x0 DUP1 REVERT JUMPDEST POP PUSH2 0x255 PUSH2 0x30A CALLDATASIZE PUSH1 0x4 PUSH2 0x1C90 JUMP JUMPDEST PUSH2 0x77B JUMP JUMPDEST CALLVALUE DUP1 ISZERO PUSH2 0x31B JUMPI PUSH1 0x0 DUP1 REVERT JUMPDEST POP PUSH2 0x2B5 PUSH2 0x32A CALLDATASIZE PUSH1 0x4 PUSH2 0x1BFD JUMP JUMPDEST PUSH1 0xF PUSH1 0x20 MSTORE PUSH1 0x0 SWAP1 DUP2 MSTORE PUSH1 0x40 SWAP1 KECCAK256 SLOAD DUP2 JUMP JUMPDEST CALLVALUE DUP1 ISZERO PUSH2 0x348 JUMPI PUSH1 0x0 DUP1 REVERT JUMPDEST POP PUSH2 0x2B5 PUSH2 0x357 CALLDATASIZE PUSH1 0x4 PUSH2 0x1C5A JUMP JUMPDEST PUSH2 0x7AC JUMP JUMPDEST PUSH2 0x255 PUSH2 0x7FE JUMP JUMPDEST CALLVALUE DUP1 ISZERO PUSH2 0x370 JUMPI PUSH1 0x0 DUP1 REVERT JUMPDEST POP PUSH2 0x255 PUSH2 0x37F CALLDATASIZE PUSH1 0x4 PUSH2 0x1C90 JUMP JUMPDEST PUSH2 0x869 JUMP JUMPDEST CALLVALUE DUP1 ISZERO PUSH2 0x390 JUMPI PUSH1 0x0 DUP1 REVERT JUMPDEST POP PUSH2 0x255 PUSH2 0x39F CALLDATASIZE PUSH1 0x4 PUSH2 0x1CE0 JUMP JUMPDEST PUSH2 0x884 JUMP JUMPDEST CALLVALUE DUP1 ISZERO PUSH2 0x3B0 JUMPI PUSH1 0x0 DUP1 REVERT JUMPDEST POP PUSH2 0x2B5 PUSH2 0x3BF CALLDATASIZE PUSH1 0x4 PUSH2 0x1BFD JUMP JUMPDEST PUSH1 0xE PUSH1 0x20 MSTORE PUSH1 0x0 SWAP1 DUP2 MSTORE PUSH1 0x40 SWAP1 KECCAK256 SLOAD DUP2 JUMP JUMPDEST CALLVALUE DUP1 ISZERO PUSH2 0x3DD JUMPI PUSH1 0x0 DUP1 REVERT JUMPDEST POP PUSH2 0x2B5 PUSH2 0x3EC CALLDATASIZE PUSH1 0x4 PUSH2 0x1BFD JUMP JUMPDEST PUSH2 0x95A JUMP JUMPDEST PUSH2 0x255 PUSH2 0x3FF CALLDATASIZE PUSH1 0x4 PUSH2 0x1BC0 JUMP JUMPDEST PUSH2 0x9A8 JUMP JUMPDEST CALLVALUE DUP1 ISZERO PUSH2 0x410 JUMPI PUSH1 0x0 DUP1 REVERT JUMPDEST POP PUSH2 0x255 PUSH2 0x41F CALLDATASIZE PUSH1 0x4 PUSH2 0x1E21 JUMP JUMPDEST PUSH2 0xB10 JUMP JUMPDEST CALLVALUE DUP1 ISZERO PUSH2 0x430 JUMPI PUSH1 0x0 DUP1 REVERT JUMPDEST POP PUSH1 0x11 SLOAD PUSH2 0x1FD SWAP1 PUSH1 0xFF AND DUP2 JUMP JUMPDEST CALLVALUE DUP1 ISZERO PUSH2 0x44A JUMPI PUSH1 0x0 DUP1 REVERT JUMPDEST POP PUSH2 0x277 PUSH2 0x459 CALLDATASIZE PUSH1 0x4 PUSH2 0x1BFD JUMP JUMPDEST PUSH2 0xB55 JUMP JUMPDEST CALLVALUE DUP1 ISZERO PUSH2 0x46A JUMPI PUSH1 0x0 DUP1 REVERT JUMPDEST POP PUSH2 0x2B5 PUSH2 0x479 CALLDATASIZE PUSH1 0x4 PUSH2 0x1E5C JUMP JUMPDEST PUSH2 0xB8A JUMP JUMPDEST CALLVALUE DUP1 ISZERO PUSH2 0x48A JUMPI PUSH1 0x0 DUP1 REVERT JUMPDEST POP PUSH2 0x255 PUSH2 0xBCE JUMP JUMPDEST CALLVALUE DUP1 ISZERO PUSH2 0x49F JUMPI PUSH1 0x0 DUP1 REVERT JUMPDEST POP PUSH2 0x2B5 PUSH2 0x4AE CALLDATASIZE PUSH1 0x4 PUSH2 0x1BFD JUMP JUMPDEST PUSH1 0x10 PUSH1 0x20 MSTORE PUSH1 0x0 SWAP1 DUP2 MSTORE PUSH1 0x40 SWAP1 KECCAK256 SLOAD DUP2 JUMP JUMPDEST CALLVALUE DUP1 ISZERO PUSH2 0x4CC JUMPI PUSH1 0x0 DUP1 REVERT JUMPDEST POP PUSH1 0xA SLOAD PUSH1 0x1 PUSH1 0x1 PUSH1 0xA0 SHL SUB AND PUSH2 0x277 JUMP JUMPDEST CALLVALUE DUP1 ISZERO PUSH2 0x4EA JUMPI PUSH1 0x0 DUP1 REVERT JUMPDEST POP PUSH2 0x228 PUSH2 0xBE2 JUMP JUMPDEST CALLVALUE DUP1 ISZERO PUSH2 0x4FF JUMPI PUSH1 0x0 DUP1 REVERT JUMPDEST POP PUSH2 0x255 PUSH2 0x50E CALLDATASIZE PUSH1 0x4 PUSH2 0x1E90 JUMP JUMPDEST PUSH2 0xBF1 JUMP JUMPDEST CALLVALUE DUP1 ISZERO PUSH2 0x51F JUMPI PUSH1 0x0 DUP1 REVERT JUMPDEST POP PUSH2 0x255 PUSH2 0x52E CALLDATASIZE PUSH1 0x4 PUSH2 0x1EC3 JUMP JUMPDEST PUSH2 0xC00 JUMP JUMPDEST CALLVALUE DUP1 ISZERO PUSH2 0x53F JUMPI PUSH1 0x0 DUP1 REVERT JUMPDEST POP PUSH2 0x255 PUSH2 0x54E CALLDATASIZE PUSH1 0x4 PUSH2 0x1EE4 JUMP JUMPDEST PUSH2 0xC69 JUMP JUMPDEST CALLVALUE DUP1 ISZERO PUSH2 0x55F JUMPI PUSH1 0x0 DUP1 REVERT JUMPDEST POP PUSH2 0x228 PUSH2 0x56E CALLDATASIZE PUSH1 0x4 PUSH2 0x1BFD JUMP JUMPDEST PUSH2 0xCA1 JUMP JUMPDEST CALLVALUE DUP1 ISZERO PUSH2 0x57F JUMPI PUSH1 0x0 DUP1 REVERT JUMPDEST POP PUSH2 0x593 PUSH2 0x58E CALLDATASIZE PUSH1 0x4 PUSH2 0x1E5C JUMP JUMPDEST PUSH2 0xD34 JUMP JUMPDEST PUSH1 0x40 MLOAD PUSH2 0x20A SWAP2 SWAP1 PUSH2 0x1FC0 JUMP JUMPDEST CALLVALUE DUP1 ISZERO PUSH2 0x5AC JUMPI PUSH1 0x0 DUP1 REVERT JUMPDEST POP PUSH2 0x1FD PUSH2 0x5BB CALLDATASIZE PUSH1 0x4 PUSH2 0x1FD1 JUMP JUMPDEST PUSH1 0x1 PUSH1 0x1 PUSH1 0xA0 SHL SUB SWAP2 DUP3 AND PUSH1 0x0 SWAP1 DUP2 MSTORE PUSH1 0x5 PUSH1 0x20 SWAP1 DUP2 MSTORE PUSH1 0x40 DUP1 DUP4 KECCAK256 SWAP4 SWAP1 SWAP5 AND DUP3 MSTORE SWAP2 SWAP1 SWAP2 MSTORE KECCAK256 SLOAD PUSH1 0xFF AND SWAP1 JUMP JUMPDEST CALLVALUE DUP1 ISZERO PUSH2 0x5F5 JUMPI PUSH1 0x0 DUP1 REVERT JUMPDEST POP PUSH2 0x255 PUSH2 0x604 CALLDATASIZE PUSH1 0x4 PUSH2 0x1E5C JUMP JUMPDEST PUSH2 0xDF6 JUMP JUMPDEST PUSH1 0x0 PUSH2 0x614 DUP3 PUSH2 0xE2D JUMP JUMPDEST SWAP3 SWAP2 POP POP JUMP JUMPDEST PUSH1 0x60 PUSH1 0x0 DUP1 SLOAD PUSH2 0x629 SWAP1 PUSH2 0x2033 JUMP JUMPDEST DUP1 PUSH1 0x1F ADD PUSH1 0x20 DUP1 SWAP2 DIV MUL PUSH1 0x20 ADD PUSH1 0x40 MLOAD SWAP1 DUP2 ADD PUSH1 0x40 MSTORE DUP1 SWAP3 SWAP2 SWAP1 DUP2 DUP2 MSTORE PUSH1 0x20 ADD DUP3 DUP1 SLOAD PUSH2 0x655 SWAP1 PUSH2 0x2033 JUMP JUMPDEST DUP1 ISZERO PUSH2 0x6A2 JUMPI DUP1 PUSH1 0x1F LT PUSH2 0x677 JUMPI PUSH2 0x100 DUP1 DUP4 SLOAD DIV MUL DUP4 MSTORE SWAP2 PUSH1 0x20 ADD SWAP2 PUSH2 0x6A2 JUMP JUMPDEST DUP3 ADD SWAP2 SWAP1 PUSH1 0x0 MSTORE PUSH1 0x20 PUSH1 0x0 KECCAK256 SWAP1 JUMPDEST DUP2 SLOAD DUP2 MSTORE SWAP1 PUSH1 0x1 ADD SWAP1 PUSH1 0x20 ADD DUP1 DUP4 GT PUSH2 0x685 JUMPI DUP3 SWAP1 SUB PUSH1 0x1F AND DUP3 ADD SWAP2 JUMPDEST POP POP POP POP POP SWAP1 POP SWAP1 JUMP JUMPDEST PUSH2 0x6B4 PUSH2 0xE83 JUMP JUMPDEST PUSH1 0x0 SWAP2 DUP3 MSTORE PUSH1 0xF PUSH1 0x20 MSTORE PUSH1 0x40 SWAP1 SWAP2 KECCAK256 SSTORE JUMP JUMPDEST PUSH1 0x0 PUSH2 0x6D1 DUP3 PUSH2 0xEAD JUMP JUMPDEST POP PUSH1 0x0 SWAP1 DUP2 MSTORE PUSH1 0x4 PUSH1 0x20 MSTORE PUSH1 0x40 SWAP1 KECCAK256 SLOAD PUSH1 0x1 PUSH1 0x1 PUSH1 0xA0 SHL SUB AND SWAP1 JUMP JUMPDEST PUSH1 0x0 PUSH2 0x6F8 DUP3 PUSH2 0xB55 JUMP JUMPDEST SWAP1 POP DUP1 PUSH1 0x1 PUSH1 0x1 PUSH1 0xA0 SHL SUB AND DUP4 PUSH1 0x1 PUSH1 0x1 PUSH1 0xA0 SHL SUB AND SUB PUSH2 0x734 JUMPI PUSH1 0x40 MLOAD PUSH3 0x461BCD PUSH1 0xE5 SHL DUP2 MSTORE PUSH1 0x4 ADD PUSH2 0x72B SWAP1 PUSH2 0x20B6 JUMP JUMPDEST PUSH1 0x40 MLOAD DUP1 SWAP2 SUB SWAP1 REVERT JUMPDEST CALLER PUSH1 0x1 PUSH1 0x1 PUSH1 0xA0 SHL SUB DUP3 AND EQ DUP1 PUSH2 0x750 JUMPI POP PUSH2 0x750 DUP2 CALLER PUSH2 0x5BB JUMP JUMPDEST PUSH2 0x76C JUMPI PUSH1 0x40 MLOAD PUSH3 0x461BCD PUSH1 0xE5 SHL DUP2 MSTORE PUSH1 0x4 ADD PUSH2 0x72B SWAP1 PUSH2 0x2120 JUMP JUMPDEST PUSH2 0x776 DUP4 DUP4 PUSH2 0xEE1 JUMP JUMPDEST POP POP POP JUMP JUMPDEST PUSH2 0x785 CALLER DUP3 PUSH2 0xF67 JUMP JUMPDEST PUSH2 0x7A1 JUMPI PUSH1 0x40 MLOAD PUSH3 0x461BCD PUSH1 0xE5 SHL DUP2 MSTORE PUSH1 0x4 ADD PUSH2 0x72B SWAP1 PUSH2 0x218A JUMP JUMPDEST PUSH2 0x776 DUP4 DUP4 DUP4 PUSH2 0xFE6 JUMP JUMPDEST PUSH1 0x0 PUSH2 0x7B7 DUP4 PUSH2 0xB8A JUMP JUMPDEST DUP3 LT PUSH2 0x7D5 JUMPI PUSH1 0x40 MLOAD PUSH3 0x461BCD PUSH1 0xE5 SHL DUP2 MSTORE PUSH1 0x4 ADD PUSH2 0x72B SWAP1 PUSH2 0x21F4 JUMP JUMPDEST POP PUSH1 0x1 PUSH1 0x1 PUSH1 0xA0 SHL SUB SWAP2 SWAP1 SWAP2 AND PUSH1 0x0 SWAP1 DUP2 MSTORE PUSH1 0x6 PUSH1 0x20 SWAP1 DUP2 MSTORE PUSH1 0x40 DUP1 DUP4 KECCAK256 SWAP4 DUP4 MSTORE SWAP3 SWAP1 MSTORE KECCAK256 SLOAD SWAP1 JUMP JUMPDEST PUSH2 0x806 PUSH2 0xE83 JUMP JUMPDEST PUSH1 0x40 MLOAD SELFBALANCE SWAP1 CALLER SWAP1 DUP3 ISZERO PUSH2 0x8FC MUL SWAP1 DUP4 SWAP1 PUSH1 0x0 DUP2 DUP2 DUP2 DUP6 DUP9 DUP9 CALL SWAP4 POP POP POP POP PUSH2 0x82D JUMPI PUSH1 0x0 DUP1 REVERT JUMPDEST PUSH32 0x8353FFCAC0876AD14E226D9783C04540BFEBF13871E868157D2A391CAD98E918 DUP2 CALLER PUSH1 0x40 MLOAD PUSH2 0x85E SWAP3 SWAP2 SWAP1 PUSH2 0x2204 JUMP JUMPDEST PUSH1 0x40 MLOAD DUP1 SWAP2 SUB SWAP1 LOG1 POP JUMP JUMPDEST PUSH2 0x776 DUP4 DUP4 DUP4 PUSH1 0x40 MLOAD DUP1 PUSH1 0x20 ADD PUSH1 0x40 MSTORE DUP1 PUSH1 0x0 DUP2 MSTORE POP PUSH2 0xC69 JUMP JUMPDEST PUSH2 0x88C PUSH2 0xE83 JUMP JUMPDEST PUSH1 0xD SLOAD DUP3 PUSH2 0x899 PUSH1 0x8 SLOAD SWAP1 JUMP JUMPDEST PUSH2 0x8A3 SWAP2 SWAP1 PUSH2 0x224E JUMP JUMPDEST GT ISZERO PUSH2 0x8C1 JUMPI PUSH1 0x40 MLOAD PUSH3 0x461BCD PUSH1 0xE5 SHL DUP2 MSTORE PUSH1 0x4 ADD PUSH2 0x72B SWAP1 PUSH2 0x229D JUMP JUMPDEST PUSH1 0x0 PUSH2 0x8CC PUSH1 0x8 SLOAD SWAP1 JUMP JUMPDEST SWAP1 POP PUSH1 0x1 JUMPDEST PUSH2 0x8DC DUP5 PUSH1 0x1 PUSH2 0x224E JUMP JUMPDEST DUP2 LT ISZERO PUSH2 0x928 JUMPI PUSH2 0x8F6 DUP6 PUSH2 0x8F1 DUP4 DUP6 PUSH2 0x224E JUMP JUMPDEST PUSH2 0x1133 JUMP JUMPDEST DUP3 PUSH1 0xC PUSH1 0x0 PUSH2 0x905 DUP5 DUP7 PUSH2 0x224E JUMP JUMPDEST DUP2 MSTORE PUSH1 0x20 DUP2 ADD SWAP2 SWAP1 SWAP2 MSTORE PUSH1 0x40 ADD PUSH1 0x0 KECCAK256 SSTORE DUP1 PUSH2 0x920 DUP2 PUSH2 0x22AD JUMP JUMPDEST SWAP2 POP POP PUSH2 0x8D1 JUMP JUMPDEST POP PUSH1 0x0 DUP3 DUP2 MSTORE PUSH1 0x10 PUSH1 0x20 MSTORE PUSH1 0x40 SWAP1 KECCAK256 SLOAD PUSH2 0x942 SWAP1 DUP5 PUSH2 0x114D JUMP JUMPDEST PUSH1 0x0 SWAP3 DUP4 MSTORE PUSH1 0x10 PUSH1 0x20 MSTORE PUSH1 0x40 SWAP1 SWAP3 KECCAK256 SWAP2 SWAP1 SWAP2 SSTORE POP POP POP JUMP JUMPDEST PUSH1 0x0 PUSH2 0x965 PUSH1 0x8 SLOAD SWAP1 JUMP JUMPDEST DUP3 LT PUSH2 0x983 JUMPI PUSH1 0x40 MLOAD PUSH3 0x461BCD PUSH1 0xE5 SHL DUP2 MSTORE PUSH1 0x4 ADD PUSH2 0x72B SWAP1 PUSH2 0x2321 JUMP JUMPDEST PUSH1 0x8 DUP3 DUP2 SLOAD DUP2 LT PUSH2 0x996 JUMPI PUSH2 0x996 PUSH2 0x2331 JUMP JUMPDEST SWAP1 PUSH1 0x0 MSTORE PUSH1 0x20 PUSH1 0x0 KECCAK256 ADD SLOAD SWAP1 POP SWAP2 SWAP1 POP JUMP JUMPDEST PUSH1 0x11 SLOAD PUSH1 0xFF AND PUSH2 0x9CA JUMPI PUSH1 0x40 MLOAD PUSH3 0x461BCD PUSH1 0xE5 SHL DUP2 MSTORE PUSH1 0x4 ADD PUSH2 0x72B SWAP1 PUSH2 0x2394 JUMP JUMPDEST PUSH1 0x0 DUP2 DUP2 MSTORE PUSH1 0xF PUSH1 0x20 MSTORE PUSH1 0x40 SWAP1 KECCAK256 SLOAD PUSH2 0x9E3 SWAP1 DUP4 PUSH2 0x1159 JUMP JUMPDEST CALLVALUE LT ISZERO PUSH2 0xA02 JUMPI PUSH1 0x40 MLOAD PUSH3 0x461BCD PUSH1 0xE5 SHL DUP2 MSTORE PUSH1 0x4 ADD PUSH2 0x72B SWAP1 PUSH2 0x23D8 JUMP JUMPDEST PUSH1 0xD SLOAD DUP3 PUSH2 0xA0F PUSH1 0x8 SLOAD SWAP1 JUMP JUMPDEST PUSH2 0xA19 SWAP2 SWAP1 PUSH2 0x224E JUMP JUMPDEST GT ISZERO PUSH2 0xA37 JUMPI PUSH1 0x40 MLOAD PUSH3 0x461BCD PUSH1 0xE5 SHL DUP2 MSTORE PUSH1 0x4 ADD PUSH2 0x72B SWAP1 PUSH2 0x229D JUMP JUMPDEST PUSH1 0x0 DUP2 DUP2 MSTORE PUSH1 0x10 PUSH1 0x20 MSTORE PUSH1 0x40 SWAP1 KECCAK256 SLOAD PUSH2 0xA50 SWAP1 DUP4 PUSH2 0x114D JUMP JUMPDEST PUSH1 0x0 DUP3 DUP2 MSTORE PUSH1 0xE PUSH1 0x20 MSTORE PUSH1 0x40 SWAP1 KECCAK256 SLOAD LT ISZERO PUSH2 0xA7D JUMPI PUSH1 0x40 MLOAD PUSH3 0x461BCD PUSH1 0xE5 SHL DUP2 MSTORE PUSH1 0x4 ADD PUSH2 0x72B SWAP1 PUSH2 0x241C JUMP JUMPDEST PUSH1 0x0 PUSH2 0xA88 PUSH1 0x8 SLOAD SWAP1 JUMP JUMPDEST SWAP1 POP PUSH1 0x1 JUMPDEST PUSH2 0xA98 DUP5 PUSH1 0x1 PUSH2 0x224E JUMP JUMPDEST DUP2 LT ISZERO PUSH2 0xADF JUMPI PUSH2 0xAAD CALLER PUSH2 0x8F1 DUP4 DUP6 PUSH2 0x224E JUMP JUMPDEST DUP3 PUSH1 0xC PUSH1 0x0 PUSH2 0xABC DUP5 DUP7 PUSH2 0x224E JUMP JUMPDEST DUP2 MSTORE PUSH1 0x20 DUP2 ADD SWAP2 SWAP1 SWAP2 MSTORE PUSH1 0x40 ADD PUSH1 0x0 KECCAK256 SSTORE DUP1 PUSH2 0xAD7 DUP2 PUSH2 0x22AD JUMP JUMPDEST SWAP2 POP POP PUSH2 0xA8D JUMP JUMPDEST POP PUSH1 0x0 DUP3 DUP2 MSTORE PUSH1 0x10 PUSH1 0x20 MSTORE PUSH1 0x40 SWAP1 KECCAK256 SLOAD PUSH2 0xAF9 SWAP1 DUP5 PUSH2 0x114D JUMP JUMPDEST PUSH1 0x0 SWAP3 DUP4 MSTORE PUSH1 0x10 PUSH1 0x20 MSTORE PUSH1 0x40 SWAP1 SWAP3 KECCAK256 SWAP2 SWAP1 SWAP2 SSTORE POP POP JUMP JUMPDEST PUSH2 0xB18 PUSH2 0xE83 JUMP JUMPDEST PUSH1 0xB PUSH2 0xB24 DUP3 DUP3 PUSH2 0x24C5 JUMP JUMPDEST POP PUSH32 0x23C8C9488EFEBFD474E85A7956DE6F39B17C7AB88502D42A623DB2D8E382BBAA PUSH1 0xB PUSH1 0x40 MLOAD PUSH2 0x85E SWAP2 SWAP1 PUSH2 0x2603 JUMP JUMPDEST PUSH1 0x0 DUP2 DUP2 MSTORE PUSH1 0x2 PUSH1 0x20 MSTORE PUSH1 0x40 DUP2 KECCAK256 SLOAD PUSH1 0x1 PUSH1 0x1 PUSH1 0xA0 SHL SUB AND DUP1 PUSH2 0x614 JUMPI PUSH1 0x40 MLOAD PUSH3 0x461BCD PUSH1 0xE5 SHL DUP2 MSTORE PUSH1 0x4 ADD PUSH2 0x72B SWAP1 PUSH2 0x2648 JUMP JUMPDEST PUSH1 0x0 PUSH1 0x1 PUSH1 0x1 PUSH1 0xA0 SHL SUB DUP3 AND PUSH2 0xBB2 JUMPI PUSH1 0x40 MLOAD PUSH3 0x461BCD PUSH1 0xE5 SHL DUP2 MSTORE PUSH1 0x4 ADD PUSH2 0x72B SWAP1 PUSH2 0x26B2 JUMP JUMPDEST POP PUSH1 0x1 PUSH1 0x1 PUSH1 0xA0 SHL SUB AND PUSH1 0x0 SWAP1 DUP2 MSTORE PUSH1 0x3 PUSH1 0x20 MSTORE PUSH1 0x40 SWAP1 KECCAK256 SLOAD SWAP1 JUMP JUMPDEST PUSH2 0xBD6 PUSH2 0xE83 JUMP JUMPDEST PUSH2 0xBE0 PUSH1 0x0 PUSH2 0x1165 JUMP JUMPDEST JUMP JUMPDEST PUSH1 0x60 PUSH1 0x1 DUP1 SLOAD PUSH2 0x629 SWAP1 PUSH2 0x2033 JUMP JUMPDEST PUSH2 0xBFC CALLER DUP4 DUP4 PUSH2 0x11CF JUMP JUMPDEST POP POP JUMP JUMPDEST PUSH2 0xC08 PUSH2 0xE83 JUMP JUMPDEST DUP1 ISZERO PUSH2 0xC44 JUMPI PUSH1 0x11 SLOAD PUSH1 0xFF AND ISZERO PUSH2 0xC31 JUMPI PUSH1 0x40 MLOAD PUSH3 0x461BCD PUSH1 0xE5 SHL DUP2 MSTORE PUSH1 0x4 ADD PUSH2 0x72B SWAP1 PUSH2 0x26F6 JUMP JUMPDEST PUSH1 0x11 DUP1 SLOAD DUP3 ISZERO ISZERO PUSH1 0xFF NOT SWAP1 SWAP2 AND OR SWAP1 SSTORE POP JUMP JUMPDEST PUSH1 0x11 SLOAD PUSH1 0xFF AND PUSH2 0xC31 JUMPI PUSH1 0x40 MLOAD PUSH3 0x461BCD PUSH1 0xE5 SHL DUP2 MSTORE PUSH1 0x4 ADD PUSH2 0x72B SWAP1 PUSH2 0x273A JUMP JUMPDEST POP JUMP JUMPDEST PUSH2 0xC73 CALLER DUP4 PUSH2 0xF67 JUMP JUMPDEST PUSH2 0xC8F JUMPI PUSH1 0x40 MLOAD PUSH3 0x461BCD PUSH1 0xE5 SHL DUP2 MSTORE PUSH1 0x4 ADD PUSH2 0x72B SWAP1 PUSH2 0x218A JUMP JUMPDEST PUSH2 0xC9B DUP5 DUP5 DUP5 DUP5 PUSH2 0x1271 JUMP JUMPDEST POP POP POP POP JUMP JUMPDEST PUSH1 0x0 DUP2 DUP2 MSTORE PUSH1 0x2 PUSH1 0x20 MSTORE PUSH1 0x40 SWAP1 KECCAK256 SLOAD PUSH1 0x60 SWAP1 PUSH1 0x1 PUSH1 0x1 PUSH1 0xA0 SHL SUB AND PUSH2 0xCD8 JUMPI PUSH1 0x40 MLOAD PUSH3 0x461BCD PUSH1 0xE5 SHL DUP2 MSTORE PUSH1 0x4 ADD PUSH2 0x72B SWAP1 PUSH2 0x27A4 JUMP JUMPDEST PUSH1 0x0 PUSH2 0xCE2 PUSH2 0x12A4 JUMP JUMPDEST SWAP1 POP PUSH1 0x0 DUP2 MLOAD GT PUSH2 0xD02 JUMPI PUSH1 0x40 MLOAD DUP1 PUSH1 0x20 ADD PUSH1 0x40 MSTORE DUP1 PUSH1 0x0 DUP2 MSTORE POP PUSH2 0xD2D JUMP JUMPDEST DUP1 PUSH2 0xD0C DUP5 PUSH2 0x12B3 JUMP JUMPDEST PUSH1 0x40 MLOAD PUSH1 0x20 ADD PUSH2 0xD1D SWAP3 SWAP2 SWAP1 PUSH2 0x27D6 JUMP JUMPDEST PUSH1 0x40 MLOAD PUSH1 0x20 DUP2 DUP4 SUB SUB DUP2 MSTORE SWAP1 PUSH1 0x40 MSTORE JUMPDEST SWAP4 SWAP3 POP POP POP JUMP JUMPDEST PUSH1 0x60 PUSH1 0x0 PUSH2 0xD41 DUP4 PUSH2 0xB8A JUMP JUMPDEST SWAP1 POP DUP1 PUSH1 0x0 SUB PUSH2 0xD65 JUMPI PUSH1 0x40 DUP1 MLOAD PUSH1 0x0 DUP1 DUP3 MSTORE PUSH1 0x20 DUP3 ADD SWAP1 SWAP3 MSTORE SWAP1 JUMPDEST POP SWAP4 SWAP3 POP POP POP JUMP JUMPDEST PUSH1 0x0 DUP2 PUSH8 0xFFFFFFFFFFFFFFFF DUP2 GT ISZERO PUSH2 0xD80 JUMPI PUSH2 0xD80 PUSH2 0x1D15 JUMP JUMPDEST PUSH1 0x40 MLOAD SWAP1 DUP1 DUP3 MSTORE DUP1 PUSH1 0x20 MUL PUSH1 0x20 ADD DUP3 ADD PUSH1 0x40 MSTORE DUP1 ISZERO PUSH2 0xDA9 JUMPI DUP2 PUSH1 0x20 ADD PUSH1 0x20 DUP3 MUL DUP1 CALLDATASIZE DUP4 CALLDATACOPY ADD SWAP1 POP JUMPDEST POP SWAP1 POP PUSH1 0x0 JUMPDEST DUP3 DUP2 LT ISZERO PUSH2 0xD5D JUMPI PUSH2 0xDC1 DUP6 DUP3 PUSH2 0x7AC JUMP JUMPDEST DUP3 DUP3 DUP2 MLOAD DUP2 LT PUSH2 0xDD3 JUMPI PUSH2 0xDD3 PUSH2 0x2331 JUMP JUMPDEST PUSH1 0x20 SWAP1 DUP2 MUL SWAP2 SWAP1 SWAP2 ADD ADD MSTORE DUP1 PUSH2 0xDE8 DUP2 PUSH2 0x22AD JUMP JUMPDEST SWAP2 POP POP PUSH2 0xDAF JUMP JUMPDEST POP SWAP2 SWAP1 POP JUMP JUMPDEST PUSH2 0xDFE PUSH2 0xE83 JUMP JUMPDEST PUSH1 0x1 PUSH1 0x1 PUSH1 0xA0 SHL SUB DUP2 AND PUSH2 0xE24 JUMPI PUSH1 0x40 MLOAD PUSH3 0x461BCD PUSH1 0xE5 SHL DUP2 MSTORE PUSH1 0x4 ADD PUSH2 0x72B SWAP1 PUSH2 0x2848 JUMP JUMPDEST PUSH2 0xC66 DUP2 PUSH2 0x1165 JUMP JUMPDEST PUSH1 0x0 PUSH32 0xFFFFFFFF00000000000000000000000000000000000000000000000000000000 DUP3 AND PUSH32 0x780E9D6300000000000000000000000000000000000000000000000000000000 EQ DUP1 PUSH2 0x614 JUMPI POP PUSH2 0x614 DUP3 PUSH2 0x1353 JUMP JUMPDEST PUSH1 0xA SLOAD PUSH1 0x1 PUSH1 0x1 PUSH1 0xA0 SHL SUB AND CALLER EQ PUSH2 0xBE0 JUMPI PUSH1 0x40 MLOAD PUSH3 0x461BCD PUSH1 0xE5 SHL DUP2 MSTORE PUSH1 0x4 ADD PUSH2 0x72B SWAP1 PUSH2 0x288A JUMP JUMPDEST PUSH1 0x0 DUP2 DUP2 MSTORE PUSH1 0x2 PUSH1 0x20 MSTORE PUSH1 0x40 SWAP1 KECCAK256 SLOAD PUSH1 0x1 PUSH1 0x1 PUSH1 0xA0 SHL SUB AND PUSH2 0xC66 JUMPI PUSH1 0x40 MLOAD PUSH3 0x461BCD PUSH1 0xE5 SHL DUP2 MSTORE PUSH1 0x4 ADD PUSH2 0x72B SWAP1 PUSH2 0x2648 JUMP JUMPDEST PUSH1 0x0 DUP2 DUP2 MSTORE PUSH1 0x4 PUSH1 0x20 MSTORE PUSH1 0x40 SWAP1 KECCAK256 DUP1 SLOAD PUSH32 0xFFFFFFFFFFFFFFFFFFFFFFFF0000000000000000000000000000000000000000 AND PUSH1 0x1 PUSH1 0x1 PUSH1 0xA0 SHL SUB DUP5 AND SWAP1 DUP2 OR SWAP1 SWAP2 SSTORE DUP2 SWAP1 PUSH2 0xF2E DUP3 PUSH2 0xB55 JUMP JUMPDEST PUSH1 0x1 PUSH1 0x1 PUSH1 0xA0 SHL SUB AND PUSH32 0x8C5BE1E5EBEC7D5BD14F71427D1E84F3DD0314C0F7B2291E5B200AC8C7C3B925 PUSH1 0x40 MLOAD PUSH1 0x40 MLOAD DUP1 SWAP2 SUB SWAP1 LOG4 POP POP JUMP JUMPDEST PUSH1 0x0 DUP1 PUSH2 0xF73 DUP4 PUSH2 0xB55 JUMP JUMPDEST SWAP1 POP DUP1 PUSH1 0x1 PUSH1 0x1 PUSH1 0xA0 SHL SUB AND DUP5 PUSH1 0x1 PUSH1 0x1 PUSH1 0xA0 SHL SUB AND EQ DUP1 PUSH2 0xFBA JUMPI POP PUSH1 0x1 PUSH1 0x1 PUSH1 0xA0 SHL SUB DUP1 DUP3 AND PUSH1 0x0 SWAP1 DUP2 MSTORE PUSH1 0x5 PUSH1 0x20 SWAP1 DUP2 MSTORE PUSH1 0x40 DUP1 DUP4 KECCAK256 SWAP4 DUP9 AND DUP4 MSTORE SWAP3 SWAP1 MSTORE KECCAK256 SLOAD PUSH1 0xFF AND JUMPDEST DUP1 PUSH2 0xFDE JUMPI POP DUP4 PUSH1 0x1 PUSH1 0x1 PUSH1 0xA0 SHL SUB AND PUSH2 0xFD3 DUP5 PUSH2 0x6C6 JUMP JUMPDEST PUSH1 0x1 PUSH1 0x1 PUSH1 0xA0 SHL SUB AND EQ JUMPDEST SWAP5 SWAP4 POP POP POP POP JUMP JUMPDEST DUP3 PUSH1 0x1 PUSH1 0x1 PUSH1 0xA0 SHL SUB AND PUSH2 0xFF9 DUP3 PUSH2 0xB55 JUMP JUMPDEST PUSH1 0x1 PUSH1 0x1 PUSH1 0xA0 SHL SUB AND EQ PUSH2 0x101F JUMPI PUSH1 0x40 MLOAD PUSH3 0x461BCD PUSH1 0xE5 SHL DUP2 MSTORE PUSH1 0x4 ADD PUSH2 0x72B SWAP1 PUSH2 0x28F4 JUMP JUMPDEST PUSH1 0x1 PUSH1 0x1 PUSH1 0xA0 SHL SUB DUP3 AND PUSH2 0x1045 JUMPI PUSH1 0x40 MLOAD PUSH3 0x461BCD PUSH1 0xE5 SHL DUP2 MSTORE PUSH1 0x4 ADD PUSH2 0x72B SWAP1 PUSH2 0x295E JUMP JUMPDEST PUSH2 0x1052 DUP4 DUP4 DUP4 PUSH1 0x1 PUSH2 0x1436 JUMP JUMPDEST DUP3 PUSH1 0x1 PUSH1 0x1 PUSH1 0xA0 SHL SUB AND PUSH2 0x1065 DUP3 PUSH2 0xB55 JUMP JUMPDEST PUSH1 0x1 PUSH1 0x1 PUSH1 0xA0 SHL SUB AND EQ PUSH2 0x108B JUMPI PUSH1 0x40 MLOAD PUSH3 0x461BCD PUSH1 0xE5 SHL DUP2 MSTORE PUSH1 0x4 ADD PUSH2 0x72B SWAP1 PUSH2 0x28F4 JUMP JUMPDEST PUSH1 0x0 DUP2 DUP2 MSTORE PUSH1 0x4 PUSH1 0x20 SWAP1 DUP2 MSTORE PUSH1 0x40 DUP1 DUP4 KECCAK256 DUP1 SLOAD PUSH32 0xFFFFFFFFFFFFFFFFFFFFFFFF0000000000000000000000000000000000000000 SWAP1 DUP2 AND SWAP1 SWAP2 SSTORE PUSH1 0x1 PUSH1 0x1 PUSH1 0xA0 SHL SUB DUP8 DUP2 AND DUP1 DUP7 MSTORE PUSH1 0x3 DUP6 MSTORE DUP4 DUP7 KECCAK256 DUP1 SLOAD PUSH1 0x0 NOT ADD SWAP1 SSTORE SWAP1 DUP8 AND DUP1 DUP7 MSTORE DUP4 DUP7 KECCAK256 DUP1 SLOAD PUSH1 0x1 ADD SWAP1 SSTORE DUP7 DUP7 MSTORE PUSH1 0x2 SWAP1 SWAP5 MSTORE DUP3 DUP6 KECCAK256 DUP1 SLOAD SWAP1 SWAP3 AND DUP5 OR SWAP1 SWAP2 SSTORE SWAP1 MLOAD DUP5 SWAP4 PUSH32 0xDDF252AD1BE2C89B69C2B068FC378DAA952BA7F163C4A11628F55A4DF523B3EF SWAP2 LOG4 POP POP POP JUMP JUMPDEST PUSH2 0xBFC DUP3 DUP3 PUSH1 0x40 MLOAD DUP1 PUSH1 0x20 ADD PUSH1 0x40 MSTORE DUP1 PUSH1 0x0 DUP2 MSTORE POP PUSH2 0x1442 JUMP JUMPDEST PUSH1 0x0 PUSH2 0xD2D DUP3 DUP5 PUSH2 0x224E JUMP JUMPDEST PUSH1 0x0 PUSH2 0xD2D DUP3 DUP5 PUSH2 0x296E JUMP JUMPDEST PUSH1 0xA DUP1 SLOAD PUSH1 0x1 PUSH1 0x1 PUSH1 0xA0 SHL SUB DUP4 DUP2 AND PUSH32 0xFFFFFFFFFFFFFFFFFFFFFFFF0000000000000000000000000000000000000000 DUP4 AND DUP2 OR SWAP1 SWAP4 SSTORE PUSH1 0x40 MLOAD SWAP2 AND SWAP2 SWAP1 DUP3 SWAP1 PUSH32 0x8BE0079C531659141344CD1FD0A4F28419497F9722A3DAAFE3B4186F6B6457E0 SWAP1 PUSH1 0x0 SWAP1 LOG3 POP POP JUMP JUMPDEST DUP2 PUSH1 0x1 PUSH1 0x1 PUSH1 0xA0 SHL SUB AND DUP4 PUSH1 0x1 PUSH1 0x1 PUSH1 0xA0 SHL SUB AND SUB PUSH2 0x1200 JUMPI PUSH1 0x40 MLOAD PUSH3 0x461BCD PUSH1 0xE5 SHL DUP2 MSTORE PUSH1 0x4 ADD PUSH2 0x72B SWAP1 PUSH2 0x29C1 JUMP JUMPDEST PUSH1 0x1 PUSH1 0x1 PUSH1 0xA0 SHL SUB DUP4 DUP2 AND PUSH1 0x0 DUP2 DUP2 MSTORE PUSH1 0x5 PUSH1 0x20 SWAP1 DUP2 MSTORE PUSH1 0x40 DUP1 DUP4 KECCAK256 SWAP5 DUP8 AND DUP1 DUP5 MSTORE SWAP5 SWAP1 SWAP2 MSTORE SWAP1 DUP2 SWAP1 KECCAK256 DUP1 SLOAD PUSH1 0xFF NOT AND DUP6 ISZERO ISZERO OR SWAP1 SSTORE MLOAD PUSH32 0x17307EAB39AB6107E8899845AD3D59BD9653F200F220920489CA2B5937696C31 SWAP1 PUSH2 0x1264 SWAP1 DUP6 SWAP1 PUSH2 0x1B32 JUMP JUMPDEST PUSH1 0x40 MLOAD DUP1 SWAP2 SUB SWAP1 LOG3 POP POP POP JUMP JUMPDEST PUSH2 0x127C DUP5 DUP5 DUP5 PUSH2 0xFE6 JUMP JUMPDEST PUSH2 0x1288 DUP5 DUP5 DUP5 DUP5 PUSH2 0x1475 JUMP JUMPDEST PUSH2 0xC9B JUMPI PUSH1 0x40 MLOAD PUSH3 0x461BCD PUSH1 0xE5 SHL DUP2 MSTORE PUSH1 0x4 ADD PUSH2 0x72B SWAP1 PUSH2 0x2A2B JUMP JUMPDEST PUSH1 0x60 PUSH1 0xB DUP1 SLOAD PUSH2 0x629 SWAP1 PUSH2 0x2033 JUMP JUMPDEST PUSH1 0x60 PUSH1 0x0 PUSH2 0x12C0 DUP4 PUSH2 0x15C0 JUMP JUMPDEST PUSH1 0x1 ADD SWAP1 POP PUSH1 0x0 DUP2 PUSH8 0xFFFFFFFFFFFFFFFF DUP2 GT ISZERO PUSH2 0x12E0 JUMPI PUSH2 0x12E0 PUSH2 0x1D15 JUMP JUMPDEST PUSH1 0x40 MLOAD SWAP1 DUP1 DUP3 MSTORE DUP1 PUSH1 0x1F ADD PUSH1 0x1F NOT AND PUSH1 0x20 ADD DUP3 ADD PUSH1 0x40 MSTORE DUP1 ISZERO PUSH2 0x130A JUMPI PUSH1 0x20 DUP3 ADD DUP2 DUP1 CALLDATASIZE DUP4 CALLDATACOPY ADD SWAP1 POP JUMPDEST POP SWAP1 POP DUP2 DUP2 ADD PUSH1 0x20 ADD JUMPDEST PUSH1 0x0 NOT ADD PUSH32 0x3031323334353637383961626364656600000000000000000000000000000000 PUSH1 0xA DUP7 MOD BYTE DUP2 MSTORE8 PUSH1 0xA DUP6 DIV SWAP5 POP DUP5 PUSH2 0x1314 JUMPI POP SWAP4 SWAP3 POP POP POP JUMP JUMPDEST PUSH1 0x0 PUSH32 0xFFFFFFFF00000000000000000000000000000000000000000000000000000000 DUP3 AND PUSH32 0x80AC58CD00000000000000000000000000000000000000000000000000000000 EQ DUP1 PUSH2 0x13E6 JUMPI POP PUSH32 0xFFFFFFFF00000000000000000000000000000000000000000000000000000000 DUP3 AND PUSH32 0x5B5E139F00000000000000000000000000000000000000000000000000000000 EQ JUMPDEST DUP1 PUSH2 0x614 JUMPI POP PUSH32 0x1FFC9A700000000000000000000000000000000000000000000000000000000 PUSH32 0xFFFFFFFF00000000000000000000000000000000000000000000000000000000 DUP4 AND EQ PUSH2 0x614 JUMP JUMPDEST PUSH2 0xC9B DUP5 DUP5 DUP5 DUP5 PUSH2 0x16A2 JUMP JUMPDEST PUSH2 0x144C DUP4 DUP4 PUSH2 0x1794 JUMP JUMPDEST PUSH2 0x1459 PUSH1 0x0 DUP5 DUP5 DUP5 PUSH2 0x1475 JUMP JUMPDEST PUSH2 0x776 JUMPI PUSH1 0x40 MLOAD PUSH3 0x461BCD PUSH1 0xE5 SHL DUP2 MSTORE PUSH1 0x4 ADD PUSH2 0x72B SWAP1 PUSH2 0x2A2B JUMP JUMPDEST PUSH1 0x0 PUSH1 0x1 PUSH1 0x1 PUSH1 0xA0 SHL SUB DUP5 AND EXTCODESIZE ISZERO PUSH2 0x15B5 JUMPI PUSH1 0x40 MLOAD PUSH32 0x150B7A0200000000000000000000000000000000000000000000000000000000 DUP2 MSTORE PUSH1 0x1 PUSH1 0x1 PUSH1 0xA0 SHL SUB DUP6 AND SWAP1 PUSH4 0x150B7A02 SWAP1 PUSH2 0x14D2 SWAP1 CALLER SWAP1 DUP10 SWAP1 DUP9 SWAP1 DUP9 SWAP1 PUSH1 0x4 ADD PUSH2 0x2A3B JUMP JUMPDEST PUSH1 0x20 PUSH1 0x40 MLOAD DUP1 DUP4 SUB DUP2 PUSH1 0x0 DUP8 GAS CALL SWAP3 POP POP POP DUP1 ISZERO PUSH2 0x150D JUMPI POP PUSH1 0x40 DUP1 MLOAD PUSH1 0x1F RETURNDATASIZE SWAP1 DUP2 ADD PUSH1 0x1F NOT AND DUP3 ADD SWAP1 SWAP3 MSTORE PUSH2 0x150A SWAP2 DUP2 ADD SWAP1 PUSH2 0x2A8A JUMP JUMPDEST PUSH1 0x1 JUMPDEST PUSH2 0x156A JUMPI RETURNDATASIZE DUP1 DUP1 ISZERO PUSH2 0x153B JUMPI PUSH1 0x40 MLOAD SWAP2 POP PUSH1 0x1F NOT PUSH1 0x3F RETURNDATASIZE ADD AND DUP3 ADD PUSH1 0x40 MSTORE RETURNDATASIZE DUP3 MSTORE RETURNDATASIZE PUSH1 0x0 PUSH1 0x20 DUP5 ADD RETURNDATACOPY PUSH2 0x1540 JUMP JUMPDEST PUSH1 0x60 SWAP2 POP JUMPDEST POP DUP1 MLOAD PUSH1 0x0 SUB PUSH2 0x1562 JUMPI PUSH1 0x40 MLOAD PUSH3 0x461BCD PUSH1 0xE5 SHL DUP2 MSTORE PUSH1 0x4 ADD PUSH2 0x72B SWAP1 PUSH2 0x2A2B JUMP JUMPDEST DUP1 MLOAD DUP2 PUSH1 0x20 ADD REVERT JUMPDEST PUSH32 0xFFFFFFFF00000000000000000000000000000000000000000000000000000000 AND PUSH32 0x150B7A0200000000000000000000000000000000000000000000000000000000 EQ SWAP1 POP PUSH2 0xFDE JUMP JUMPDEST POP PUSH1 0x1 SWAP5 SWAP4 POP POP POP POP JUMP JUMPDEST PUSH1 0x0 DUP1 PUSH27 0x184F03E93FF9F4DAA797ED6E38ED64BF6A1F010000000000000000 DUP4 LT PUSH2 0x1609 JUMPI PUSH27 0x184F03E93FF9F4DAA797ED6E38ED64BF6A1F010000000000000000 DUP4 DIV SWAP3 POP PUSH1 0x40 ADD JUMPDEST PUSH14 0x4EE2D6D415B85ACEF8100000000 DUP4 LT PUSH2 0x1635 JUMPI PUSH14 0x4EE2D6D415B85ACEF8100000000 DUP4 DIV SWAP3 POP PUSH1 0x20 ADD JUMPDEST PUSH7 0x2386F26FC10000 DUP4 LT PUSH2 0x1653 JUMPI PUSH7 0x2386F26FC10000 DUP4 DIV SWAP3 POP PUSH1 0x10 ADD JUMPDEST PUSH4 0x5F5E100 DUP4 LT PUSH2 0x166B JUMPI PUSH4 0x5F5E100 DUP4 DIV SWAP3 POP PUSH1 0x8 ADD JUMPDEST PUSH2 0x2710 DUP4 LT PUSH2 0x167F JUMPI PUSH2 0x2710 DUP4 DIV SWAP3 POP PUSH1 0x4 ADD JUMPDEST PUSH1 0x64 DUP4 LT PUSH2 0x1691 JUMPI PUSH1 0x64 DUP4 DIV SWAP3 POP PUSH1 0x2 ADD JUMPDEST PUSH1 0xA DUP4 LT PUSH2 0x614 JUMPI PUSH1 0x1 ADD SWAP3 SWAP2 POP POP JUMP JUMPDEST PUSH2 0x16AE DUP5 DUP5 DUP5 DUP5 PUSH2 0x18B5 JUMP JUMPDEST PUSH1 0x1 DUP2 GT ISZERO PUSH2 0x16CF JUMPI PUSH1 0x40 MLOAD PUSH3 0x461BCD PUSH1 0xE5 SHL DUP2 MSTORE PUSH1 0x4 ADD PUSH2 0x72B SWAP1 PUSH2 0x2B05 JUMP JUMPDEST DUP2 PUSH1 0x1 PUSH1 0x1 PUSH1 0xA0 SHL SUB DUP6 AND PUSH2 0x172B JUMPI PUSH2 0x1726 DUP2 PUSH1 0x8 DUP1 SLOAD PUSH1 0x0 DUP4 DUP2 MSTORE PUSH1 0x9 PUSH1 0x20 MSTORE PUSH1 0x40 DUP2 KECCAK256 DUP3 SWAP1 SSTORE PUSH1 0x1 DUP3 ADD DUP4 SSTORE SWAP2 SWAP1 SWAP2 MSTORE PUSH32 0xF3F7A9FE364FAAB93B216DA50A3214154F22A0A2B415B23A84C8169E8B636EE3 ADD SSTORE JUMP JUMPDEST PUSH2 0x174E JUMP JUMPDEST DUP4 PUSH1 0x1 PUSH1 0x1 PUSH1 0xA0 SHL SUB AND DUP6 PUSH1 0x1 PUSH1 0x1 PUSH1 0xA0 SHL SUB AND EQ PUSH2 0x174E JUMPI PUSH2 0x174E DUP6 DUP3 PUSH2 0x193D JUMP JUMPDEST PUSH1 0x1 PUSH1 0x1 PUSH1 0xA0 SHL SUB DUP5 AND PUSH2 0x176A JUMPI PUSH2 0x1765 DUP2 PUSH2 0x19DA JUMP JUMPDEST PUSH2 0x178D JUMP JUMPDEST DUP5 PUSH1 0x1 PUSH1 0x1 PUSH1 0xA0 SHL SUB AND DUP5 PUSH1 0x1 PUSH1 0x1 PUSH1 0xA0 SHL SUB AND EQ PUSH2 0x178D JUMPI PUSH2 0x178D DUP5 DUP3 PUSH2 0x1A89 JUMP JUMPDEST POP POP POP POP POP JUMP JUMPDEST PUSH1 0x1 PUSH1 0x1 PUSH1 0xA0 SHL SUB DUP3 AND PUSH2 0x17BA JUMPI PUSH1 0x40 MLOAD PUSH3 0x461BCD PUSH1 0xE5 SHL DUP2 MSTORE PUSH1 0x4 ADD PUSH2 0x72B SWAP1 PUSH2 0x2B47 JUMP JUMPDEST PUSH1 0x0 DUP2 DUP2 MSTORE PUSH1 0x2 PUSH1 0x20 MSTORE PUSH1 0x40 SWAP1 KECCAK256 SLOAD PUSH1 0x1 PUSH1 0x1 PUSH1 0xA0 SHL SUB AND ISZERO PUSH2 0x17EF JUMPI PUSH1 0x40 MLOAD PUSH3 0x461BCD PUSH1 0xE5 SHL DUP2 MSTORE PUSH1 0x4 ADD PUSH2 0x72B SWAP1 PUSH2 0x2B8B JUMP JUMPDEST PUSH2 0x17FD PUSH1 0x0 DUP4 DUP4 PUSH1 0x1 PUSH2 0x1436 JUMP JUMPDEST PUSH1 0x0 DUP2 DUP2 MSTORE PUSH1 0x2 PUSH1 0x20 MSTORE PUSH1 0x40 SWAP1 KECCAK256 SLOAD PUSH1 0x1 PUSH1 0x1 PUSH1 0xA0 SHL SUB AND ISZERO PUSH2 0x1832 JUMPI PUSH1 0x40 MLOAD PUSH3 0x461BCD PUSH1 0xE5 SHL DUP2 MSTORE PUSH1 0x4 ADD PUSH2 0x72B SWAP1 PUSH2 0x2B8B JUMP JUMPDEST PUSH1 0x1 PUSH1 0x1 PUSH1 0xA0 SHL SUB DUP3 AND PUSH1 0x0 DUP2 DUP2 MSTORE PUSH1 0x3 PUSH1 0x20 SWAP1 DUP2 MSTORE PUSH1 0x40 DUP1 DUP4 KECCAK256 DUP1 SLOAD PUSH1 0x1 ADD SWAP1 SSTORE DUP5 DUP4 MSTORE PUSH1 0x2 SWAP1 SWAP2 MSTORE DUP1 DUP3 KECCAK256 DUP1 SLOAD PUSH32 0xFFFFFFFFFFFFFFFFFFFFFFFF0000000000000000000000000000000000000000 AND DUP5 OR SWAP1 SSTORE MLOAD DUP4 SWAP3 SWAP2 SWAP1 PUSH32 0xDDF252AD1BE2C89B69C2B068FC378DAA952BA7F163C4A11628F55A4DF523B3EF SWAP1 DUP3 SWAP1 LOG4 POP POP JUMP JUMPDEST PUSH1 0x1 DUP2 GT ISZERO PUSH2 0xC9B JUMPI PUSH1 0x1 PUSH1 0x1 PUSH1 0xA0 SHL SUB DUP5 AND ISZERO PUSH2 0x18FB JUMPI PUSH1 0x1 PUSH1 0x1 PUSH1 0xA0 SHL SUB DUP5 AND PUSH1 0x0 SWAP1 DUP2 MSTORE PUSH1 0x3 PUSH1 0x20 MSTORE PUSH1 0x40 DUP2 KECCAK256 DUP1 SLOAD DUP4 SWAP3 SWAP1 PUSH2 0x18F5 SWAP1 DUP5 SWAP1 PUSH2 0x2B9B JUMP JUMPDEST SWAP1 SWAP2 SSTORE POP POP JUMPDEST PUSH1 0x1 PUSH1 0x1 PUSH1 0xA0 SHL SUB DUP4 AND ISZERO PUSH2 0xC9B JUMPI PUSH1 0x1 PUSH1 0x1 PUSH1 0xA0 SHL SUB DUP4 AND PUSH1 0x0 SWAP1 DUP2 MSTORE PUSH1 0x3 PUSH1 0x20 MSTORE PUSH1 0x40 DUP2 KECCAK256 DUP1 SLOAD DUP4 SWAP3 SWAP1 PUSH2 0x1932 SWAP1 DUP5 SWAP1 PUSH2 0x224E JUMP JUMPDEST SWAP1 SWAP2 SSTORE POP POP POP POP POP POP JUMP JUMPDEST PUSH1 0x0 PUSH1 0x1 PUSH2 0x194A DUP5 PUSH2 0xB8A JUMP JUMPDEST PUSH2 0x1954 SWAP2 SWAP1 PUSH2 0x2B9B JUMP JUMPDEST PUSH1 0x0 DUP4 DUP2 MSTORE PUSH1 0x7 PUSH1 0x20 MSTORE PUSH1 0x40 SWAP1 KECCAK256 SLOAD SWAP1 SWAP2 POP DUP1 DUP3 EQ PUSH2 0x19A7 JUMPI PUSH1 0x1 PUSH1 0x1 PUSH1 0xA0 SHL SUB DUP5 AND PUSH1 0x0 SWAP1 DUP2 MSTORE PUSH1 0x6 PUSH1 0x20 SWAP1 DUP2 MSTORE PUSH1 0x40 DUP1 DUP4 KECCAK256 DUP6 DUP5 MSTORE DUP3 MSTORE DUP1 DUP4 KECCAK256 SLOAD DUP5 DUP5 MSTORE DUP2 DUP5 KECCAK256 DUP2 SWAP1 SSTORE DUP4 MSTORE PUSH1 0x7 SWAP1 SWAP2 MSTORE SWAP1 KECCAK256 DUP2 SWAP1 SSTORE JUMPDEST POP PUSH1 0x0 SWAP2 DUP3 MSTORE PUSH1 0x7 PUSH1 0x20 SWAP1 DUP2 MSTORE PUSH1 0x40 DUP1 DUP5 KECCAK256 DUP5 SWAP1 SSTORE PUSH1 0x1 PUSH1 0x1 PUSH1 0xA0 SHL SUB SWAP1 SWAP5 AND DUP4 MSTORE PUSH1 0x6 DUP2 MSTORE DUP4 DUP4 KECCAK256 SWAP2 DUP4 MSTORE MSTORE SWAP1 DUP2 KECCAK256 SSTORE JUMP JUMPDEST PUSH1 0x8 SLOAD PUSH1 0x0 SWAP1 PUSH2 0x19EC SWAP1 PUSH1 0x1 SWAP1 PUSH2 0x2B9B JUMP JUMPDEST PUSH1 0x0 DUP4 DUP2 MSTORE PUSH1 0x9 PUSH1 0x20 MSTORE PUSH1 0x40 DUP2 KECCAK256 SLOAD PUSH1 0x8 DUP1 SLOAD SWAP4 SWAP5 POP SWAP1 SWAP3 DUP5 SWAP1 DUP2 LT PUSH2 0x1A14 JUMPI PUSH2 0x1A14 PUSH2 0x2331 JUMP JUMPDEST SWAP1 PUSH1 0x0 MSTORE PUSH1 0x20 PUSH1 0x0 KECCAK256 ADD SLOAD SWAP1 POP DUP1 PUSH1 0x8 DUP4 DUP2 SLOAD DUP2 LT PUSH2 0x1A35 JUMPI PUSH2 0x1A35 PUSH2 0x2331 JUMP JUMPDEST PUSH1 0x0 SWAP2 DUP3 MSTORE PUSH1 0x20 DUP1 DUP4 KECCAK256 SWAP1 SWAP2 ADD SWAP3 SWAP1 SWAP3 SSTORE DUP3 DUP2 MSTORE PUSH1 0x9 SWAP1 SWAP2 MSTORE PUSH1 0x40 DUP1 DUP3 KECCAK256 DUP5 SWAP1 SSTORE DUP6 DUP3 MSTORE DUP2 KECCAK256 SSTORE PUSH1 0x8 DUP1 SLOAD DUP1 PUSH2 0x1A6D JUMPI PUSH2 0x1A6D PUSH2 0x2BB2 JUMP JUMPDEST PUSH1 0x1 SWAP1 SUB DUP2 DUP2 SWAP1 PUSH1 0x0 MSTORE PUSH1 0x20 PUSH1 0x0 KECCAK256 ADD PUSH1 0x0 SWAP1 SSTORE SWAP1 SSTORE POP POP POP POP JUMP JUMPDEST PUSH1 0x0 PUSH2 0x1A94 DUP4 PUSH2 0xB8A JUMP JUMPDEST PUSH1 0x1 PUSH1 0x1 PUSH1 0xA0 SHL SUB SWAP1 SWAP4 AND PUSH1 0x0 SWAP1 DUP2 MSTORE PUSH1 0x6 PUSH1 0x20 SWAP1 DUP2 MSTORE PUSH1 0x40 DUP1 DUP4 KECCAK256 DUP7 DUP5 MSTORE DUP3 MSTORE DUP1 DUP4 KECCAK256 DUP6 SWAP1 SSTORE SWAP4 DUP3 MSTORE PUSH1 0x7 SWAP1 MSTORE SWAP2 SWAP1 SWAP2 KECCAK256 SWAP2 SWAP1 SWAP2 SSTORE POP JUMP JUMPDEST PUSH32 0xFFFFFFFF00000000000000000000000000000000000000000000000000000000 DUP2 AND JUMPDEST DUP2 EQ PUSH2 0xC66 JUMPI PUSH1 0x0 DUP1 REVERT JUMPDEST DUP1 CALLDATALOAD PUSH2 0x614 DUP2 PUSH2 0x1ACD JUMP JUMPDEST PUSH1 0x0 PUSH1 0x20 DUP3 DUP5 SUB SLT ISZERO PUSH2 0x1B1C JUMPI PUSH2 0x1B1C PUSH1 0x0 DUP1 REVERT JUMPDEST PUSH1 0x0 PUSH2 0xFDE DUP5 DUP5 PUSH2 0x1AFC JUMP JUMPDEST DUP1 ISZERO ISZERO JUMPDEST DUP3 MSTORE POP POP JUMP JUMPDEST PUSH1 0x20 DUP2 ADD PUSH2 0x614 DUP3 DUP5 PUSH2 0x1B28 JUMP JUMPDEST PUSH1 0x0 JUMPDEST DUP4 DUP2 LT ISZERO PUSH2 0x1B5B JUMPI DUP2 DUP2 ADD MLOAD DUP4 DUP3 ADD MSTORE PUSH1 0x20 ADD PUSH2 0x1B43 JUMP JUMPDEST DUP4 DUP2 GT ISZERO PUSH2 0xC9B JUMPI POP POP PUSH1 0x0 SWAP2 ADD MSTORE JUMP JUMPDEST PUSH1 0x0 PUSH2 0x1B76 DUP3 MLOAD SWAP1 JUMP JUMPDEST DUP1 DUP5 MSTORE PUSH1 0x20 DUP5 ADD SWAP4 POP PUSH2 0x1B8D DUP2 DUP6 PUSH1 0x20 DUP7 ADD PUSH2 0x1B40 JUMP JUMPDEST PUSH1 0x1F ADD PUSH1 0x1F NOT AND SWAP3 SWAP1 SWAP3 ADD SWAP3 SWAP2 POP POP JUMP JUMPDEST PUSH1 0x20 DUP1 DUP3 MSTORE DUP2 ADD PUSH2 0xD2D DUP2 DUP5 PUSH2 0x1B6C JUMP JUMPDEST DUP1 PUSH2 0x1AF1 JUMP JUMPDEST DUP1 CALLDATALOAD PUSH2 0x614 DUP2 PUSH2 0x1BAF JUMP JUMPDEST PUSH1 0x0 DUP1 PUSH1 0x40 DUP4 DUP6 SUB SLT ISZERO PUSH2 0x1BD6 JUMPI PUSH2 0x1BD6 PUSH1 0x0 DUP1 REVERT JUMPDEST PUSH1 0x0 PUSH2 0x1BE2 DUP6 DUP6 PUSH2 0x1BB5 JUMP JUMPDEST SWAP3 POP POP PUSH1 0x20 PUSH2 0x1BF3 DUP6 DUP3 DUP7 ADD PUSH2 0x1BB5 JUMP JUMPDEST SWAP2 POP POP SWAP3 POP SWAP3 SWAP1 POP JUMP JUMPDEST PUSH1 0x0 PUSH1 0x20 DUP3 DUP5 SUB SLT ISZERO PUSH2 0x1C12 JUMPI PUSH2 0x1C12 PUSH1 0x0 DUP1 REVERT JUMPDEST PUSH1 0x0 PUSH2 0xFDE DUP5 DUP5 PUSH2 0x1BB5 JUMP JUMPDEST PUSH1 0x0 PUSH1 0x1 PUSH1 0x1 PUSH1 0xA0 SHL SUB DUP3 AND PUSH2 0x614 JUMP JUMPDEST PUSH2 0x1B2C DUP2 PUSH2 0x1C1E JUMP JUMPDEST PUSH1 0x20 DUP2 ADD PUSH2 0x614 DUP3 DUP5 PUSH2 0x1C2F JUMP JUMPDEST PUSH2 0x1AF1 DUP2 PUSH2 0x1C1E JUMP JUMPDEST DUP1 CALLDATALOAD PUSH2 0x614 DUP2 PUSH2 0x1C46 JUMP JUMPDEST PUSH1 0x0 DUP1 PUSH1 0x40 DUP4 DUP6 SUB SLT ISZERO PUSH2 0x1C70 JUMPI PUSH2 0x1C70 PUSH1 0x0 DUP1 REVERT JUMPDEST PUSH1 0x0 PUSH2 0x1BE2 DUP6 DUP6 PUSH2 0x1C4F JUMP JUMPDEST DUP1 PUSH2 0x1B2C JUMP JUMPDEST PUSH1 0x20 DUP2 ADD PUSH2 0x614 DUP3 DUP5 PUSH2 0x1C7C JUMP JUMPDEST PUSH1 0x0 DUP1 PUSH1 0x0 PUSH1 0x60 DUP5 DUP7 SUB SLT ISZERO PUSH2 0x1CA8 JUMPI PUSH2 0x1CA8 PUSH1 0x0 DUP1 REVERT JUMPDEST PUSH1 0x0 PUSH2 0x1CB4 DUP7 DUP7 PUSH2 0x1C4F JUMP JUMPDEST SWAP4 POP POP PUSH1 0x20 PUSH2 0x1CC5 DUP7 DUP3 DUP8 ADD PUSH2 0x1C4F JUMP JUMPDEST SWAP3 POP POP PUSH1 0x40 PUSH2 0x1CD6 DUP7 DUP3 DUP8 ADD PUSH2 0x1BB5 JUMP JUMPDEST SWAP2 POP POP SWAP3 POP SWAP3 POP SWAP3 JUMP JUMPDEST PUSH1 0x0 DUP1 PUSH1 0x0 PUSH1 0x60 DUP5 DUP7 SUB SLT ISZERO PUSH2 0x1CF8 JUMPI PUSH2 0x1CF8 PUSH1 0x0 DUP1 REVERT JUMPDEST PUSH1 0x0 PUSH2 0x1D04 DUP7 DUP7 PUSH2 0x1C4F JUMP JUMPDEST SWAP4 POP POP PUSH1 0x20 PUSH2 0x1CC5 DUP7 DUP3 DUP8 ADD PUSH2 0x1BB5 JUMP JUMPDEST PUSH32 0x4E487B7100000000000000000000000000000000000000000000000000000000 PUSH1 0x0 MSTORE PUSH1 0x41 PUSH1 0x4 MSTORE PUSH1 0x24 PUSH1 0x0 REVERT JUMPDEST PUSH1 0x1F NOT PUSH1 0x1F DUP4 ADD AND DUP2 ADD DUP2 DUP2 LT PUSH8 0xFFFFFFFFFFFFFFFF DUP3 GT OR ISZERO PUSH2 0x1D6A JUMPI PUSH2 0x1D6A PUSH2 0x1D15 JUMP JUMPDEST PUSH1 0x40 MSTORE POP POP JUMP JUMPDEST PUSH1 0x0 PUSH2 0x1D7C PUSH1 0x40 MLOAD SWAP1 JUMP JUMPDEST SWAP1 POP PUSH2 0x1D88 DUP3 DUP3 PUSH2 0x1D44 JUMP JUMPDEST SWAP2 SWAP1 POP JUMP JUMPDEST PUSH1 0x0 PUSH8 0xFFFFFFFFFFFFFFFF DUP3 GT ISZERO PUSH2 0x1DA7 JUMPI PUSH2 0x1DA7 PUSH2 0x1D15 JUMP JUMPDEST PUSH1 0x1F NOT PUSH1 0x1F DUP4 ADD AND PUSH1 0x20 ADD SWAP3 SWAP2 POP POP JUMP JUMPDEST DUP3 DUP2 DUP4 CALLDATACOPY POP PUSH1 0x0 SWAP2 ADD MSTORE JUMP JUMPDEST PUSH1 0x0 PUSH2 0x1DD7 PUSH2 0x1DD2 DUP5 PUSH2 0x1D8D JUMP JUMPDEST PUSH2 0x1D71 JUMP JUMPDEST SWAP1 POP DUP3 DUP2 MSTORE PUSH1 0x20 DUP2 ADD DUP5 DUP5 DUP5 ADD GT ISZERO PUSH2 0x1DF2 JUMPI PUSH2 0x1DF2 PUSH1 0x0 DUP1 REVERT JUMPDEST PUSH2 0xD5D DUP5 DUP3 DUP6 PUSH2 0x1DB8 JUMP JUMPDEST PUSH1 0x0 DUP3 PUSH1 0x1F DUP4 ADD SLT PUSH2 0x1E11 JUMPI PUSH2 0x1E11 PUSH1 0x0 DUP1 REVERT JUMPDEST DUP2 CALLDATALOAD PUSH2 0xFDE DUP5 DUP3 PUSH1 0x20 DUP7 ADD PUSH2 0x1DC4 JUMP JUMPDEST PUSH1 0x0 PUSH1 0x20 DUP3 DUP5 SUB SLT ISZERO PUSH2 0x1E36 JUMPI PUSH2 0x1E36 PUSH1 0x0 DUP1 REVERT JUMPDEST DUP2 CALLDATALOAD PUSH8 0xFFFFFFFFFFFFFFFF DUP2 GT ISZERO PUSH2 0x1E50 JUMPI PUSH2 0x1E50 PUSH1 0x0 DUP1 REVERT JUMPDEST PUSH2 0xFDE DUP5 DUP3 DUP6 ADD PUSH2 0x1DFD JUMP JUMPDEST PUSH1 0x0 PUSH1 0x20 DUP3 DUP5 SUB SLT ISZERO PUSH2 0x1E71 JUMPI PUSH2 0x1E71 PUSH1 0x0 DUP1 REVERT JUMPDEST PUSH1 0x0 PUSH2 0xFDE DUP5 DUP5 PUSH2 0x1C4F JUMP JUMPDEST DUP1 ISZERO ISZERO PUSH2 0x1AF1 JUMP JUMPDEST DUP1 CALLDATALOAD PUSH2 0x614 DUP2 PUSH2 0x1E7D JUMP JUMPDEST PUSH1 0x0 DUP1 PUSH1 0x40 DUP4 DUP6 SUB SLT ISZERO PUSH2 0x1EA6 JUMPI PUSH2 0x1EA6 PUSH1 0x0 DUP1 REVERT JUMPDEST PUSH1 0x0 PUSH2 0x1EB2 DUP6 DUP6 PUSH2 0x1C4F JUMP JUMPDEST SWAP3 POP POP PUSH1 0x20 PUSH2 0x1BF3 DUP6 DUP3 DUP7 ADD PUSH2 0x1E85 JUMP JUMPDEST PUSH1 0x0 PUSH1 0x20 DUP3 DUP5 SUB SLT ISZERO PUSH2 0x1ED8 JUMPI PUSH2 0x1ED8 PUSH1 0x0 DUP1 REVERT JUMPDEST PUSH1 0x0 PUSH2 0xFDE DUP5 DUP5 PUSH2 0x1E85 JUMP JUMPDEST PUSH1 0x0 DUP1 PUSH1 0x0 DUP1 PUSH1 0x80 DUP6 DUP8 SUB SLT ISZERO PUSH2 0x1EFD JUMPI PUSH2 0x1EFD PUSH1 0x0 DUP1 REVERT JUMPDEST PUSH1 0x0 PUSH2 0x1F09 DUP8 DUP8 PUSH2 0x1C4F JUMP JUMPDEST SWAP5 POP POP PUSH1 0x20 PUSH2 0x1F1A DUP8 DUP3 DUP9 ADD PUSH2 0x1C4F JUMP JUMPDEST SWAP4 POP POP PUSH1 0x40 PUSH2 0x1F2B DUP8 DUP3 DUP9 ADD PUSH2 0x1BB5 JUMP JUMPDEST SWAP3 POP POP PUSH1 0x60 DUP6 ADD CALLDATALOAD PUSH8 0xFFFFFFFFFFFFFFFF DUP2 GT ISZERO PUSH2 0x1F4B JUMPI PUSH2 0x1F4B PUSH1 0x0 DUP1 REVERT JUMPDEST PUSH2 0x1F57 DUP8 DUP3 DUP9 ADD PUSH2 0x1DFD JUMP JUMPDEST SWAP2 POP POP SWAP3 SWAP6 SWAP2 SWAP5 POP SWAP3 POP JUMP JUMPDEST PUSH1 0x0 PUSH2 0x1F6F DUP4 DUP4 PUSH2 0x1C7C JUMP JUMPDEST POP POP PUSH1 0x20 ADD SWAP1 JUMP JUMPDEST PUSH1 0x0 PUSH2 0x1F81 DUP3 MLOAD SWAP1 JUMP JUMPDEST DUP1 DUP5 MSTORE PUSH1 0x20 SWAP4 DUP5 ADD SWAP4 DUP4 ADD DUP1 PUSH1 0x0 JUMPDEST DUP4 DUP2 LT ISZERO PUSH2 0x1FB5 JUMPI DUP2 MLOAD PUSH2 0x1FA4 DUP9 DUP3 PUSH2 0x1F63 JUMP JUMPDEST SWAP8 POP PUSH1 0x20 DUP4 ADD SWAP3 POP POP PUSH1 0x1 ADD PUSH2 0x1F90 JUMP JUMPDEST POP SWAP5 SWAP6 SWAP5 POP POP POP POP POP JUMP JUMPDEST PUSH1 0x20 DUP1 DUP3 MSTORE DUP2 ADD PUSH2 0xD2D DUP2 DUP5 PUSH2 0x1F77 JUMP JUMPDEST PUSH1 0x0 DUP1 PUSH1 0x40 DUP4 DUP6 SUB SLT ISZERO PUSH2 0x1FE7 JUMPI PUSH2 0x1FE7 PUSH1 0x0 DUP1 REVERT JUMPDEST PUSH1 0x0 PUSH2 0x1FF3 DUP6 DUP6 PUSH2 0x1C4F JUMP JUMPDEST SWAP3 POP POP PUSH1 0x20 PUSH2 0x1BF3 DUP6 DUP3 DUP7 ADD PUSH2 0x1C4F JUMP JUMPDEST PUSH32 0x4E487B7100000000000000000000000000000000000000000000000000000000 PUSH1 0x0 MSTORE PUSH1 0x22 PUSH1 0x4 MSTORE PUSH1 0x24 PUSH1 0x0 REVERT JUMPDEST PUSH1 0x2 DUP2 DIV PUSH1 0x1 DUP3 AND DUP1 PUSH2 0x2047 JUMPI PUSH1 0x7F DUP3 AND SWAP2 POP JUMPDEST PUSH1 0x20 DUP3 LT DUP2 SUB PUSH2 0xDF0 JUMPI PUSH2 0xDF0 PUSH2 0x2004 JUMP JUMPDEST PUSH1 0x21 DUP2 MSTORE PUSH1 0x0 PUSH1 0x20 DUP3 ADD PUSH32 0x4552433732313A20617070726F76616C20746F2063757272656E74206F776E65 DUP2 MSTORE PUSH32 0x7200000000000000000000000000000000000000000000000000000000000000 PUSH1 0x20 DUP3 ADD MSTORE SWAP2 POP JUMPDEST POP PUSH1 0x40 ADD SWAP1 JUMP JUMPDEST PUSH1 0x20 DUP1 DUP3 MSTORE DUP2 ADD PUSH2 0x614 DUP2 PUSH2 0x2059 JUMP JUMPDEST PUSH1 0x3D DUP2 MSTORE PUSH1 0x0 PUSH1 0x20 DUP3 ADD PUSH32 0x4552433732313A20617070726F76652063616C6C6572206973206E6F7420746F DUP2 MSTORE PUSH32 0x6B656E206F776E6572206F7220617070726F76656420666F7220616C6C000000 PUSH1 0x20 DUP3 ADD MSTORE SWAP2 POP PUSH2 0x20AF JUMP JUMPDEST PUSH1 0x20 DUP1 DUP3 MSTORE DUP2 ADD PUSH2 0x614 DUP2 PUSH2 0x20C6 JUMP JUMPDEST PUSH1 0x2D DUP2 MSTORE PUSH1 0x0 PUSH1 0x20 DUP3 ADD PUSH32 0x4552433732313A2063616C6C6572206973206E6F7420746F6B656E206F776E65 DUP2 MSTORE PUSH32 0x72206F7220617070726F76656400000000000000000000000000000000000000 PUSH1 0x20 DUP3 ADD MSTORE SWAP2 POP PUSH2 0x20AF JUMP JUMPDEST PUSH1 0x20 DUP1 DUP3 MSTORE DUP2 ADD PUSH2 0x614 DUP2 PUSH2 0x2130 JUMP JUMPDEST PUSH1 0x2B DUP2 MSTORE PUSH1 0x0 PUSH1 0x20 DUP3 ADD PUSH32 0x455243373231456E756D657261626C653A206F776E657220696E646578206F75 DUP2 MSTORE PUSH32 0x74206F6620626F756E6473000000000000000000000000000000000000000000 PUSH1 0x20 DUP3 ADD MSTORE SWAP2 POP PUSH2 0x20AF JUMP JUMPDEST PUSH1 0x20 DUP1 DUP3 MSTORE DUP2 ADD PUSH2 0x614 DUP2 PUSH2 0x219A JUMP JUMPDEST PUSH1 0x40 DUP2 ADD PUSH2 0x2212 DUP3 DUP6 PUSH2 0x1C7C JUMP JUMPDEST PUSH2 0xD2D PUSH1 0x20 DUP4 ADD DUP5 PUSH2 0x1C2F JUMP JUMPDEST PUSH32 0x4E487B7100000000000000000000000000000000000000000000000000000000 PUSH1 0x0 MSTORE PUSH1 0x11 PUSH1 0x4 MSTORE PUSH1 0x24 PUSH1 0x0 REVERT JUMPDEST PUSH1 0x0 DUP3 NOT DUP3 GT ISZERO PUSH2 0x2261 JUMPI PUSH2 0x2261 PUSH2 0x221F JUMP JUMPDEST POP ADD SWAP1 JUMP JUMPDEST PUSH1 0x13 DUP2 MSTORE PUSH1 0x0 PUSH1 0x20 DUP3 ADD PUSH32 0x4D617820737570706C7920726561636865642100000000000000000000000000 DUP2 MSTORE SWAP2 POP JUMPDEST POP PUSH1 0x20 ADD SWAP1 JUMP JUMPDEST PUSH1 0x20 DUP1 DUP3 MSTORE DUP2 ADD PUSH2 0x614 DUP2 PUSH2 0x2266 JUMP JUMPDEST PUSH1 0x0 PUSH1 0x0 NOT DUP3 SUB PUSH2 0x22C0 JUMPI PUSH2 0x22C0 PUSH2 0x221F JUMP JUMPDEST POP PUSH1 0x1 ADD SWAP1 JUMP JUMPDEST PUSH1 0x2C DUP2 MSTORE PUSH1 0x0 PUSH1 0x20 DUP3 ADD PUSH32 0x455243373231456E756D657261626C653A20676C6F62616C20696E646578206F DUP2 MSTORE PUSH32 0x7574206F6620626F756E64730000000000000000000000000000000000000000 PUSH1 0x20 DUP3 ADD MSTORE SWAP2 POP PUSH2 0x20AF JUMP JUMPDEST PUSH1 0x20 DUP1 DUP3 MSTORE DUP2 ADD PUSH2 0x614 DUP2 PUSH2 0x22C7 JUMP JUMPDEST PUSH32 0x4E487B7100000000000000000000000000000000000000000000000000000000 PUSH1 0x0 MSTORE PUSH1 0x32 PUSH1 0x4 MSTORE PUSH1 0x24 PUSH1 0x0 REVERT JUMPDEST PUSH1 0xC DUP2 MSTORE PUSH1 0x0 PUSH1 0x20 DUP3 ADD PUSH32 0x53616C6520636C6F736564210000000000000000000000000000000000000000 DUP2 MSTORE SWAP2 POP PUSH2 0x2296 JUMP JUMPDEST PUSH1 0x20 DUP1 DUP3 MSTORE DUP2 ADD PUSH2 0x614 DUP2 PUSH2 0x2360 JUMP JUMPDEST PUSH1 0x1C DUP2 MSTORE PUSH1 0x0 PUSH1 0x20 DUP3 ADD PUSH32 0x496E73756666696369656E7420416D6F756E74206F66206D696E742100000000 DUP2 MSTORE SWAP2 POP PUSH2 0x2296 JUMP JUMPDEST PUSH1 0x20 DUP1 DUP3 MSTORE DUP2 ADD PUSH2 0x614 DUP2 PUSH2 0x23A4 JUMP JUMPDEST PUSH1 0x1B DUP2 MSTORE PUSH1 0x0 PUSH1 0x20 DUP3 ADD PUSH32 0x4D6178206D696E7420666F72206C6576656C2072656163686564210000000000 DUP2 MSTORE SWAP2 POP PUSH2 0x2296 JUMP JUMPDEST PUSH1 0x20 DUP1 DUP3 MSTORE DUP2 ADD PUSH2 0x614 DUP2 PUSH2 0x23E8 JUMP JUMPDEST PUSH1 0x0 PUSH2 0x614 PUSH2 0x2438 DUP4 DUP2 JUMP JUMPDEST SWAP1 JUMP JUMPDEST PUSH2 0x2444 DUP4 PUSH2 0x242C JUMP JUMPDEST DUP2 SLOAD PUSH1 0x8 DUP5 MUL DUP3 DUP2 SHL PUSH1 0x0 NOT SWAP1 SWAP2 SHL SWAP1 DUP2 AND SWAP1 NOT SWAP1 SWAP2 AND OR DUP3 SSTORE POP POP POP POP JUMP JUMPDEST PUSH1 0x0 PUSH2 0x776 DUP2 DUP5 DUP5 PUSH2 0x243B JUMP JUMPDEST DUP2 DUP2 LT ISZERO PUSH2 0xBFC JUMPI PUSH2 0x2484 PUSH1 0x0 DUP3 PUSH2 0x2464 JUMP JUMPDEST PUSH1 0x1 ADD PUSH2 0x2471 JUMP JUMPDEST PUSH1 0x1F DUP3 GT ISZERO PUSH2 0x776 JUMPI PUSH1 0x0 DUP2 DUP2 MSTORE PUSH1 0x20 SWAP1 KECCAK256 PUSH1 0x20 PUSH1 0x1F DUP6 ADD DIV DUP2 ADD PUSH1 0x20 DUP6 LT ISZERO PUSH2 0x24B3 JUMPI POP DUP1 JUMPDEST PUSH2 0x178D PUSH1 0x20 PUSH1 0x1F DUP7 ADD DIV DUP4 ADD DUP3 PUSH2 0x2471 JUMP JUMPDEST DUP2 MLOAD PUSH8 0xFFFFFFFFFFFFFFFF DUP2 GT ISZERO PUSH2 0x24DF JUMPI PUSH2 0x24DF PUSH2 0x1D15 JUMP JUMPDEST PUSH2 0x24E9 DUP3 SLOAD PUSH2 0x2033 JUMP JUMPDEST PUSH2 0x24F4 DUP3 DUP3 DUP6 PUSH2 0x248C JUMP JUMPDEST PUSH1 0x20 PUSH1 0x1F DUP4 GT PUSH1 0x1 DUP2 EQ PUSH2 0x2528 JUMPI PUSH1 0x0 DUP5 ISZERO PUSH2 0x2510 JUMPI POP DUP6 DUP3 ADD MLOAD JUMPDEST PUSH1 0x0 NOT PUSH1 0x8 DUP7 MUL SHR NOT DUP2 AND PUSH1 0x2 DUP7 MUL OR DUP7 SSTORE POP PUSH2 0x2581 JUMP JUMPDEST PUSH1 0x0 DUP6 DUP2 MSTORE PUSH1 0x20 DUP2 KECCAK256 PUSH1 0x1F NOT DUP7 AND SWAP2 JUMPDEST DUP3 DUP2 LT ISZERO PUSH2 0x2558 JUMPI DUP9 DUP6 ADD MLOAD DUP3 SSTORE PUSH1 0x20 SWAP5 DUP6 ADD SWAP5 PUSH1 0x1 SWAP1 SWAP3 ADD SWAP2 ADD PUSH2 0x2538 JUMP JUMPDEST DUP7 DUP4 LT ISZERO PUSH2 0x2574 JUMPI DUP5 DUP10 ADD MLOAD PUSH1 0x0 NOT PUSH1 0x1F DUP10 AND PUSH1 0x8 MUL SHR NOT AND DUP3 SSTORE JUMPDEST PUSH1 0x1 PUSH1 0x2 DUP9 MUL ADD DUP9 SSTORE POP POP POP JUMPDEST POP POP POP POP POP POP JUMP JUMPDEST PUSH1 0x0 DUP2 SLOAD PUSH2 0x2596 DUP2 PUSH2 0x2033 JUMP JUMPDEST DUP1 DUP6 MSTORE PUSH1 0x20 DUP6 ADD SWAP5 POP PUSH1 0x1 DUP3 AND DUP1 ISZERO PUSH2 0x25B6 JUMPI PUSH1 0x1 DUP2 EQ PUSH2 0x25CC JUMPI PUSH2 0x25FA JUMP JUMPDEST PUSH1 0xFF NOT DUP4 AND DUP7 MSTORE PUSH1 0x20 DUP3 ISZERO ISZERO MUL DUP7 ADD SWAP4 POP PUSH2 0x25FA JUMP JUMPDEST PUSH1 0x0 DUP6 DUP2 MSTORE PUSH1 0x20 SWAP1 KECCAK256 PUSH1 0x0 JUMPDEST DUP4 DUP2 LT ISZERO PUSH2 0x25F4 JUMPI DUP2 SLOAD DUP9 DUP3 ADD MSTORE PUSH1 0x1 SWAP1 SWAP2 ADD SWAP1 PUSH1 0x20 ADD PUSH2 0x25D8 JUMP JUMPDEST DUP8 ADD SWAP5 POP POP JUMPDEST POP POP POP SWAP3 SWAP2 POP POP JUMP JUMPDEST PUSH1 0x20 DUP1 DUP3 MSTORE DUP2 ADD PUSH2 0xD2D DUP2 DUP5 PUSH2 0x2589 JUMP JUMPDEST PUSH1 0x18 DUP2 MSTORE PUSH1 0x0 PUSH1 0x20 DUP3 ADD PUSH32 0x4552433732313A20696E76616C696420746F6B656E2049440000000000000000 DUP2 MSTORE SWAP2 POP PUSH2 0x2296 JUMP JUMPDEST PUSH1 0x20 DUP1 DUP3 MSTORE DUP2 ADD PUSH2 0x614 DUP2 PUSH2 0x2614 JUMP JUMPDEST PUSH1 0x29 DUP2 MSTORE PUSH1 0x0 PUSH1 0x20 DUP3 ADD PUSH32 0x4552433732313A2061646472657373207A65726F206973206E6F742061207661 DUP2 MSTORE PUSH32 0x6C6964206F776E65720000000000000000000000000000000000000000000000 PUSH1 0x20 DUP3 ADD MSTORE SWAP2 POP PUSH2 0x20AF JUMP JUMPDEST PUSH1 0x20 DUP1 DUP3 MSTORE DUP2 ADD PUSH2 0x614 DUP2 PUSH2 0x2658 JUMP JUMPDEST PUSH1 0x14 DUP2 MSTORE PUSH1 0x0 PUSH1 0x20 DUP3 ADD PUSH32 0x53616C6520616C7265616479206F70656E656421000000000000000000000000 DUP2 MSTORE SWAP2 POP PUSH2 0x2296 JUMP JUMPDEST PUSH1 0x20 DUP1 DUP3 MSTORE DUP2 ADD PUSH2 0x614 DUP2 PUSH2 0x26C2 JUMP JUMPDEST PUSH1 0x14 DUP2 MSTORE PUSH1 0x0 PUSH1 0x20 DUP3 ADD PUSH32 0x53616C6520616C726561647920636C6F73656421000000000000000000000000 DUP2 MSTORE SWAP2 POP PUSH2 0x2296 JUMP JUMPDEST PUSH1 0x20 DUP1 DUP3 MSTORE DUP2 ADD PUSH2 0x614 DUP2 PUSH2 0x2706 JUMP JUMPDEST PUSH1 0x2F DUP2 MSTORE PUSH1 0x0 PUSH1 0x20 DUP3 ADD PUSH32 0x4552433732314D657461646174613A2055524920717565727920666F72206E6F DUP2 MSTORE PUSH32 0x6E6578697374656E7420746F6B656E0000000000000000000000000000000000 PUSH1 0x20 DUP3 ADD MSTORE SWAP2 POP PUSH2 0x20AF JUMP JUMPDEST PUSH1 0x20 DUP1 DUP3 MSTORE DUP2 ADD PUSH2 0x614 DUP2 PUSH2 0x274A JUMP JUMPDEST PUSH1 0x0 PUSH2 0x27BE DUP3 MLOAD SWAP1 JUMP JUMPDEST PUSH2 0x27CC DUP2 DUP6 PUSH1 0x20 DUP7 ADD PUSH2 0x1B40 JUMP JUMPDEST SWAP3 SWAP1 SWAP3 ADD SWAP3 SWAP2 POP POP JUMP JUMPDEST PUSH1 0x0 PUSH2 0x27E2 DUP3 DUP6 PUSH2 0x27B4 JUMP JUMPDEST SWAP2 POP PUSH2 0xFDE DUP3 DUP5 PUSH2 0x27B4 JUMP JUMPDEST PUSH1 0x26 DUP2 MSTORE PUSH1 0x0 PUSH1 0x20 DUP3 ADD PUSH32 0x4F776E61626C653A206E6577206F776E657220697320746865207A65726F2061 DUP2 MSTORE PUSH32 0x6464726573730000000000000000000000000000000000000000000000000000 PUSH1 0x20 DUP3 ADD MSTORE SWAP2 POP PUSH2 0x20AF JUMP JUMPDEST PUSH1 0x20 DUP1 DUP3 MSTORE DUP2 ADD PUSH2 0x614 DUP2 PUSH2 0x27EE JUMP JUMPDEST PUSH1 0x20 DUP1 DUP3 MSTORE PUSH32 0x4F776E61626C653A2063616C6C6572206973206E6F7420746865206F776E6572 SWAP2 ADD SWAP1 DUP2 MSTORE PUSH1 0x0 PUSH2 0x2296 JUMP JUMPDEST PUSH1 0x20 DUP1 DUP3 MSTORE DUP2 ADD PUSH2 0x614 DUP2 PUSH2 0x2858 JUMP JUMPDEST PUSH1 0x25 DUP2 MSTORE PUSH1 0x0 PUSH1 0x20 DUP3 ADD PUSH32 0x4552433732313A207472616E736665722066726F6D20696E636F727265637420 DUP2 MSTORE PUSH32 0x6F776E6572000000000000000000000000000000000000000000000000000000 PUSH1 0x20 DUP3 ADD MSTORE SWAP2 POP PUSH2 0x20AF JUMP JUMPDEST PUSH1 0x20 DUP1 DUP3 MSTORE DUP2 ADD PUSH2 0x614 DUP2 PUSH2 0x289A JUMP JUMPDEST PUSH1 0x24 DUP2 MSTORE PUSH1 0x0 PUSH1 0x20 DUP3 ADD PUSH32 0x4552433732313A207472616E7366657220746F20746865207A65726F20616464 DUP2 MSTORE PUSH32 0x7265737300000000000000000000000000000000000000000000000000000000 PUSH1 0x20 DUP3 ADD MSTORE SWAP2 POP PUSH2 0x20AF JUMP JUMPDEST PUSH1 0x20 DUP1 DUP3 MSTORE DUP2 ADD PUSH2 0x614 DUP2 PUSH2 0x2904 JUMP JUMPDEST PUSH1 0x0 DUP2 PUSH1 0x0 NOT DIV DUP4 GT DUP3 ISZERO ISZERO AND ISZERO PUSH2 0x2988 JUMPI PUSH2 0x2988 PUSH2 0x221F JUMP JUMPDEST POP MUL SWAP1 JUMP JUMPDEST PUSH1 0x19 DUP2 MSTORE PUSH1 0x0 PUSH1 0x20 DUP3 ADD PUSH32 0x4552433732313A20617070726F766520746F2063616C6C657200000000000000 DUP2 MSTORE SWAP2 POP PUSH2 0x2296 JUMP JUMPDEST PUSH1 0x20 DUP1 DUP3 MSTORE DUP2 ADD PUSH2 0x614 DUP2 PUSH2 0x298D JUMP JUMPDEST PUSH1 0x32 DUP2 MSTORE PUSH1 0x0 PUSH1 0x20 DUP3 ADD PUSH32 0x4552433732313A207472616E7366657220746F206E6F6E204552433732315265 DUP2 MSTORE PUSH32 0x63656976657220696D706C656D656E7465720000000000000000000000000000 PUSH1 0x20 DUP3 ADD MSTORE SWAP2 POP PUSH2 0x20AF JUMP JUMPDEST PUSH1 0x20 DUP1 DUP3 MSTORE DUP2 ADD PUSH2 0x614 DUP2 PUSH2 0x29D1 JUMP JUMPDEST PUSH1 0x80 DUP2 ADD PUSH2 0x2A49 DUP3 DUP8 PUSH2 0x1C2F JUMP JUMPDEST PUSH2 0x2A56 PUSH1 0x20 DUP4 ADD DUP7 PUSH2 0x1C2F JUMP JUMPDEST PUSH2 0x2A63 PUSH1 0x40 DUP4 ADD DUP6 PUSH2 0x1C7C JUMP JUMPDEST DUP2 DUP2 SUB PUSH1 0x60 DUP4 ADD MSTORE PUSH2 0x2A75 DUP2 DUP5 PUSH2 0x1B6C JUMP JUMPDEST SWAP7 SWAP6 POP POP POP POP POP POP JUMP JUMPDEST DUP1 MLOAD PUSH2 0x614 DUP2 PUSH2 0x1ACD JUMP JUMPDEST PUSH1 0x0 PUSH1 0x20 DUP3 DUP5 SUB SLT ISZERO PUSH2 0x2A9F JUMPI PUSH2 0x2A9F PUSH1 0x0 DUP1 REVERT JUMPDEST PUSH1 0x0 PUSH2 0xFDE DUP5 DUP5 PUSH2 0x2A7F JUMP JUMPDEST PUSH1 0x35 DUP2 MSTORE PUSH1 0x0 PUSH1 0x20 DUP3 ADD PUSH32 0x455243373231456E756D657261626C653A20636F6E7365637574697665207472 DUP2 MSTORE PUSH32 0x616E7366657273206E6F7420737570706F727465640000000000000000000000 PUSH1 0x20 DUP3 ADD MSTORE SWAP2 POP PUSH2 0x20AF JUMP JUMPDEST PUSH1 0x20 DUP1 DUP3 MSTORE DUP2 ADD PUSH2 0x614 DUP2 PUSH2 0x2AAB JUMP JUMPDEST PUSH1 0x20 DUP1 DUP3 MSTORE PUSH32 0x4552433732313A206D696E7420746F20746865207A65726F2061646472657373 SWAP2 ADD SWAP1 DUP2 MSTORE PUSH1 0x0 PUSH2 0x2296 JUMP JUMPDEST PUSH1 0x20 DUP1 DUP3 MSTORE DUP2 ADD PUSH2 0x614 DUP2 PUSH2 0x2B15 JUMP JUMPDEST PUSH1 0x1C DUP2 MSTORE PUSH1 0x0 PUSH1 0x20 DUP3 ADD PUSH32 0x4552433732313A20746F6B656E20616C7265616479206D696E74656400000000 DUP2 MSTORE SWAP2 POP PUSH2 0x2296 JUMP JUMPDEST PUSH1 0x20 DUP1 DUP3 MSTORE DUP2 ADD PUSH2 0x614 DUP2 PUSH2 0x2B57 JUMP JUMPDEST PUSH1 0x0 DUP3 DUP3 LT ISZERO PUSH2 0x2BAD JUMPI PUSH2 0x2BAD PUSH2 0x221F JUMP JUMPDEST POP SUB SWAP1 JUMP JUMPDEST PUSH32 0x4E487B7100000000000000000000000000000000000000000000000000000000 PUSH1 0x0 MSTORE PUSH1 0x31 PUSH1 0x4 MSTORE PUSH1 0x24 PUSH1 0x0 REVERT INVALID LOG2 PUSH5 0x6970667358 0x22 SLT KECCAK256 0xB2 SWAP6 DUP8 0xAB 0xFB RETURNDATACOPY 0x5D DUP6 PUSH23 0xD843F18B9C71810FFB7216A8ACA432AFCDE40F2D0B5CC1 PUSH5 0x736F6C6343 STOP ADDMOD 0xF STOP CALLER "},"gasEstimates":{"creation":{"codeDepositCost":"2257400","executionCost":"infinite","totalCost":"infinite"},"external":{"approve(address,uint256)":"infinite","balanceOf(address)":"infinite","changeLevelPrice(uint256,uint256)":"infinite","changeSaleState(bool)":"infinite","getApproved(uint256)":"infinite","internalLevelMint(address,uint256,uint256)":"infinite","isApprovedForAll(address,address)":"infinite","levelMint(uint256,uint256)":"infinite","levelOfId(uint256)":"infinite","listMyNFTs(address)":"infinite","mintLimitPerLevel(uint256)":"infinite","mintPricePerLevel(uint256)":"infinite","mintedPerLevel(uint256)":"infinite","name()":"infinite","owner()":"infinite","ownerOf(uint256)":"infinite","renounceOwnership()":"infinite","safeTransferFrom(address,address,uint256)":"infinite","safeTransferFrom(address,address,uint256,bytes)":"infinite","saleStarted()":"2466","setApprovalForAll(address,bool)":"infinite","setBaseURI(string)":"infinite","supportsInterface(bytes4)":"infinite","symbol()":"infinite","tokenByIndex(uint256)":"infinite","tokenOfOwnerByIndex(address,uint256)":"infinite","tokenURI(uint256)":"infinite","totalSupply()":"2448","transferFrom(address,address,uint256)":"infinite","transferOwnership(address)":"infinite","withdraw()":"infinite"},"internal":{"_baseURI()":"infinite","_beforeTokenTransfer(address,address,uint256,uint256)":"infinite"}},"methodIdentifiers":{"approve(address,uint256)":"095ea7b3","balanceOf(address)":"70a08231","changeLevelPrice(uint256,uint256)":"075f447b","changeSaleState(bool)":"b322078d","getApproved(uint256)":"081812fc","internalLevelMint(address,uint256,uint256)":"45133772","isApprovedForAll(address,address)":"e985e9c5","levelMint(uint256,uint256)":"51cd66a2","levelOfId(uint256)":"21b1dc4b","listMyNFTs(address)":"d3bfe077","mintLimitPerLevel(uint256)":"48ceb90e","mintPricePerLevel(uint256)":"241ea22c","mintedPerLevel(uint256)":"8928577e","name()":"06fdde03","owner()":"8da5cb5b","ownerOf(uint256)":"6352211e","renounceOwnership()":"715018a6","safeTransferFrom(address,address,uint256)":"42842e0e","safeTransferFrom(address,address,uint256,bytes)":"b88d4fde","saleStarted()":"5c474f9e","setApprovalForAll(address,bool)":"a22cb465","setBaseURI(string)":"55f804b3","supportsInterface(bytes4)":"01ffc9a7","symbol()":"95d89b41","tokenByIndex(uint256)":"4f6ccce7","tokenOfOwnerByIndex(address,uint256)":"2f745c59","tokenURI(uint256)":"c87b56dd","totalSupply()":"18160ddd","transferFrom(address,address,uint256)":"23b872dd","transferOwnership(address)":"f2fde38b","withdraw()":"3ccfd60b"}},"storageLayout":{"storage":[{"astId":138,"contract":"contracts/MegaNFT.sol:MegaNFT","label":"_name","offset":0,"slot":"0","type":"t_string_storage"},{"astId":140,"contract":"contracts/MegaNFT.sol:MegaNFT","label":"_symbol","offset":0,"slot":"1","type":"t_string_storage"},{"astId":144,"contract":"contracts/MegaNFT.sol:MegaNFT","label":"_owners","offset":0,"slot":"2","type":"t_mapping(t_uint256,t_address)"},{"astId":148,"contract":"contracts/MegaNFT.sol:MegaNFT","label":"_balances","offset":0,"slot":"3","type":"t_mapping(t_address,t_uint256)"},{"astId":152,"contract":"contracts/MegaNFT.sol:MegaNFT","label":"_tokenApprovals","offset":0,"slot":"4","type":"t_mapping(t_uint256,t_address)"},{"astId":158,"contract":"contracts/MegaNFT.sol:MegaNFT","label":"_operatorApprovals","offset":0,"slot":"5","type":"t_mapping(t_address,t_mapping(t_address,t_bool))"},{"astId":1206,"contract":"contracts/MegaNFT.sol:MegaNFT","label":"_ownedTokens","offset":0,"slot":"6","type":"t_mapping(t_address,t_mapping(t_uint256,t_uint256))"},{"astId":1210,"contract":"contracts/MegaNFT.sol:MegaNFT","label":"_ownedTokensIndex","offset":0,"slot":"7","type":"t_mapping(t_uint256,t_uint256)"},{"astId":1213,"contract":"contracts/MegaNFT.sol:MegaNFT","label":"_allTokens","offset":0,"slot":"8","type":"t_array(t_uint256)dyn_storage"},{"astId":1217,"contract":"contracts/MegaNFT.sol:MegaNFT","label":"_allTokensIndex","offset":0,"slot":"9","type":"t_mapping(t_uint256,t_uint256)"},{"astId":7,"contract":"contracts/MegaNFT.sol:MegaNFT","label":"_owner","offset":0,"slot":"10","type":"t_address"},{"astId":3362,"contract":"contracts/MegaNFT.sol:MegaNFT","label":"_baseTokenURI","offset":0,"slot":"11","type":"t_string_storage"},{"astId":3366,"contract":"contracts/MegaNFT.sol:MegaNFT","label":"_levelOfId","offset":0,"slot":"12","type":"t_mapping(t_uint256,t_uint256)"},{"astId":3369,"contract":"contracts/MegaNFT.sol:MegaNFT","label":"maxSupply","offset":0,"slot":"13","type":"t_uint256"},{"astId":3373,"contract":"contracts/MegaNFT.sol:MegaNFT","label":"mintLimitPerLevel","offset":0,"slot":"14","type":"t_mapping(t_uint256,t_uint256)"},{"astId":3377,"contract":"contracts/MegaNFT.sol:MegaNFT","label":"mintPricePerLevel","offset":0,"slot":"15","type":"t_mapping(t_uint256,t_uint256)"},{"astId":3381,"contract":"contracts/MegaNFT.sol:MegaNFT","label":"mintedPerLevel","offset":0,"slot":"16","type":"t_mapping(t_uint256,t_uint256)"},{"astId":3384,"contract":"contracts/MegaNFT.sol:MegaNFT","label":"saleStarted","offset":0,"slot":"17","type":"t_bool"}],"types":{"t_address":{"encoding":"inplace","label":"address","numberOfBytes":"20"},"t_array(t_uint256)dyn_storage":{"base":"t_uint256","encoding":"dynamic_array","label":"uint256[]","numberOfBytes":"32"},"t_bool":{"encoding":"inplace","label":"bool","numberOfBytes":"1"},"t_mapping(t_address,t_bool)":{"encoding":"mapping","key":"t_address","label":"mapping(address => bool)","numberOfBytes":"32","value":"t_bool"},"t_mapping(t_address,t_mapping(t_address,t_bool))":{"encoding":"mapping","key":"t_address","label":"mapping(address => mapping(address => bool))","numberOfBytes":"32","value":"t_mapping(t_address,t_bool)"},"t_mapping(t_address,t_mapping(t_uint256,t_uint256))":{"encoding":"mapping","key":"t_address","label":"mapping(address => mapping(uint256 => uint256))","numberOfBytes":"32","value":"t_mapping(t_uint256,t_uint256)"},"t_mapping(t_address,t_uint256)":{"encoding":"mapping","key":"t_address","label":"mapping(address => uint256)","numberOfBytes":"32","value":"t_uint256"},"t_mapping(t_uint256,t_address)":{"encoding":"mapping","key":"t_uint256","label":"mapping(uint256 => address)","numberOfBytes":"32","value":"t_address"},"t_mapping(t_uint256,t_uint256)":{"encoding":"mapping","key":"t_uint256","label":"mapping(uint256 => uint256)","numberOfBytes":"32","value":"t_uint256"},"t_string_storage":{"encoding":"bytes","label":"string","numberOfBytes":"32"},"t_uint256":{"encoding":"inplace","label":"uint256","numberOfBytes":"32"}}},"userdoc":{"kind":"user","methods":{},"version":1}}}}