{"contracts/MegaNFT.sol":{"MegaNFT":{"abi":[{"inputs":[{"internalType":"string","name":"_name","type":"string"},{"internalType":"string","name":"_symbol","type":"string"},{"internalType":"address","name":"controller_","type":"address"}],"stateMutability":"nonpayable","type":"constructor"},{"anonymous":false,"inputs":[{"indexed":true,"internalType":"address","name":"owner","type":"address"},{"indexed":true,"internalType":"address","name":"approved","type":"address"},{"indexed":true,"internalType":"uint256","name":"tokenId","type":"uint256"}],"name":"Approval","type":"event"},{"anonymous":false,"inputs":[{"indexed":true,"internalType":"address","name":"owner","type":"address"},{"indexed":true,"internalType":"address","name":"operator","type":"address"},{"indexed":false,"internalType":"bool","name":"approved","type":"bool"}],"name":"ApprovalForAll","type":"event"},{"anonymous":false,"inputs":[{"indexed":true,"internalType":"address","name":"previousOwner","type":"address"},{"indexed":true,"internalType":"address","name":"newOwner","type":"address"}],"name":"OwnershipTransferred","type":"event"},{"anonymous":false,"inputs":[{"indexed":true,"internalType":"address","name":"from","type":"address"},{"indexed":true,"internalType":"address","name":"to","type":"address"},{"indexed":true,"internalType":"uint256","name":"tokenId","type":"uint256"}],"name":"Transfer","type":"event"},{"anonymous":false,"inputs":[{"indexed":false,"internalType":"uint256","name":"amount","type":"uint256"},{"indexed":false,"internalType":"address","name":"addr","type":"address"}],"name":"Withdraw","type":"event"},{"inputs":[{"internalType":"address","name":"to","type":"address"},{"internalType":"uint256","name":"tokenId","type":"uint256"}],"name":"approve","outputs":[],"stateMutability":"nonpayable","type":"function"},{"inputs":[{"internalType":"address","name":"owner","type":"address"}],"name":"balanceOf","outputs":[{"internalType":"uint256","name":"","type":"uint256"}],"stateMutability":"view","type":"function"},{"inputs":[{"internalType":"uint256","name":"_price","type":"uint256"}],"name":"changePrice","outputs":[],"stateMutability":"nonpayable","type":"function"},{"inputs":[],"name":"contractPaused","outputs":[{"internalType":"bool","name":"","type":"bool"}],"stateMutability":"view","type":"function"},{"inputs":[{"internalType":"uint256","name":"tokenId","type":"uint256"}],"name":"getApproved","outputs":[{"internalType":"address","name":"","type":"address"}],"stateMutability":"view","type":"function"},{"inputs":[{"internalType":"address","name":"_to","type":"address"},{"internalType":"uint256","name":"num","type":"uint256"}],"name":"internalMint","outputs":[],"stateMutability":"nonpayable","type":"function"},{"inputs":[{"internalType":"address","name":"owner","type":"address"},{"internalType":"address","name":"operator","type":"address"}],"name":"isApprovedForAll","outputs":[{"internalType":"bool","name":"","type":"bool"}],"stateMutability":"view","type":"function"},{"inputs":[],"name":"listAllNFTAndOwner","outputs":[{"internalType":"address[]","name":"","type":"address[]"},{"internalType":"uint256[]","name":"","type":"uint256[]"}],"stateMutability":"view","type":"function"},{"inputs":[{"internalType":"address","name":"_owner","type":"address"}],"name":"listMyNFTs","outputs":[{"internalType":"uint256[]","name":"","type":"uint256[]"}],"stateMutability":"view","type":"function"},{"inputs":[{"internalType":"address","name":"_to","type":"address"},{"internalType":"uint256","name":"num","type":"uint256"}],"name":"mint","outputs":[],"stateMutability":"payable","type":"function"},{"inputs":[{"internalType":"uint256","name":"num","type":"uint256"}],"name":"mint","outputs":[],"stateMutability":"payable","type":"function"},{"inputs":[],"name":"name","outputs":[{"internalType":"string","name":"","type":"string"}],"stateMutability":"view","type":"function"},{"inputs":[],"name":"owner","outputs":[{"internalType":"address","name":"","type":"address"}],"stateMutability":"view","type":"function"},{"inputs":[{"internalType":"uint256","name":"tokenId","type":"uint256"}],"name":"ownerOf","outputs":[{"internalType":"address","name":"","type":"address"}],"stateMutability":"view","type":"function"},{"inputs":[],"name":"pauseContract","outputs":[],"stateMutability":"nonpayable","type":"function"},{"inputs":[],"name":"price","outputs":[{"internalType":"uint256","name":"","type":"uint256"}],"stateMutability":"view","type":"function"},{"inputs":[],"name":"renounceOwnership","outputs":[],"stateMutability":"nonpayable","type":"function"},{"inputs":[{"internalType":"address","name":"from","type":"address"},{"internalType":"address","name":"to","type":"address"},{"internalType":"uint256","name":"tokenId","type":"uint256"}],"name":"safeTransferFrom","outputs":[],"stateMutability":"nonpayable","type":"function"},{"inputs":[{"internalType":"address","name":"from","type":"address"},{"internalType":"address","name":"to","type":"address"},{"internalType":"uint256","name":"tokenId","type":"uint256"},{"internalType":"bytes","name":"data","type":"bytes"}],"name":"safeTransferFrom","outputs":[],"stateMutability":"nonpayable","type":"function"},{"inputs":[{"internalType":"address","name":"operator","type":"address"},{"internalType":"bool","name":"approved","type":"bool"}],"name":"setApprovalForAll","outputs":[],"stateMutability":"nonpayable","type":"function"},{"inputs":[{"internalType":"bytes4","name":"interfaceId","type":"bytes4"}],"name":"supportsInterface","outputs":[{"internalType":"bool","name":"","type":"bool"}],"stateMutability":"view","type":"function"},{"inputs":[],"name":"symbol","outputs":[{"internalType":"string","name":"","type":"string"}],"stateMutability":"view","type":"function"},{"inputs":[{"internalType":"uint256","name":"index","type":"uint256"}],"name":"tokenByIndex","outputs":[{"internalType":"uint256","name":"","type":"uint256"}],"stateMutability":"view","type":"function"},{"inputs":[{"internalType":"address","name":"owner","type":"address"},{"internalType":"uint256","name":"index","type":"uint256"}],"name":"tokenOfOwnerByIndex","outputs":[{"internalType":"uint256","name":"","type":"uint256"}],"stateMutability":"view","type":"function"},{"inputs":[{"internalType":"uint256","name":"tokenId","type":"uint256"}],"name":"tokenURI","outputs":[{"internalType":"string","name":"","type":"string"}],"stateMutability":"view","type":"function"},{"inputs":[],"name":"totalSupply","outputs":[{"internalType":"uint256","name":"","type":"uint256"}],"stateMutability":"view","type":"function"},{"inputs":[{"internalType":"address","name":"from","type":"address"},{"internalType":"address","name":"to","type":"address"},{"internalType":"uint256","name":"tokenId","type":"uint256"}],"name":"transferFrom","outputs":[],"stateMutability":"nonpayable","type":"function"},{"inputs":[{"internalType":"address","name":"newOwner","type":"address"}],"name":"transferOwnership","outputs":[],"stateMutability":"nonpayable","type":"function"},{"inputs":[],"name":"unpauseContract","outputs":[],"stateMutability":"nonpayable","type":"function"},{"inputs":[],"name":"withdraw","outputs":[],"stateMutability":"payable","type":"function"}],"devdoc":{"kind":"dev","methods":{"approve(address,uint256)":{"details":"See {IERC721-approve}."},"balanceOf(address)":{"details":"See {IERC721-balanceOf}."},"getApproved(uint256)":{"details":"See {IERC721-getApproved}."},"isApprovedForAll(address,address)":{"details":"See {IERC721-isApprovedForAll}."},"name()":{"details":"See {IERC721Metadata-name}."},"owner()":{"details":"Returns the address of the current owner."},"ownerOf(uint256)":{"details":"See {IERC721-ownerOf}."},"renounceOwnership()":{"details":"Leaves the contract without owner. It will not be possible to call `onlyOwner` functions anymore. Can only be called by the current owner. NOTE: Renouncing ownership will leave the contract without an owner, thereby removing any functionality that is only available to the owner."},"safeTransferFrom(address,address,uint256)":{"details":"See {IERC721-safeTransferFrom}."},"safeTransferFrom(address,address,uint256,bytes)":{"details":"See {IERC721-safeTransferFrom}."},"setApprovalForAll(address,bool)":{"details":"See {IERC721-setApprovalForAll}."},"symbol()":{"details":"See {IERC721Metadata-symbol}."},"tokenByIndex(uint256)":{"details":"See {IERC721Enumerable-tokenByIndex}."},"tokenOfOwnerByIndex(address,uint256)":{"details":"See {IERC721Enumerable-tokenOfOwnerByIndex}."},"tokenURI(uint256)":{"details":"See {IERC721Metadata-tokenURI}."},"totalSupply()":{"details":"See {IERC721Enumerable-totalSupply}."},"transferFrom(address,address,uint256)":{"details":"See {IERC721-transferFrom}."},"transferOwnership(address)":{"details":"Transfers ownership of the contract to a new account (`newOwner`). Can only be called by the current owner."}},"version":1},"evm":{"bytecode":{"linkReferences":{},"object":"60806040523480156200001157600080fd5b506040516200303b3803806200303b833981016040819052620000349162000300565b828260006200004483826200048c565b5060016200005382826200048c565b505050620000706200006a620000ca60201b60201c565b620000ce565b611388600c55652d79883d2000600d55600a805460ff60a01b191690556040805160808101909152605480825262002fe76020830139600b90620000b590826200048c565b50620000c18162000120565b505050620005e2565b3390565b600a80546001600160a01b038381166001600160a01b0319831681179093556040519116919082907f8be0079c531659141344cd1fd0a4f28419497f9722a3daafe3b4186f6b6457e090600090a35050565b6200012a6200016a565b6001600160a01b0381166200015c5760405162461bcd60e51b815260040162000153906200055c565b60405180910390fd5b6200016781620000ce565b50565b600a546001600160a01b03163314620001975760405162461bcd60e51b81526004016200015390620005a7565b565b634e487b7160e01b600052604160045260246000fd5b601f19601f83011681018181106001600160401b0382111715620001d757620001d762000199565b6040525050565b6000620001ea60405190565b9050620001f88282620001af565b919050565b60006001600160401b0382111562000219576200021962000199565b601f19601f83011660200192915050565b60005b83811015620002475781810151838201526020016200022d565b50506000910152565b6000620002676200026184620001fd565b620001de565b905082815260208101848484011115620002845762000284600080fd5b620002918482856200022a565b509392505050565b600082601f830112620002af57620002af600080fd5b8151620002c184826020860162000250565b949350505050565b60006001600160a01b0382165b92915050565b620002e781620002c9565b81146200016757600080fd5b8051620002d681620002dc565b6000806000606084860312156200031a576200031a600080fd5b83516001600160401b03811115620003355762000335600080fd5b620003438682870162000299565b93505060208401516001600160401b03811115620003645762000364600080fd5b620003728682870162000299565b92505060406200038586828701620002f3565b9150509250925092565b634e487b7160e01b600052602260045260246000fd5b600281046001821680620003ba57607f821691505b602082108103620003cf57620003cf6200038f565b50919050565b6000620002d6620003e38381565b90565b620003f183620003d5565b81546008840282811b60001990911b908116901990911617825550505050565b600062000420818484620003e6565b505050565b8181101562000444576200043b60008262000411565b60010162000425565b5050565b601f82111562000420576000818152602090206020601f85010481016020851015620004715750805b620004856020601f86010483018262000425565b5050505050565b81516001600160401b03811115620004a857620004a862000199565b620004b48254620003a5565b620004c182828562000448565b6020601f831160018114620004f85760008415620004df5750858201515b600019600886021c198116600286021786555062000554565b600085815260208120601f198616915b828110156200052a578885015182556020948501946001909201910162000508565b86831015620005475784890151600019601f89166008021c191682555b6001600288020188555050505b505050505050565b60208082528101620002d681602681527f4f776e61626c653a206e6577206f776e657220697320746865207a65726f206160208201526564647265737360d01b604082015260600190565b60208082528181019081527f4f776e61626c653a2063616c6c6572206973206e6f7420746865206f776e6572604083015260608201620002d6565b6129f580620005f26000396000f3fe6080604052600436106101cd5760003560e01c8063715018a6116100f7578063a2b40d1911610095578063d3bfe07711610064578063d3bfe077146104df578063e8d627501461050c578063e985e9c51461052f578063f2fde38b1461057857600080fd5b8063a2b40d191461046a578063b33712c51461048a578063b88d4fde1461049f578063c87b56dd146104bf57600080fd5b806395d89b41116100d157806395d89b411461040c578063a035b1fe14610421578063a0712d6814610437578063a22cb4651461044a57600080fd5b8063715018a6146103a75780638a67456a146103bc5780638da5cb5b146103ee57600080fd5b806335001a1a1161016f578063439766ce1161013e578063439766ce146103325780634f6ccce7146103475780636352211e1461036757806370a082311461038757600080fd5b806335001a1a146102d75780633ccfd60b146102f757806340c10f19146102ff57806342842e0e1461031257600080fd5b8063095ea7b3116101ab578063095ea7b31461025757806318160ddd1461027957806323b872dd146102975780632f745c59146102b757600080fd5b806301ffc9a7146101d257806306fdde0314610208578063081812fc1461022a575b600080fd5b3480156101de57600080fd5b506101f26101ed366004611bc2565b610598565b6040516101ff9190611bed565b60405180910390f35b34801561021457600080fd5b5061021d6105a9565b6040516101ff9190611c51565b34801561023657600080fd5b5061024a610245366004611c73565b61063b565b6040516101ff9190611cae565b34801561026357600080fd5b50610277610272366004611cd0565b610662565b005b34801561028557600080fd5b506008545b6040516101ff9190611d13565b3480156102a357600080fd5b506102776102b2366004611d21565b6106f0565b3480156102c357600080fd5b5061028a6102d2366004611cd0565b610721565b3480156102e357600080fd5b506102776102f2366004611cd0565b610773565b610277610830565b61027761030d366004611cd0565b61089b565b34801561031e57600080fd5b5061027761032d366004611d21565b61097a565b34801561033e57600080fd5b50610277610995565b34801561035357600080fd5b5061028a610362366004611c73565b6109de565b34801561037357600080fd5b5061024a610382366004611c73565b610a2c565b34801561039357600080fd5b5061028a6103a2366004611d71565b610a61565b3480156103b357600080fd5b50610277610aa5565b3480156103c857600080fd5b50600a546101f29074010000000000000000000000000000000000000000900460ff1681565b3480156103fa57600080fd5b50600a546001600160a01b031661024a565b34801561041857600080fd5b5061021d610ab9565b34801561042d57600080fd5b5061028a600d5481565b610277610445366004611c73565b610ac8565b34801561045657600080fd5b50610277610465366004611da5565b610ba7565b34801561047657600080fd5b50610277610485366004611c73565b610bb6565b34801561049657600080fd5b50610277610bc3565b3480156104ab57600080fd5b506102776104ba366004611ee4565b610bf5565b3480156104cb57600080fd5b5061021d6104da366004611c73565b610c27565b3480156104eb57600080fd5b506104ff6104fa366004611d71565b610cba565b6040516101ff9190611fc0565b34801561051857600080fd5b50610521610d7c565b6040516101ff92919061201b565b34801561053b57600080fd5b506101f261054a366004612040565b6001600160a01b03918216600090815260056020908152604080832093909416825291909152205460ff1690565b34801561058457600080fd5b50610277610593366004611d71565b610ea8565b60006105a382610ee2565b92915050565b6060600080546105b8906120a2565b80601f01602080910402602001604051908101604052809291908181526020018280546105e4906120a2565b80156106315780601f1061060657610100808354040283529160200191610631565b820191906000526020600020905b81548152906001019060200180831161061457829003601f168201915b5050505050905090565b600061064682610f38565b506000908152600460205260409020546001600160a01b031690565b600061066d82610a2c565b9050806001600160a01b0316836001600160a01b0316036106a95760405162461bcd60e51b81526004016106a090612125565b60405180910390fd5b336001600160a01b03821614806106c557506106c5813361054a565b6106e15760405162461bcd60e51b81526004016106a09061218f565b6106eb8383610f6c565b505050565b6106fa3382610ff2565b6107165760405162461bcd60e51b81526004016106a0906121f9565b6106eb838383611071565b600061072c83610a61565b821061074a5760405162461bcd60e51b81526004016106a090612263565b506001600160a01b03919091166000908152600660209081526040808320938352929052205490565b600a5474010000000000000000000000000000000000000000900460ff16156107ae5760405162461bcd60e51b81526004016106a0906122aa565b600c54816107bb60085490565b6107c591906122e9565b11156107e35760405162461bcd60e51b81526004016106a090612330565b60006107ee60085490565b905060015b6107fe8360016122e9565b81101561082a576108188461081383856122e9565b6111be565b8061082281612340565b9150506107f3565b50505050565b6108386111d8565b6040514790339082156108fc029083906000818181858888f1935050505061085f57600080fd5b7f8353ffcac0876ad14e226d9783c04540bfebf13871e868157d2a391cad98e918813360405161089092919061235a565b60405180910390a150565b600a5474010000000000000000000000000000000000000000900460ff16156108d65760405162461bcd60e51b81526004016106a0906122aa565b600c54816108e360085490565b6108ed91906122e9565b111561090b5760405162461bcd60e51b81526004016106a090612330565b80600d546109199190612375565b3410156109385760405162461bcd60e51b81526004016106a0906123c6565b600061094360085490565b905060015b6109538360016122e9565b81101561082a576109688461081383856122e9565b8061097281612340565b915050610948565b6106eb83838360405180602001604052806000815250610bf5565b61099d6111d8565b600a80547fffffffffffffffffffffff00ffffffffffffffffffffffffffffffffffffffff1674010000000000000000000000000000000000000000179055565b60006109e960085490565b8210610a075760405162461bcd60e51b81526004016106a090612430565b60088281548110610a1a57610a1a612440565b90600052602060002001549050919050565b6000818152600260205260408120546001600160a01b0316806105a35760405162461bcd60e51b81526004016106a0906124a3565b60006001600160a01b038216610a895760405162461bcd60e51b81526004016106a09061250d565b506001600160a01b031660009081526003602052604090205490565b610aad6111d8565b610ab76000611202565b565b6060600180546105b8906120a2565b600a5474010000000000000000000000000000000000000000900460ff1615610b035760405162461bcd60e51b81526004016106a0906122aa565b600c5481610b1060085490565b610b1a91906122e9565b1115610b385760405162461bcd60e51b81526004016106a090612330565b80600d54610b469190612375565b341015610b655760405162461bcd60e51b81526004016106a0906123c6565b6000610b7060085490565b905060015b610b808360016122e9565b8110156106eb57610b953361081383856122e9565b80610b9f81612340565b915050610b75565b610bb233838361126c565b5050565b610bbe6111d8565b600d55565b610bcb6111d8565b600a80547fffffffffffffffffffffff00ffffffffffffffffffffffffffffffffffffffff169055565b610bff3383610ff2565b610c1b5760405162461bcd60e51b81526004016106a0906121f9565b61082a8484848461132c565b6000818152600260205260409020546060906001600160a01b0316610c5e5760405162461bcd60e51b81526004016106a090612577565b6000610c6861135f565b90506000815111610c885760405180602001604052806000815250610cb3565b80610c928461136e565b604051602001610ca39291906125a9565b6040516020818303038152906040525b9392505050565b60606000610cc783610a61565b905080600003610ceb5760408051600080825260208201909252905b509392505050565b60008167ffffffffffffffff811115610d0657610d06611dd8565b604051908082528060200260200182016040528015610d2f578160200160208202803683370190505b50905060005b82811015610ce357610d478582610721565b828281518110610d5957610d59612440565b602090810291909101015280610d6e81612340565b915050610d35565b50919050565b6060806000610d8a60085490565b905060008167ffffffffffffffff811115610da757610da7611dd8565b604051908082528060200260200182016040528015610dd0578160200160208202803683370190505b50905060008267ffffffffffffffff811115610dee57610dee611dd8565b604051908082528060200260200182016040528015610e17578160200160208202803683370190505b50905060005b83811015610e9d57610e336103828260016122e9565b838281518110610e4557610e45612440565b60200260200101906001600160a01b031690816001600160a01b031681525050610e6e816109de565b828281518110610e8057610e80612440565b602090810291909101015280610e9581612340565b915050610e1d565b509094909350915050565b610eb06111d8565b6001600160a01b038116610ed65760405162461bcd60e51b81526004016106a090612649565b610edf81611202565b50565b60007fffffffff0000000000000000000000000000000000000000000000000000000082167f780e9d630000000000000000000000000000000000000000000000000000000014806105a357506105a38261140e565b6000818152600260205260409020546001600160a01b0316610edf5760405162461bcd60e51b81526004016106a0906124a3565b600081815260046020526040902080547fffffffffffffffffffffffff0000000000000000000000000000000000000000166001600160a01b0384169081179091558190610fb982610a2c565b6001600160a01b03167f8c5be1e5ebec7d5bd14f71427d1e84f3dd0314c0f7b2291e5b200ac8c7c3b92560405160405180910390a45050565b600080610ffe83610a2c565b9050806001600160a01b0316846001600160a01b0316148061104557506001600160a01b0380821660009081526005602090815260408083209388168352929052205460ff165b806110695750836001600160a01b031661105e8461063b565b6001600160a01b0316145b949350505050565b826001600160a01b031661108482610a2c565b6001600160a01b0316146110aa5760405162461bcd60e51b81526004016106a0906126b3565b6001600160a01b0382166110d05760405162461bcd60e51b81526004016106a09061271d565b6110dd83838360016114f1565b826001600160a01b03166110f082610a2c565b6001600160a01b0316146111165760405162461bcd60e51b81526004016106a0906126b3565b600081815260046020908152604080832080547fffffffffffffffffffffffff00000000000000000000000000000000000000009081169091556001600160a01b0387811680865260038552838620805460001901905590871680865283862080546001019055868652600290945282852080549092168417909155905184937fddf252ad1be2c89b69c2b068fc378daa952ba7f163c4a11628f55a4df523b3ef91a4505050565b610bb28282604051806020016040528060008152506114fd565b600a546001600160a01b03163314610ab75760405162461bcd60e51b81526004016106a09061275f565b600a80546001600160a01b038381167fffffffffffffffffffffffff0000000000000000000000000000000000000000831681179093556040519116919082907f8be0079c531659141344cd1fd0a4f28419497f9722a3daafe3b4186f6b6457e090600090a35050565b816001600160a01b0316836001600160a01b03160361129d5760405162461bcd60e51b81526004016106a0906127a3565b6001600160a01b038381166000818152600560209081526040808320948716808452949091529081902080547fffffffffffffffffffffffffffffffffffffffffffffffffffffffffffffff0016851515179055517f17307eab39ab6107e8899845ad3d59bd9653f200f220920489ca2b5937696c319061131f908590611bed565b60405180910390a3505050565b611337848484611071565b61134384848484611530565b61082a5760405162461bcd60e51b81526004016106a09061280d565b6060600b80546105b8906120a2565b6060600061137b8361167b565b600101905060008167ffffffffffffffff81111561139b5761139b611dd8565b6040519080825280601f01601f1916602001820160405280156113c5576020820181803683370190505b5090508181016020015b600019017f3031323334353637383961626364656600000000000000000000000000000000600a86061a8153600a85049450846113cf57509392505050565b60007fffffffff0000000000000000000000000000000000000000000000000000000082167f80ac58cd0000000000000000000000000000000000000000000000000000000014806114a157507fffffffff0000000000000000000000000000000000000000000000000000000082167f5b5e139f00000000000000000000000000000000000000000000000000000000145b806105a357507f01ffc9a7000000000000000000000000000000000000000000000000000000007fffffffff000000000000000000000000000000000000000000000000000000008316146105a3565b61082a8484848461175d565b611507838361184f565b6115146000848484611530565b6106eb5760405162461bcd60e51b81526004016106a09061280d565b60006001600160a01b0384163b15611670576040517f150b7a020000000000000000000000000000000000000000000000000000000081526001600160a01b0385169063150b7a029061158d90339089908890889060040161281d565b6020604051808303816000875af19250505080156115c8575060408051601f3d908101601f191682019092526115c59181019061286c565b60015b611625573d8080156115f6576040519150601f19603f3d011682016040523d82523d6000602084013e6115fb565b606091505b50805160000361161d5760405162461bcd60e51b81526004016106a09061280d565b805181602001fd5b7fffffffff00000000000000000000000000000000000000000000000000000000167f150b7a0200000000000000000000000000000000000000000000000000000000149050611069565b506001949350505050565b6000807a184f03e93ff9f4daa797ed6e38ed64bf6a1f01000000000000000083106116c4577a184f03e93ff9f4daa797ed6e38ed64bf6a1f010000000000000000830492506040015b6d04ee2d6d415b85acef810000000083106116f0576d04ee2d6d415b85acef8100000000830492506020015b662386f26fc10000831061170e57662386f26fc10000830492506010015b6305f5e1008310611726576305f5e100830492506008015b612710831061173a57612710830492506004015b6064831061174c576064830492506002015b600a83106105a35760010192915050565b61176984848484611970565b600181111561178a5760405162461bcd60e51b81526004016106a0906128e7565b816001600160a01b0385166117e6576117e181600880546000838152600960205260408120829055600182018355919091527ff3f7a9fe364faab93b216da50a3214154f22a0a2b415b23a84c8169e8b636ee30155565b611809565b836001600160a01b0316856001600160a01b0316146118095761180985826119f8565b6001600160a01b0384166118255761182081611a95565b611848565b846001600160a01b0316846001600160a01b031614611848576118488482611b44565b5050505050565b6001600160a01b0382166118755760405162461bcd60e51b81526004016106a090612929565b6000818152600260205260409020546001600160a01b0316156118aa5760405162461bcd60e51b81526004016106a09061296d565b6118b86000838360016114f1565b6000818152600260205260409020546001600160a01b0316156118ed5760405162461bcd60e51b81526004016106a09061296d565b6001600160a01b038216600081815260036020908152604080832080546001019055848352600290915280822080547fffffffffffffffffffffffff0000000000000000000000000000000000000000168417905551839291907fddf252ad1be2c89b69c2b068fc378daa952ba7f163c4a11628f55a4df523b3ef908290a45050565b600181111561082a576001600160a01b038416156119b6576001600160a01b038416600090815260036020526040812080548392906119b090849061297d565b90915550505b6001600160a01b0383161561082a576001600160a01b038316600090815260036020526040812080548392906119ed9084906122e9565b909155505050505050565b60006001611a0584610a61565b611a0f919061297d565b600083815260076020526040902054909150808214611a62576001600160a01b03841660009081526006602090815260408083208584528252808320548484528184208190558352600790915290208190555b5060009182526007602090815260408084208490556001600160a01b039094168352600681528383209183525290812055565b600854600090611aa79060019061297d565b60008381526009602052604081205460088054939450909284908110611acf57611acf612440565b906000526020600020015490508060088381548110611af057611af0612440565b6000918252602080832090910192909255828152600990915260408082208490558582528120556008805480611b2857611b28612990565b6001900381819060005260206000200160009055905550505050565b6000611b4f83610a61565b6001600160a01b039093166000908152600660209081526040808320868452825280832085905593825260079052919091209190915550565b7fffffffff0000000000000000000000000000000000000000000000000000000081165b8114610edf57600080fd5b80356105a381611b88565b600060208284031215611bd757611bd7600080fd5b60006110698484611bb7565b8015155b82525050565b602081016105a38284611be3565b60005b83811015611c16578181015183820152602001611bfe565b50506000910152565b6000611c29825190565b808452602084019350611c40818560208601611bfb565b601f01601f19169290920192915050565b60208082528101610cb38184611c1f565b80611bac565b80356105a381611c62565b600060208284031215611c8857611c88600080fd5b60006110698484611c68565b60006001600160a01b0382166105a3565b611be781611c94565b602081016105a38284611ca5565b611bac81611c94565b80356105a381611cbc565b60008060408385031215611ce657611ce6600080fd5b6000611cf28585611cc5565b9250506020611d0385828601611c68565b9150509250929050565b80611be7565b602081016105a38284611d0d565b600080600060608486031215611d3957611d39600080fd5b6000611d458686611cc5565b9350506020611d5686828701611cc5565b9250506040611d6786828701611c68565b9150509250925092565b600060208284031215611d8657611d86600080fd5b60006110698484611cc5565b801515611bac565b80356105a381611d92565b60008060408385031215611dbb57611dbb600080fd5b6000611dc78585611cc5565b9250506020611d0385828601611d9a565b7f4e487b7100000000000000000000000000000000000000000000000000000000600052604160045260246000fd5b601f19601f830116810181811067ffffffffffffffff82111715611e2d57611e2d611dd8565b6040525050565b6000611e3f60405190565b9050611e4b8282611e07565b919050565b600067ffffffffffffffff821115611e6a57611e6a611dd8565b601f19601f83011660200192915050565b82818337506000910152565b6000611e9a611e9584611e50565b611e34565b905082815260208101848484011115611eb557611eb5600080fd5b610ce3848285611e7b565b600082601f830112611ed457611ed4600080fd5b8135611069848260208601611e87565b60008060008060808587031215611efd57611efd600080fd5b6000611f098787611cc5565b9450506020611f1a87828801611cc5565b9350506040611f2b87828801611c68565b925050606085013567ffffffffffffffff811115611f4b57611f4b600080fd5b611f5787828801611ec0565b91505092959194509250565b6000611f6f8383611d0d565b505060200190565b6000611f81825190565b80845260209384019383018060005b83811015611fb5578151611fa48882611f63565b975060208301925050600101611f90565b509495945050505050565b60208082528101610cb38184611f77565b6000611f6f8383611ca5565b6000611fe7825190565b80845260209384019383018060005b83811015611fb557815161200a8882611fd1565b975060208301925050600101611ff6565b6040808252810161202c8185611fdd565b905081810360208301526110698184611f77565b6000806040838503121561205657612056600080fd5b60006120628585611cc5565b9250506020611d0385828601611cc5565b7f4e487b7100000000000000000000000000000000000000000000000000000000600052602260045260246000fd5b6002810460018216806120b657607f821691505b602082108103610d7657610d76612073565b602181526000602082017f4552433732313a20617070726f76616c20746f2063757272656e74206f776e6581527f7200000000000000000000000000000000000000000000000000000000000000602082015291505b5060400190565b602080825281016105a3816120c8565b603d81526000602082017f4552433732313a20617070726f76652063616c6c6572206973206e6f7420746f81527f6b656e206f776e6572206f7220617070726f76656420666f7220616c6c0000006020820152915061211e565b602080825281016105a381612135565b602d81526000602082017f4552433732313a2063616c6c6572206973206e6f7420746f6b656e206f776e6581527f72206f7220617070726f766564000000000000000000000000000000000000006020820152915061211e565b602080825281016105a38161219f565b602b81526000602082017f455243373231456e756d657261626c653a206f776e657220696e646578206f7581527f74206f6620626f756e64730000000000000000000000000000000000000000006020820152915061211e565b602080825281016105a381612209565b600c81526000602082017f53616c6520506175736564210000000000000000000000000000000000000000815291505b5060200190565b602080825281016105a381612273565b7f4e487b7100000000000000000000000000000000000000000000000000000000600052601160045260246000fd5b808201808211156105a3576105a36122ba565b601381526000602082017f4d617820737570706c7920726561636865642100000000000000000000000000815291506122a3565b602080825281016105a3816122fc565b60006000198203612353576123536122ba565b5060010190565b604081016123688285611d0d565b610cb36020830184611ca5565b600081600019048311821515161561238f5761238f6122ba565b500290565b60208082527f4e6f7420656e6f756768204554482073656e742c20636865636b207072696365910190815260006122a3565b602080825281016105a381612394565b602c81526000602082017f455243373231456e756d657261626c653a20676c6f62616c20696e646578206f81527f7574206f6620626f756e647300000000000000000000000000000000000000006020820152915061211e565b602080825281016105a3816123d6565b7f4e487b7100000000000000000000000000000000000000000000000000000000600052603260045260246000fd5b601881526000602082017f4552433732313a20696e76616c696420746f6b656e2049440000000000000000815291506122a3565b602080825281016105a38161246f565b602981526000602082017f4552433732313a2061646472657373207a65726f206973206e6f74206120766181527f6c6964206f776e657200000000000000000000000000000000000000000000006020820152915061211e565b602080825281016105a3816124b3565b602f81526000602082017f4552433732314d657461646174613a2055524920717565727920666f72206e6f81527f6e6578697374656e7420746f6b656e00000000000000000000000000000000006020820152915061211e565b602080825281016105a38161251d565b6000612591825190565b61259f818560208601611bfb565b9290920192915050565b60006125b58285612587565b91506125c18284612587565b7f2e6a736f6e0000000000000000000000000000000000000000000000000000008152915060058201611069565b602681526000602082017f4f776e61626c653a206e6577206f776e657220697320746865207a65726f206181527f64647265737300000000000000000000000000000000000000000000000000006020820152915061211e565b602080825281016105a3816125ef565b602581526000602082017f4552433732313a207472616e736665722066726f6d20696e636f72726563742081527f6f776e65720000000000000000000000000000000000000000000000000000006020820152915061211e565b602080825281016105a381612659565b602481526000602082017f4552433732313a207472616e7366657220746f20746865207a65726f2061646481527f72657373000000000000000000000000000000000000000000000000000000006020820152915061211e565b602080825281016105a3816126c3565b60208082527f4f776e61626c653a2063616c6c6572206973206e6f7420746865206f776e6572910190815260006122a3565b602080825281016105a38161272d565b601981526000602082017f4552433732313a20617070726f766520746f2063616c6c657200000000000000815291506122a3565b602080825281016105a38161276f565b603281526000602082017f4552433732313a207472616e7366657220746f206e6f6e20455243373231526581527f63656976657220696d706c656d656e74657200000000000000000000000000006020820152915061211e565b602080825281016105a3816127b3565b6080810161282b8287611ca5565b6128386020830186611ca5565b6128456040830185611d0d565b81810360608301526128578184611c1f565b9695505050505050565b80516105a381611b88565b60006020828403121561288157612881600080fd5b60006110698484612861565b603581526000602082017f455243373231456e756d657261626c653a20636f6e736563757469766520747281527f616e7366657273206e6f7420737570706f7274656400000000000000000000006020820152915061211e565b602080825281016105a38161288d565b60208082527f4552433732313a206d696e7420746f20746865207a65726f2061646472657373910190815260006122a3565b602080825281016105a3816128f7565b601c81526000602082017f4552433732313a20746f6b656e20616c7265616479206d696e74656400000000815291506122a3565b602080825281016105a381612939565b818103818111156105a3576105a36122ba565b7f4e487b7100000000000000000000000000000000000000000000000000000000600052603160045260246000fdfea264697066735822122013bf5161e6c280aecbe01cc0a743ad6908eeb6cfe485bcd92697c1a1fc25a44b64736f6c6343000810003368747470733a2f2f6d65676166616e732e6d7970696e6174612e636c6f75642f697066732f516d564c7057657766445079775778364d6f70623959326f775641426443544b377050484e7448787a70714c50452f","opcodes":"PUSH1 0x80 PUSH1 0x40 MSTORE CALLVALUE DUP1 ISZERO PUSH3 0x11 JUMPI PUSH1 0x0 DUP1 REVERT JUMPDEST POP PUSH1 0x40 MLOAD PUSH3 0x303B CODESIZE SUB DUP1 PUSH3 0x303B DUP4 CODECOPY DUP2 ADD PUSH1 0x40 DUP2 SWAP1 MSTORE PUSH3 0x34 SWAP2 PUSH3 0x300 JUMP JUMPDEST DUP3 DUP3 PUSH1 0x0 PUSH3 0x44 DUP4 DUP3 PUSH3 0x48C JUMP JUMPDEST POP PUSH1 0x1 PUSH3 0x53 DUP3 DUP3 PUSH3 0x48C JUMP JUMPDEST POP POP POP PUSH3 0x70 PUSH3 0x6A PUSH3 0xCA PUSH1 0x20 SHL PUSH1 0x20 SHR JUMP JUMPDEST PUSH3 0xCE JUMP JUMPDEST PUSH2 0x1388 PUSH1 0xC SSTORE PUSH6 0x2D79883D2000 PUSH1 0xD SSTORE PUSH1 0xA DUP1 SLOAD PUSH1 0xFF PUSH1 0xA0 SHL NOT AND SWAP1 SSTORE PUSH1 0x40 DUP1 MLOAD PUSH1 0x80 DUP2 ADD SWAP1 SWAP2 MSTORE PUSH1 0x54 DUP1 DUP3 MSTORE PUSH3 0x2FE7 PUSH1 0x20 DUP4 ADD CODECOPY PUSH1 0xB SWAP1 PUSH3 0xB5 SWAP1 DUP3 PUSH3 0x48C JUMP JUMPDEST POP PUSH3 0xC1 DUP2 PUSH3 0x120 JUMP JUMPDEST POP POP POP PUSH3 0x5E2 JUMP JUMPDEST CALLER SWAP1 JUMP JUMPDEST PUSH1 0xA DUP1 SLOAD PUSH1 0x1 PUSH1 0x1 PUSH1 0xA0 SHL SUB DUP4 DUP2 AND PUSH1 0x1 PUSH1 0x1 PUSH1 0xA0 SHL SUB NOT DUP4 AND DUP2 OR SWAP1 SWAP4 SSTORE PUSH1 0x40 MLOAD SWAP2 AND SWAP2 SWAP1 DUP3 SWAP1 PUSH32 0x8BE0079C531659141344CD1FD0A4F28419497F9722A3DAAFE3B4186F6B6457E0 SWAP1 PUSH1 0x0 SWAP1 LOG3 POP POP JUMP JUMPDEST PUSH3 0x12A PUSH3 0x16A JUMP JUMPDEST PUSH1 0x1 PUSH1 0x1 PUSH1 0xA0 SHL SUB DUP2 AND PUSH3 0x15C JUMPI PUSH1 0x40 MLOAD PUSH3 0x461BCD PUSH1 0xE5 SHL DUP2 MSTORE PUSH1 0x4 ADD PUSH3 0x153 SWAP1 PUSH3 0x55C JUMP JUMPDEST PUSH1 0x40 MLOAD DUP1 SWAP2 SUB SWAP1 REVERT JUMPDEST PUSH3 0x167 DUP2 PUSH3 0xCE JUMP JUMPDEST POP JUMP JUMPDEST PUSH1 0xA SLOAD PUSH1 0x1 PUSH1 0x1 PUSH1 0xA0 SHL SUB AND CALLER EQ PUSH3 0x197 JUMPI PUSH1 0x40 MLOAD PUSH3 0x461BCD PUSH1 0xE5 SHL DUP2 MSTORE PUSH1 0x4 ADD PUSH3 0x153 SWAP1 PUSH3 0x5A7 JUMP JUMPDEST JUMP JUMPDEST PUSH4 0x4E487B71 PUSH1 0xE0 SHL PUSH1 0x0 MSTORE PUSH1 0x41 PUSH1 0x4 MSTORE PUSH1 0x24 PUSH1 0x0 REVERT JUMPDEST PUSH1 0x1F NOT PUSH1 0x1F DUP4 ADD AND DUP2 ADD DUP2 DUP2 LT PUSH1 0x1 PUSH1 0x1 PUSH1 0x40 SHL SUB DUP3 GT OR ISZERO PUSH3 0x1D7 JUMPI PUSH3 0x1D7 PUSH3 0x199 JUMP JUMPDEST PUSH1 0x40 MSTORE POP POP JUMP JUMPDEST PUSH1 0x0 PUSH3 0x1EA PUSH1 0x40 MLOAD SWAP1 JUMP JUMPDEST SWAP1 POP PUSH3 0x1F8 DUP3 DUP3 PUSH3 0x1AF JUMP JUMPDEST SWAP2 SWAP1 POP JUMP JUMPDEST PUSH1 0x0 PUSH1 0x1 PUSH1 0x1 PUSH1 0x40 SHL SUB DUP3 GT ISZERO PUSH3 0x219 JUMPI PUSH3 0x219 PUSH3 0x199 JUMP JUMPDEST PUSH1 0x1F NOT PUSH1 0x1F DUP4 ADD AND PUSH1 0x20 ADD SWAP3 SWAP2 POP POP JUMP JUMPDEST PUSH1 0x0 JUMPDEST DUP4 DUP2 LT ISZERO PUSH3 0x247 JUMPI DUP2 DUP2 ADD MLOAD DUP4 DUP3 ADD MSTORE PUSH1 0x20 ADD PUSH3 0x22D JUMP JUMPDEST POP POP PUSH1 0x0 SWAP2 ADD MSTORE JUMP JUMPDEST PUSH1 0x0 PUSH3 0x267 PUSH3 0x261 DUP5 PUSH3 0x1FD JUMP JUMPDEST PUSH3 0x1DE JUMP JUMPDEST SWAP1 POP DUP3 DUP2 MSTORE PUSH1 0x20 DUP2 ADD DUP5 DUP5 DUP5 ADD GT ISZERO PUSH3 0x284 JUMPI PUSH3 0x284 PUSH1 0x0 DUP1 REVERT JUMPDEST PUSH3 0x291 DUP5 DUP3 DUP6 PUSH3 0x22A JUMP JUMPDEST POP SWAP4 SWAP3 POP POP POP JUMP JUMPDEST PUSH1 0x0 DUP3 PUSH1 0x1F DUP4 ADD SLT PUSH3 0x2AF JUMPI PUSH3 0x2AF PUSH1 0x0 DUP1 REVERT JUMPDEST DUP2 MLOAD PUSH3 0x2C1 DUP5 DUP3 PUSH1 0x20 DUP7 ADD PUSH3 0x250 JUMP JUMPDEST SWAP5 SWAP4 POP POP POP POP JUMP JUMPDEST PUSH1 0x0 PUSH1 0x1 PUSH1 0x1 PUSH1 0xA0 SHL SUB DUP3 AND JUMPDEST SWAP3 SWAP2 POP POP JUMP JUMPDEST PUSH3 0x2E7 DUP2 PUSH3 0x2C9 JUMP JUMPDEST DUP2 EQ PUSH3 0x167 JUMPI PUSH1 0x0 DUP1 REVERT JUMPDEST DUP1 MLOAD PUSH3 0x2D6 DUP2 PUSH3 0x2DC JUMP JUMPDEST PUSH1 0x0 DUP1 PUSH1 0x0 PUSH1 0x60 DUP5 DUP7 SUB SLT ISZERO PUSH3 0x31A JUMPI PUSH3 0x31A PUSH1 0x0 DUP1 REVERT JUMPDEST DUP4 MLOAD PUSH1 0x1 PUSH1 0x1 PUSH1 0x40 SHL SUB DUP2 GT ISZERO PUSH3 0x335 JUMPI PUSH3 0x335 PUSH1 0x0 DUP1 REVERT JUMPDEST PUSH3 0x343 DUP7 DUP3 DUP8 ADD PUSH3 0x299 JUMP JUMPDEST SWAP4 POP POP PUSH1 0x20 DUP5 ADD MLOAD PUSH1 0x1 PUSH1 0x1 PUSH1 0x40 SHL SUB DUP2 GT ISZERO PUSH3 0x364 JUMPI PUSH3 0x364 PUSH1 0x0 DUP1 REVERT JUMPDEST PUSH3 0x372 DUP7 DUP3 DUP8 ADD PUSH3 0x299 JUMP JUMPDEST SWAP3 POP POP PUSH1 0x40 PUSH3 0x385 DUP7 DUP3 DUP8 ADD PUSH3 0x2F3 JUMP JUMPDEST SWAP2 POP POP SWAP3 POP SWAP3 POP SWAP3 JUMP JUMPDEST PUSH4 0x4E487B71 PUSH1 0xE0 SHL PUSH1 0x0 MSTORE PUSH1 0x22 PUSH1 0x4 MSTORE PUSH1 0x24 PUSH1 0x0 REVERT JUMPDEST PUSH1 0x2 DUP2 DIV PUSH1 0x1 DUP3 AND DUP1 PUSH3 0x3BA JUMPI PUSH1 0x7F DUP3 AND SWAP2 POP JUMPDEST PUSH1 0x20 DUP3 LT DUP2 SUB PUSH3 0x3CF JUMPI PUSH3 0x3CF PUSH3 0x38F JUMP JUMPDEST POP SWAP2 SWAP1 POP JUMP JUMPDEST PUSH1 0x0 PUSH3 0x2D6 PUSH3 0x3E3 DUP4 DUP2 JUMP JUMPDEST SWAP1 JUMP JUMPDEST PUSH3 0x3F1 DUP4 PUSH3 0x3D5 JUMP JUMPDEST DUP2 SLOAD PUSH1 0x8 DUP5 MUL DUP3 DUP2 SHL PUSH1 0x0 NOT SWAP1 SWAP2 SHL SWAP1 DUP2 AND SWAP1 NOT SWAP1 SWAP2 AND OR DUP3 SSTORE POP POP POP POP JUMP JUMPDEST PUSH1 0x0 PUSH3 0x420 DUP2 DUP5 DUP5 PUSH3 0x3E6 JUMP JUMPDEST POP POP POP JUMP JUMPDEST DUP2 DUP2 LT ISZERO PUSH3 0x444 JUMPI PUSH3 0x43B PUSH1 0x0 DUP3 PUSH3 0x411 JUMP JUMPDEST PUSH1 0x1 ADD PUSH3 0x425 JUMP JUMPDEST POP POP JUMP JUMPDEST PUSH1 0x1F DUP3 GT ISZERO PUSH3 0x420 JUMPI PUSH1 0x0 DUP2 DUP2 MSTORE PUSH1 0x20 SWAP1 KECCAK256 PUSH1 0x20 PUSH1 0x1F DUP6 ADD DIV DUP2 ADD PUSH1 0x20 DUP6 LT ISZERO PUSH3 0x471 JUMPI POP DUP1 JUMPDEST PUSH3 0x485 PUSH1 0x20 PUSH1 0x1F DUP7 ADD DIV DUP4 ADD DUP3 PUSH3 0x425 JUMP JUMPDEST POP POP POP POP POP JUMP JUMPDEST DUP2 MLOAD PUSH1 0x1 PUSH1 0x1 PUSH1 0x40 SHL SUB DUP2 GT ISZERO PUSH3 0x4A8 JUMPI PUSH3 0x4A8 PUSH3 0x199 JUMP JUMPDEST PUSH3 0x4B4 DUP3 SLOAD PUSH3 0x3A5 JUMP JUMPDEST PUSH3 0x4C1 DUP3 DUP3 DUP6 PUSH3 0x448 JUMP JUMPDEST PUSH1 0x20 PUSH1 0x1F DUP4 GT PUSH1 0x1 DUP2 EQ PUSH3 0x4F8 JUMPI PUSH1 0x0 DUP5 ISZERO PUSH3 0x4DF JUMPI POP DUP6 DUP3 ADD MLOAD JUMPDEST PUSH1 0x0 NOT PUSH1 0x8 DUP7 MUL SHR NOT DUP2 AND PUSH1 0x2 DUP7 MUL OR DUP7 SSTORE POP PUSH3 0x554 JUMP JUMPDEST PUSH1 0x0 DUP6 DUP2 MSTORE PUSH1 0x20 DUP2 KECCAK256 PUSH1 0x1F NOT DUP7 AND SWAP2 JUMPDEST DUP3 DUP2 LT ISZERO PUSH3 0x52A JUMPI DUP9 DUP6 ADD MLOAD DUP3 SSTORE PUSH1 0x20 SWAP5 DUP6 ADD SWAP5 PUSH1 0x1 SWAP1 SWAP3 ADD SWAP2 ADD PUSH3 0x508 JUMP JUMPDEST DUP7 DUP4 LT ISZERO PUSH3 0x547 JUMPI DUP5 DUP10 ADD MLOAD PUSH1 0x0 NOT PUSH1 0x1F DUP10 AND PUSH1 0x8 MUL SHR NOT AND DUP3 SSTORE JUMPDEST PUSH1 0x1 PUSH1 0x2 DUP9 MUL ADD DUP9 SSTORE POP POP POP JUMPDEST POP POP POP POP POP POP JUMP JUMPDEST PUSH1 0x20 DUP1 DUP3 MSTORE DUP2 ADD PUSH3 0x2D6 DUP2 PUSH1 0x26 DUP2 MSTORE PUSH32 0x4F776E61626C653A206E6577206F776E657220697320746865207A65726F2061 PUSH1 0x20 DUP3 ADD MSTORE PUSH6 0x646472657373 PUSH1 0xD0 SHL PUSH1 0x40 DUP3 ADD MSTORE PUSH1 0x60 ADD SWAP1 JUMP JUMPDEST PUSH1 0x20 DUP1 DUP3 MSTORE DUP2 DUP2 ADD SWAP1 DUP2 MSTORE PUSH32 0x4F776E61626C653A2063616C6C6572206973206E6F7420746865206F776E6572 PUSH1 0x40 DUP4 ADD MSTORE PUSH1 0x60 DUP3 ADD PUSH3 0x2D6 JUMP JUMPDEST PUSH2 0x29F5 DUP1 PUSH3 0x5F2 PUSH1 0x0 CODECOPY PUSH1 0x0 RETURN INVALID PUSH1 0x80 PUSH1 0x40 MSTORE PUSH1 0x4 CALLDATASIZE LT PUSH2 0x1CD JUMPI PUSH1 0x0 CALLDATALOAD PUSH1 0xE0 SHR DUP1 PUSH4 0x715018A6 GT PUSH2 0xF7 JUMPI DUP1 PUSH4 0xA2B40D19 GT PUSH2 0x95 JUMPI DUP1 PUSH4 0xD3BFE077 GT PUSH2 0x64 JUMPI DUP1 PUSH4 0xD3BFE077 EQ PUSH2 0x4DF JUMPI DUP1 PUSH4 0xE8D62750 EQ PUSH2 0x50C JUMPI DUP1 PUSH4 0xE985E9C5 EQ PUSH2 0x52F JUMPI DUP1 PUSH4 0xF2FDE38B EQ PUSH2 0x578 JUMPI PUSH1 0x0 DUP1 REVERT JUMPDEST DUP1 PUSH4 0xA2B40D19 EQ PUSH2 0x46A JUMPI DUP1 PUSH4 0xB33712C5 EQ PUSH2 0x48A JUMPI DUP1 PUSH4 0xB88D4FDE EQ PUSH2 0x49F JUMPI DUP1 PUSH4 0xC87B56DD EQ PUSH2 0x4BF JUMPI PUSH1 0x0 DUP1 REVERT JUMPDEST DUP1 PUSH4 0x95D89B41 GT PUSH2 0xD1 JUMPI DUP1 PUSH4 0x95D89B41 EQ PUSH2 0x40C JUMPI DUP1 PUSH4 0xA035B1FE EQ PUSH2 0x421 JUMPI DUP1 PUSH4 0xA0712D68 EQ PUSH2 0x437 JUMPI DUP1 PUSH4 0xA22CB465 EQ PUSH2 0x44A JUMPI PUSH1 0x0 DUP1 REVERT JUMPDEST DUP1 PUSH4 0x715018A6 EQ PUSH2 0x3A7 JUMPI DUP1 PUSH4 0x8A67456A EQ PUSH2 0x3BC JUMPI DUP1 PUSH4 0x8DA5CB5B EQ PUSH2 0x3EE JUMPI PUSH1 0x0 DUP1 REVERT JUMPDEST DUP1 PUSH4 0x35001A1A GT PUSH2 0x16F JUMPI DUP1 PUSH4 0x439766CE GT PUSH2 0x13E JUMPI DUP1 PUSH4 0x439766CE EQ PUSH2 0x332 JUMPI DUP1 PUSH4 0x4F6CCCE7 EQ PUSH2 0x347 JUMPI DUP1 PUSH4 0x6352211E EQ PUSH2 0x367 JUMPI DUP1 PUSH4 0x70A08231 EQ PUSH2 0x387 JUMPI PUSH1 0x0 DUP1 REVERT JUMPDEST DUP1 PUSH4 0x35001A1A EQ PUSH2 0x2D7 JUMPI DUP1 PUSH4 0x3CCFD60B EQ PUSH2 0x2F7 JUMPI DUP1 PUSH4 0x40C10F19 EQ PUSH2 0x2FF JUMPI DUP1 PUSH4 0x42842E0E EQ PUSH2 0x312 JUMPI PUSH1 0x0 DUP1 REVERT JUMPDEST DUP1 PUSH4 0x95EA7B3 GT PUSH2 0x1AB JUMPI DUP1 PUSH4 0x95EA7B3 EQ PUSH2 0x257 JUMPI DUP1 PUSH4 0x18160DDD EQ PUSH2 0x279 JUMPI DUP1 PUSH4 0x23B872DD EQ PUSH2 0x297 JUMPI DUP1 PUSH4 0x2F745C59 EQ PUSH2 0x2B7 JUMPI PUSH1 0x0 DUP1 REVERT JUMPDEST DUP1 PUSH4 0x1FFC9A7 EQ PUSH2 0x1D2 JUMPI DUP1 PUSH4 0x6FDDE03 EQ PUSH2 0x208 JUMPI DUP1 PUSH4 0x81812FC EQ PUSH2 0x22A JUMPI JUMPDEST PUSH1 0x0 DUP1 REVERT JUMPDEST CALLVALUE DUP1 ISZERO PUSH2 0x1DE JUMPI PUSH1 0x0 DUP1 REVERT JUMPDEST POP PUSH2 0x1F2 PUSH2 0x1ED CALLDATASIZE PUSH1 0x4 PUSH2 0x1BC2 JUMP JUMPDEST PUSH2 0x598 JUMP JUMPDEST PUSH1 0x40 MLOAD PUSH2 0x1FF SWAP2 SWAP1 PUSH2 0x1BED JUMP JUMPDEST PUSH1 0x40 MLOAD DUP1 SWAP2 SUB SWAP1 RETURN JUMPDEST CALLVALUE DUP1 ISZERO PUSH2 0x214 JUMPI PUSH1 0x0 DUP1 REVERT JUMPDEST POP PUSH2 0x21D PUSH2 0x5A9 JUMP JUMPDEST PUSH1 0x40 MLOAD PUSH2 0x1FF SWAP2 SWAP1 PUSH2 0x1C51 JUMP JUMPDEST CALLVALUE DUP1 ISZERO PUSH2 0x236 JUMPI PUSH1 0x0 DUP1 REVERT JUMPDEST POP PUSH2 0x24A PUSH2 0x245 CALLDATASIZE PUSH1 0x4 PUSH2 0x1C73 JUMP JUMPDEST PUSH2 0x63B JUMP JUMPDEST PUSH1 0x40 MLOAD PUSH2 0x1FF SWAP2 SWAP1 PUSH2 0x1CAE JUMP JUMPDEST CALLVALUE DUP1 ISZERO PUSH2 0x263 JUMPI PUSH1 0x0 DUP1 REVERT JUMPDEST POP PUSH2 0x277 PUSH2 0x272 CALLDATASIZE PUSH1 0x4 PUSH2 0x1CD0 JUMP JUMPDEST PUSH2 0x662 JUMP JUMPDEST STOP JUMPDEST CALLVALUE DUP1 ISZERO PUSH2 0x285 JUMPI PUSH1 0x0 DUP1 REVERT JUMPDEST POP PUSH1 0x8 SLOAD JUMPDEST PUSH1 0x40 MLOAD PUSH2 0x1FF SWAP2 SWAP1 PUSH2 0x1D13 JUMP JUMPDEST CALLVALUE DUP1 ISZERO PUSH2 0x2A3 JUMPI PUSH1 0x0 DUP1 REVERT JUMPDEST POP PUSH2 0x277 PUSH2 0x2B2 CALLDATASIZE PUSH1 0x4 PUSH2 0x1D21 JUMP JUMPDEST PUSH2 0x6F0 JUMP JUMPDEST CALLVALUE DUP1 ISZERO PUSH2 0x2C3 JUMPI PUSH1 0x0 DUP1 REVERT JUMPDEST POP PUSH2 0x28A PUSH2 0x2D2 CALLDATASIZE PUSH1 0x4 PUSH2 0x1CD0 JUMP JUMPDEST PUSH2 0x721 JUMP JUMPDEST CALLVALUE DUP1 ISZERO PUSH2 0x2E3 JUMPI PUSH1 0x0 DUP1 REVERT JUMPDEST POP PUSH2 0x277 PUSH2 0x2F2 CALLDATASIZE PUSH1 0x4 PUSH2 0x1CD0 JUMP JUMPDEST PUSH2 0x773 JUMP JUMPDEST PUSH2 0x277 PUSH2 0x830 JUMP JUMPDEST PUSH2 0x277 PUSH2 0x30D CALLDATASIZE PUSH1 0x4 PUSH2 0x1CD0 JUMP JUMPDEST PUSH2 0x89B JUMP JUMPDEST CALLVALUE DUP1 ISZERO PUSH2 0x31E JUMPI PUSH1 0x0 DUP1 REVERT JUMPDEST POP PUSH2 0x277 PUSH2 0x32D CALLDATASIZE PUSH1 0x4 PUSH2 0x1D21 JUMP JUMPDEST PUSH2 0x97A JUMP JUMPDEST CALLVALUE DUP1 ISZERO PUSH2 0x33E JUMPI PUSH1 0x0 DUP1 REVERT JUMPDEST POP PUSH2 0x277 PUSH2 0x995 JUMP JUMPDEST CALLVALUE DUP1 ISZERO PUSH2 0x353 JUMPI PUSH1 0x0 DUP1 REVERT JUMPDEST POP PUSH2 0x28A PUSH2 0x362 CALLDATASIZE PUSH1 0x4 PUSH2 0x1C73 JUMP JUMPDEST PUSH2 0x9DE JUMP JUMPDEST CALLVALUE DUP1 ISZERO PUSH2 0x373 JUMPI PUSH1 0x0 DUP1 REVERT JUMPDEST POP PUSH2 0x24A PUSH2 0x382 CALLDATASIZE PUSH1 0x4 PUSH2 0x1C73 JUMP JUMPDEST PUSH2 0xA2C JUMP JUMPDEST CALLVALUE DUP1 ISZERO PUSH2 0x393 JUMPI PUSH1 0x0 DUP1 REVERT JUMPDEST POP PUSH2 0x28A PUSH2 0x3A2 CALLDATASIZE PUSH1 0x4 PUSH2 0x1D71 JUMP JUMPDEST PUSH2 0xA61 JUMP JUMPDEST CALLVALUE DUP1 ISZERO PUSH2 0x3B3 JUMPI PUSH1 0x0 DUP1 REVERT JUMPDEST POP PUSH2 0x277 PUSH2 0xAA5 JUMP JUMPDEST CALLVALUE DUP1 ISZERO PUSH2 0x3C8 JUMPI PUSH1 0x0 DUP1 REVERT JUMPDEST POP PUSH1 0xA SLOAD PUSH2 0x1F2 SWAP1 PUSH21 0x10000000000000000000000000000000000000000 SWAP1 DIV PUSH1 0xFF AND DUP2 JUMP JUMPDEST CALLVALUE DUP1 ISZERO PUSH2 0x3FA JUMPI PUSH1 0x0 DUP1 REVERT JUMPDEST POP PUSH1 0xA SLOAD PUSH1 0x1 PUSH1 0x1 PUSH1 0xA0 SHL SUB AND PUSH2 0x24A JUMP JUMPDEST CALLVALUE DUP1 ISZERO PUSH2 0x418 JUMPI PUSH1 0x0 DUP1 REVERT JUMPDEST POP PUSH2 0x21D PUSH2 0xAB9 JUMP JUMPDEST CALLVALUE DUP1 ISZERO PUSH2 0x42D JUMPI PUSH1 0x0 DUP1 REVERT JUMPDEST POP PUSH2 0x28A PUSH1 0xD SLOAD DUP2 JUMP JUMPDEST PUSH2 0x277 PUSH2 0x445 CALLDATASIZE PUSH1 0x4 PUSH2 0x1C73 JUMP JUMPDEST PUSH2 0xAC8 JUMP JUMPDEST CALLVALUE DUP1 ISZERO PUSH2 0x456 JUMPI PUSH1 0x0 DUP1 REVERT JUMPDEST POP PUSH2 0x277 PUSH2 0x465 CALLDATASIZE PUSH1 0x4 PUSH2 0x1DA5 JUMP JUMPDEST PUSH2 0xBA7 JUMP JUMPDEST CALLVALUE DUP1 ISZERO PUSH2 0x476 JUMPI PUSH1 0x0 DUP1 REVERT JUMPDEST POP PUSH2 0x277 PUSH2 0x485 CALLDATASIZE PUSH1 0x4 PUSH2 0x1C73 JUMP JUMPDEST PUSH2 0xBB6 JUMP JUMPDEST CALLVALUE DUP1 ISZERO PUSH2 0x496 JUMPI PUSH1 0x0 DUP1 REVERT JUMPDEST POP PUSH2 0x277 PUSH2 0xBC3 JUMP JUMPDEST CALLVALUE DUP1 ISZERO PUSH2 0x4AB JUMPI PUSH1 0x0 DUP1 REVERT JUMPDEST POP PUSH2 0x277 PUSH2 0x4BA CALLDATASIZE PUSH1 0x4 PUSH2 0x1EE4 JUMP JUMPDEST PUSH2 0xBF5 JUMP JUMPDEST CALLVALUE DUP1 ISZERO PUSH2 0x4CB JUMPI PUSH1 0x0 DUP1 REVERT JUMPDEST POP PUSH2 0x21D PUSH2 0x4DA CALLDATASIZE PUSH1 0x4 PUSH2 0x1C73 JUMP JUMPDEST PUSH2 0xC27 JUMP JUMPDEST CALLVALUE DUP1 ISZERO PUSH2 0x4EB JUMPI PUSH1 0x0 DUP1 REVERT JUMPDEST POP PUSH2 0x4FF PUSH2 0x4FA CALLDATASIZE PUSH1 0x4 PUSH2 0x1D71 JUMP JUMPDEST PUSH2 0xCBA JUMP JUMPDEST PUSH1 0x40 MLOAD PUSH2 0x1FF SWAP2 SWAP1 PUSH2 0x1FC0 JUMP JUMPDEST CALLVALUE DUP1 ISZERO PUSH2 0x518 JUMPI PUSH1 0x0 DUP1 REVERT JUMPDEST POP PUSH2 0x521 PUSH2 0xD7C JUMP JUMPDEST PUSH1 0x40 MLOAD PUSH2 0x1FF SWAP3 SWAP2 SWAP1 PUSH2 0x201B JUMP JUMPDEST CALLVALUE DUP1 ISZERO PUSH2 0x53B JUMPI PUSH1 0x0 DUP1 REVERT JUMPDEST POP PUSH2 0x1F2 PUSH2 0x54A CALLDATASIZE PUSH1 0x4 PUSH2 0x2040 JUMP JUMPDEST PUSH1 0x1 PUSH1 0x1 PUSH1 0xA0 SHL SUB SWAP2 DUP3 AND PUSH1 0x0 SWAP1 DUP2 MSTORE PUSH1 0x5 PUSH1 0x20 SWAP1 DUP2 MSTORE PUSH1 0x40 DUP1 DUP4 KECCAK256 SWAP4 SWAP1 SWAP5 AND DUP3 MSTORE SWAP2 SWAP1 SWAP2 MSTORE KECCAK256 SLOAD PUSH1 0xFF AND SWAP1 JUMP JUMPDEST CALLVALUE DUP1 ISZERO PUSH2 0x584 JUMPI PUSH1 0x0 DUP1 REVERT JUMPDEST POP PUSH2 0x277 PUSH2 0x593 CALLDATASIZE PUSH1 0x4 PUSH2 0x1D71 JUMP JUMPDEST PUSH2 0xEA8 JUMP JUMPDEST PUSH1 0x0 PUSH2 0x5A3 DUP3 PUSH2 0xEE2 JUMP JUMPDEST SWAP3 SWAP2 POP POP JUMP JUMPDEST PUSH1 0x60 PUSH1 0x0 DUP1 SLOAD PUSH2 0x5B8 SWAP1 PUSH2 0x20A2 JUMP JUMPDEST DUP1 PUSH1 0x1F ADD PUSH1 0x20 DUP1 SWAP2 DIV MUL PUSH1 0x20 ADD PUSH1 0x40 MLOAD SWAP1 DUP2 ADD PUSH1 0x40 MSTORE DUP1 SWAP3 SWAP2 SWAP1 DUP2 DUP2 MSTORE PUSH1 0x20 ADD DUP3 DUP1 SLOAD PUSH2 0x5E4 SWAP1 PUSH2 0x20A2 JUMP JUMPDEST DUP1 ISZERO PUSH2 0x631 JUMPI DUP1 PUSH1 0x1F LT PUSH2 0x606 JUMPI PUSH2 0x100 DUP1 DUP4 SLOAD DIV MUL DUP4 MSTORE SWAP2 PUSH1 0x20 ADD SWAP2 PUSH2 0x631 JUMP JUMPDEST DUP3 ADD SWAP2 SWAP1 PUSH1 0x0 MSTORE PUSH1 0x20 PUSH1 0x0 KECCAK256 SWAP1 JUMPDEST DUP2 SLOAD DUP2 MSTORE SWAP1 PUSH1 0x1 ADD SWAP1 PUSH1 0x20 ADD DUP1 DUP4 GT PUSH2 0x614 JUMPI DUP3 SWAP1 SUB PUSH1 0x1F AND DUP3 ADD SWAP2 JUMPDEST POP POP POP POP POP SWAP1 POP SWAP1 JUMP JUMPDEST PUSH1 0x0 PUSH2 0x646 DUP3 PUSH2 0xF38 JUMP JUMPDEST POP PUSH1 0x0 SWAP1 DUP2 MSTORE PUSH1 0x4 PUSH1 0x20 MSTORE PUSH1 0x40 SWAP1 KECCAK256 SLOAD PUSH1 0x1 PUSH1 0x1 PUSH1 0xA0 SHL SUB AND SWAP1 JUMP JUMPDEST PUSH1 0x0 PUSH2 0x66D DUP3 PUSH2 0xA2C JUMP JUMPDEST SWAP1 POP DUP1 PUSH1 0x1 PUSH1 0x1 PUSH1 0xA0 SHL SUB AND DUP4 PUSH1 0x1 PUSH1 0x1 PUSH1 0xA0 SHL SUB AND SUB PUSH2 0x6A9 JUMPI PUSH1 0x40 MLOAD PUSH3 0x461BCD PUSH1 0xE5 SHL DUP2 MSTORE PUSH1 0x4 ADD PUSH2 0x6A0 SWAP1 PUSH2 0x2125 JUMP JUMPDEST PUSH1 0x40 MLOAD DUP1 SWAP2 SUB SWAP1 REVERT JUMPDEST CALLER PUSH1 0x1 PUSH1 0x1 PUSH1 0xA0 SHL SUB DUP3 AND EQ DUP1 PUSH2 0x6C5 JUMPI POP PUSH2 0x6C5 DUP2 CALLER PUSH2 0x54A JUMP JUMPDEST PUSH2 0x6E1 JUMPI PUSH1 0x40 MLOAD PUSH3 0x461BCD PUSH1 0xE5 SHL DUP2 MSTORE PUSH1 0x4 ADD PUSH2 0x6A0 SWAP1 PUSH2 0x218F JUMP JUMPDEST PUSH2 0x6EB DUP4 DUP4 PUSH2 0xF6C JUMP JUMPDEST POP POP POP JUMP JUMPDEST PUSH2 0x6FA CALLER DUP3 PUSH2 0xFF2 JUMP JUMPDEST PUSH2 0x716 JUMPI PUSH1 0x40 MLOAD PUSH3 0x461BCD PUSH1 0xE5 SHL DUP2 MSTORE PUSH1 0x4 ADD PUSH2 0x6A0 SWAP1 PUSH2 0x21F9 JUMP JUMPDEST PUSH2 0x6EB DUP4 DUP4 DUP4 PUSH2 0x1071 JUMP JUMPDEST PUSH1 0x0 PUSH2 0x72C DUP4 PUSH2 0xA61 JUMP JUMPDEST DUP3 LT PUSH2 0x74A JUMPI PUSH1 0x40 MLOAD PUSH3 0x461BCD PUSH1 0xE5 SHL DUP2 MSTORE PUSH1 0x4 ADD PUSH2 0x6A0 SWAP1 PUSH2 0x2263 JUMP JUMPDEST POP PUSH1 0x1 PUSH1 0x1 PUSH1 0xA0 SHL SUB SWAP2 SWAP1 SWAP2 AND PUSH1 0x0 SWAP1 DUP2 MSTORE PUSH1 0x6 PUSH1 0x20 SWAP1 DUP2 MSTORE PUSH1 0x40 DUP1 DUP4 KECCAK256 SWAP4 DUP4 MSTORE SWAP3 SWAP1 MSTORE KECCAK256 SLOAD SWAP1 JUMP JUMPDEST PUSH1 0xA SLOAD PUSH21 0x10000000000000000000000000000000000000000 SWAP1 DIV PUSH1 0xFF AND ISZERO PUSH2 0x7AE JUMPI PUSH1 0x40 MLOAD PUSH3 0x461BCD PUSH1 0xE5 SHL DUP2 MSTORE PUSH1 0x4 ADD PUSH2 0x6A0 SWAP1 PUSH2 0x22AA JUMP JUMPDEST PUSH1 0xC SLOAD DUP2 PUSH2 0x7BB PUSH1 0x8 SLOAD SWAP1 JUMP JUMPDEST PUSH2 0x7C5 SWAP2 SWAP1 PUSH2 0x22E9 JUMP JUMPDEST GT ISZERO PUSH2 0x7E3 JUMPI PUSH1 0x40 MLOAD PUSH3 0x461BCD PUSH1 0xE5 SHL DUP2 MSTORE PUSH1 0x4 ADD PUSH2 0x6A0 SWAP1 PUSH2 0x2330 JUMP JUMPDEST PUSH1 0x0 PUSH2 0x7EE PUSH1 0x8 SLOAD SWAP1 JUMP JUMPDEST SWAP1 POP PUSH1 0x1 JUMPDEST PUSH2 0x7FE DUP4 PUSH1 0x1 PUSH2 0x22E9 JUMP JUMPDEST DUP2 LT ISZERO PUSH2 0x82A JUMPI PUSH2 0x818 DUP5 PUSH2 0x813 DUP4 DUP6 PUSH2 0x22E9 JUMP JUMPDEST PUSH2 0x11BE JUMP JUMPDEST DUP1 PUSH2 0x822 DUP2 PUSH2 0x2340 JUMP JUMPDEST SWAP2 POP POP PUSH2 0x7F3 JUMP JUMPDEST POP POP POP POP JUMP JUMPDEST PUSH2 0x838 PUSH2 0x11D8 JUMP JUMPDEST PUSH1 0x40 MLOAD SELFBALANCE SWAP1 CALLER SWAP1 DUP3 ISZERO PUSH2 0x8FC MUL SWAP1 DUP4 SWAP1 PUSH1 0x0 DUP2 DUP2 DUP2 DUP6 DUP9 DUP9 CALL SWAP4 POP POP POP POP PUSH2 0x85F JUMPI PUSH1 0x0 DUP1 REVERT JUMPDEST PUSH32 0x8353FFCAC0876AD14E226D9783C04540BFEBF13871E868157D2A391CAD98E918 DUP2 CALLER PUSH1 0x40 MLOAD PUSH2 0x890 SWAP3 SWAP2 SWAP1 PUSH2 0x235A JUMP JUMPDEST PUSH1 0x40 MLOAD DUP1 SWAP2 SUB SWAP1 LOG1 POP JUMP JUMPDEST PUSH1 0xA SLOAD PUSH21 0x10000000000000000000000000000000000000000 SWAP1 DIV PUSH1 0xFF AND ISZERO PUSH2 0x8D6 JUMPI PUSH1 0x40 MLOAD PUSH3 0x461BCD PUSH1 0xE5 SHL DUP2 MSTORE PUSH1 0x4 ADD PUSH2 0x6A0 SWAP1 PUSH2 0x22AA JUMP JUMPDEST PUSH1 0xC SLOAD DUP2 PUSH2 0x8E3 PUSH1 0x8 SLOAD SWAP1 JUMP JUMPDEST PUSH2 0x8ED SWAP2 SWAP1 PUSH2 0x22E9 JUMP JUMPDEST GT ISZERO PUSH2 0x90B JUMPI PUSH1 0x40 MLOAD PUSH3 0x461BCD PUSH1 0xE5 SHL DUP2 MSTORE PUSH1 0x4 ADD PUSH2 0x6A0 SWAP1 PUSH2 0x2330 JUMP JUMPDEST DUP1 PUSH1 0xD SLOAD PUSH2 0x919 SWAP2 SWAP1 PUSH2 0x2375 JUMP JUMPDEST CALLVALUE LT ISZERO PUSH2 0x938 JUMPI PUSH1 0x40 MLOAD PUSH3 0x461BCD PUSH1 0xE5 SHL DUP2 MSTORE PUSH1 0x4 ADD PUSH2 0x6A0 SWAP1 PUSH2 0x23C6 JUMP JUMPDEST PUSH1 0x0 PUSH2 0x943 PUSH1 0x8 SLOAD SWAP1 JUMP JUMPDEST SWAP1 POP PUSH1 0x1 JUMPDEST PUSH2 0x953 DUP4 PUSH1 0x1 PUSH2 0x22E9 JUMP JUMPDEST DUP2 LT ISZERO PUSH2 0x82A JUMPI PUSH2 0x968 DUP5 PUSH2 0x813 DUP4 DUP6 PUSH2 0x22E9 JUMP JUMPDEST DUP1 PUSH2 0x972 DUP2 PUSH2 0x2340 JUMP JUMPDEST SWAP2 POP POP PUSH2 0x948 JUMP JUMPDEST PUSH2 0x6EB DUP4 DUP4 DUP4 PUSH1 0x40 MLOAD DUP1 PUSH1 0x20 ADD PUSH1 0x40 MSTORE DUP1 PUSH1 0x0 DUP2 MSTORE POP PUSH2 0xBF5 JUMP JUMPDEST PUSH2 0x99D PUSH2 0x11D8 JUMP JUMPDEST PUSH1 0xA DUP1 SLOAD PUSH32 0xFFFFFFFFFFFFFFFFFFFFFF00FFFFFFFFFFFFFFFFFFFFFFFFFFFFFFFFFFFFFFFF AND PUSH21 0x10000000000000000000000000000000000000000 OR SWAP1 SSTORE JUMP JUMPDEST PUSH1 0x0 PUSH2 0x9E9 PUSH1 0x8 SLOAD SWAP1 JUMP JUMPDEST DUP3 LT PUSH2 0xA07 JUMPI PUSH1 0x40 MLOAD PUSH3 0x461BCD PUSH1 0xE5 SHL DUP2 MSTORE PUSH1 0x4 ADD PUSH2 0x6A0 SWAP1 PUSH2 0x2430 JUMP JUMPDEST PUSH1 0x8 DUP3 DUP2 SLOAD DUP2 LT PUSH2 0xA1A JUMPI PUSH2 0xA1A PUSH2 0x2440 JUMP JUMPDEST SWAP1 PUSH1 0x0 MSTORE PUSH1 0x20 PUSH1 0x0 KECCAK256 ADD SLOAD SWAP1 POP SWAP2 SWAP1 POP JUMP JUMPDEST PUSH1 0x0 DUP2 DUP2 MSTORE PUSH1 0x2 PUSH1 0x20 MSTORE PUSH1 0x40 DUP2 KECCAK256 SLOAD PUSH1 0x1 PUSH1 0x1 PUSH1 0xA0 SHL SUB AND DUP1 PUSH2 0x5A3 JUMPI PUSH1 0x40 MLOAD PUSH3 0x461BCD PUSH1 0xE5 SHL DUP2 MSTORE PUSH1 0x4 ADD PUSH2 0x6A0 SWAP1 PUSH2 0x24A3 JUMP JUMPDEST PUSH1 0x0 PUSH1 0x1 PUSH1 0x1 PUSH1 0xA0 SHL SUB DUP3 AND PUSH2 0xA89 JUMPI PUSH1 0x40 MLOAD PUSH3 0x461BCD PUSH1 0xE5 SHL DUP2 MSTORE PUSH1 0x4 ADD PUSH2 0x6A0 SWAP1 PUSH2 0x250D JUMP JUMPDEST POP PUSH1 0x1 PUSH1 0x1 PUSH1 0xA0 SHL SUB AND PUSH1 0x0 SWAP1 DUP2 MSTORE PUSH1 0x3 PUSH1 0x20 MSTORE PUSH1 0x40 SWAP1 KECCAK256 SLOAD SWAP1 JUMP JUMPDEST PUSH2 0xAAD PUSH2 0x11D8 JUMP JUMPDEST PUSH2 0xAB7 PUSH1 0x0 PUSH2 0x1202 JUMP JUMPDEST JUMP JUMPDEST PUSH1 0x60 PUSH1 0x1 DUP1 SLOAD PUSH2 0x5B8 SWAP1 PUSH2 0x20A2 JUMP JUMPDEST PUSH1 0xA SLOAD PUSH21 0x10000000000000000000000000000000000000000 SWAP1 DIV PUSH1 0xFF AND ISZERO PUSH2 0xB03 JUMPI PUSH1 0x40 MLOAD PUSH3 0x461BCD PUSH1 0xE5 SHL DUP2 MSTORE PUSH1 0x4 ADD PUSH2 0x6A0 SWAP1 PUSH2 0x22AA JUMP JUMPDEST PUSH1 0xC SLOAD DUP2 PUSH2 0xB10 PUSH1 0x8 SLOAD SWAP1 JUMP JUMPDEST PUSH2 0xB1A SWAP2 SWAP1 PUSH2 0x22E9 JUMP JUMPDEST GT ISZERO PUSH2 0xB38 JUMPI PUSH1 0x40 MLOAD PUSH3 0x461BCD PUSH1 0xE5 SHL DUP2 MSTORE PUSH1 0x4 ADD PUSH2 0x6A0 SWAP1 PUSH2 0x2330 JUMP JUMPDEST DUP1 PUSH1 0xD SLOAD PUSH2 0xB46 SWAP2 SWAP1 PUSH2 0x2375 JUMP JUMPDEST CALLVALUE LT ISZERO PUSH2 0xB65 JUMPI PUSH1 0x40 MLOAD PUSH3 0x461BCD PUSH1 0xE5 SHL DUP2 MSTORE PUSH1 0x4 ADD PUSH2 0x6A0 SWAP1 PUSH2 0x23C6 JUMP JUMPDEST PUSH1 0x0 PUSH2 0xB70 PUSH1 0x8 SLOAD SWAP1 JUMP JUMPDEST SWAP1 POP PUSH1 0x1 JUMPDEST PUSH2 0xB80 DUP4 PUSH1 0x1 PUSH2 0x22E9 JUMP JUMPDEST DUP2 LT ISZERO PUSH2 0x6EB JUMPI PUSH2 0xB95 CALLER PUSH2 0x813 DUP4 DUP6 PUSH2 0x22E9 JUMP JUMPDEST DUP1 PUSH2 0xB9F DUP2 PUSH2 0x2340 JUMP JUMPDEST SWAP2 POP POP PUSH2 0xB75 JUMP JUMPDEST PUSH2 0xBB2 CALLER DUP4 DUP4 PUSH2 0x126C JUMP JUMPDEST POP POP JUMP JUMPDEST PUSH2 0xBBE PUSH2 0x11D8 JUMP JUMPDEST PUSH1 0xD SSTORE JUMP JUMPDEST PUSH2 0xBCB PUSH2 0x11D8 JUMP JUMPDEST PUSH1 0xA DUP1 SLOAD PUSH32 0xFFFFFFFFFFFFFFFFFFFFFF00FFFFFFFFFFFFFFFFFFFFFFFFFFFFFFFFFFFFFFFF AND SWAP1 SSTORE JUMP JUMPDEST PUSH2 0xBFF CALLER DUP4 PUSH2 0xFF2 JUMP JUMPDEST PUSH2 0xC1B JUMPI PUSH1 0x40 MLOAD PUSH3 0x461BCD PUSH1 0xE5 SHL DUP2 MSTORE PUSH1 0x4 ADD PUSH2 0x6A0 SWAP1 PUSH2 0x21F9 JUMP JUMPDEST PUSH2 0x82A DUP5 DUP5 DUP5 DUP5 PUSH2 0x132C JUMP JUMPDEST PUSH1 0x0 DUP2 DUP2 MSTORE PUSH1 0x2 PUSH1 0x20 MSTORE PUSH1 0x40 SWAP1 KECCAK256 SLOAD PUSH1 0x60 SWAP1 PUSH1 0x1 PUSH1 0x1 PUSH1 0xA0 SHL SUB AND PUSH2 0xC5E JUMPI PUSH1 0x40 MLOAD PUSH3 0x461BCD PUSH1 0xE5 SHL DUP2 MSTORE PUSH1 0x4 ADD PUSH2 0x6A0 SWAP1 PUSH2 0x2577 JUMP JUMPDEST PUSH1 0x0 PUSH2 0xC68 PUSH2 0x135F JUMP JUMPDEST SWAP1 POP PUSH1 0x0 DUP2 MLOAD GT PUSH2 0xC88 JUMPI PUSH1 0x40 MLOAD DUP1 PUSH1 0x20 ADD PUSH1 0x40 MSTORE DUP1 PUSH1 0x0 DUP2 MSTORE POP PUSH2 0xCB3 JUMP JUMPDEST DUP1 PUSH2 0xC92 DUP5 PUSH2 0x136E JUMP JUMPDEST PUSH1 0x40 MLOAD PUSH1 0x20 ADD PUSH2 0xCA3 SWAP3 SWAP2 SWAP1 PUSH2 0x25A9 JUMP JUMPDEST PUSH1 0x40 MLOAD PUSH1 0x20 DUP2 DUP4 SUB SUB DUP2 MSTORE SWAP1 PUSH1 0x40 MSTORE JUMPDEST SWAP4 SWAP3 POP POP POP JUMP JUMPDEST PUSH1 0x60 PUSH1 0x0 PUSH2 0xCC7 DUP4 PUSH2 0xA61 JUMP JUMPDEST SWAP1 POP DUP1 PUSH1 0x0 SUB PUSH2 0xCEB JUMPI PUSH1 0x40 DUP1 MLOAD PUSH1 0x0 DUP1 DUP3 MSTORE PUSH1 0x20 DUP3 ADD SWAP1 SWAP3 MSTORE SWAP1 JUMPDEST POP SWAP4 SWAP3 POP POP POP JUMP JUMPDEST PUSH1 0x0 DUP2 PUSH8 0xFFFFFFFFFFFFFFFF DUP2 GT ISZERO PUSH2 0xD06 JUMPI PUSH2 0xD06 PUSH2 0x1DD8 JUMP JUMPDEST PUSH1 0x40 MLOAD SWAP1 DUP1 DUP3 MSTORE DUP1 PUSH1 0x20 MUL PUSH1 0x20 ADD DUP3 ADD PUSH1 0x40 MSTORE DUP1 ISZERO PUSH2 0xD2F JUMPI DUP2 PUSH1 0x20 ADD PUSH1 0x20 DUP3 MUL DUP1 CALLDATASIZE DUP4 CALLDATACOPY ADD SWAP1 POP JUMPDEST POP SWAP1 POP PUSH1 0x0 JUMPDEST DUP3 DUP2 LT ISZERO PUSH2 0xCE3 JUMPI PUSH2 0xD47 DUP6 DUP3 PUSH2 0x721 JUMP JUMPDEST DUP3 DUP3 DUP2 MLOAD DUP2 LT PUSH2 0xD59 JUMPI PUSH2 0xD59 PUSH2 0x2440 JUMP JUMPDEST PUSH1 0x20 SWAP1 DUP2 MUL SWAP2 SWAP1 SWAP2 ADD ADD MSTORE DUP1 PUSH2 0xD6E DUP2 PUSH2 0x2340 JUMP JUMPDEST SWAP2 POP POP PUSH2 0xD35 JUMP JUMPDEST POP SWAP2 SWAP1 POP JUMP JUMPDEST PUSH1 0x60 DUP1 PUSH1 0x0 PUSH2 0xD8A PUSH1 0x8 SLOAD SWAP1 JUMP JUMPDEST SWAP1 POP PUSH1 0x0 DUP2 PUSH8 0xFFFFFFFFFFFFFFFF DUP2 GT ISZERO PUSH2 0xDA7 JUMPI PUSH2 0xDA7 PUSH2 0x1DD8 JUMP JUMPDEST PUSH1 0x40 MLOAD SWAP1 DUP1 DUP3 MSTORE DUP1 PUSH1 0x20 MUL PUSH1 0x20 ADD DUP3 ADD PUSH1 0x40 MSTORE DUP1 ISZERO PUSH2 0xDD0 JUMPI DUP2 PUSH1 0x20 ADD PUSH1 0x20 DUP3 MUL DUP1 CALLDATASIZE DUP4 CALLDATACOPY ADD SWAP1 POP JUMPDEST POP SWAP1 POP PUSH1 0x0 DUP3 PUSH8 0xFFFFFFFFFFFFFFFF DUP2 GT ISZERO PUSH2 0xDEE JUMPI PUSH2 0xDEE PUSH2 0x1DD8 JUMP JUMPDEST PUSH1 0x40 MLOAD SWAP1 DUP1 DUP3 MSTORE DUP1 PUSH1 0x20 MUL PUSH1 0x20 ADD DUP3 ADD PUSH1 0x40 MSTORE DUP1 ISZERO PUSH2 0xE17 JUMPI DUP2 PUSH1 0x20 ADD PUSH1 0x20 DUP3 MUL DUP1 CALLDATASIZE DUP4 CALLDATACOPY ADD SWAP1 POP JUMPDEST POP SWAP1 POP PUSH1 0x0 JUMPDEST DUP4 DUP2 LT ISZERO PUSH2 0xE9D JUMPI PUSH2 0xE33 PUSH2 0x382 DUP3 PUSH1 0x1 PUSH2 0x22E9 JUMP JUMPDEST DUP4 DUP3 DUP2 MLOAD DUP2 LT PUSH2 0xE45 JUMPI PUSH2 0xE45 PUSH2 0x2440 JUMP JUMPDEST PUSH1 0x20 MUL PUSH1 0x20 ADD ADD SWAP1 PUSH1 0x1 PUSH1 0x1 PUSH1 0xA0 SHL SUB AND SWAP1 DUP2 PUSH1 0x1 PUSH1 0x1 PUSH1 0xA0 SHL SUB AND DUP2 MSTORE POP POP PUSH2 0xE6E DUP2 PUSH2 0x9DE JUMP JUMPDEST DUP3 DUP3 DUP2 MLOAD DUP2 LT PUSH2 0xE80 JUMPI PUSH2 0xE80 PUSH2 0x2440 JUMP JUMPDEST PUSH1 0x20 SWAP1 DUP2 MUL SWAP2 SWAP1 SWAP2 ADD ADD MSTORE DUP1 PUSH2 0xE95 DUP2 PUSH2 0x2340 JUMP JUMPDEST SWAP2 POP POP PUSH2 0xE1D JUMP JUMPDEST POP SWAP1 SWAP5 SWAP1 SWAP4 POP SWAP2 POP POP JUMP JUMPDEST PUSH2 0xEB0 PUSH2 0x11D8 JUMP JUMPDEST PUSH1 0x1 PUSH1 0x1 PUSH1 0xA0 SHL SUB DUP2 AND PUSH2 0xED6 JUMPI PUSH1 0x40 MLOAD PUSH3 0x461BCD PUSH1 0xE5 SHL DUP2 MSTORE PUSH1 0x4 ADD PUSH2 0x6A0 SWAP1 PUSH2 0x2649 JUMP JUMPDEST PUSH2 0xEDF DUP2 PUSH2 0x1202 JUMP JUMPDEST POP JUMP JUMPDEST PUSH1 0x0 PUSH32 0xFFFFFFFF00000000000000000000000000000000000000000000000000000000 DUP3 AND PUSH32 0x780E9D6300000000000000000000000000000000000000000000000000000000 EQ DUP1 PUSH2 0x5A3 JUMPI POP PUSH2 0x5A3 DUP3 PUSH2 0x140E JUMP JUMPDEST PUSH1 0x0 DUP2 DUP2 MSTORE PUSH1 0x2 PUSH1 0x20 MSTORE PUSH1 0x40 SWAP1 KECCAK256 SLOAD PUSH1 0x1 PUSH1 0x1 PUSH1 0xA0 SHL SUB AND PUSH2 0xEDF JUMPI PUSH1 0x40 MLOAD PUSH3 0x461BCD PUSH1 0xE5 SHL DUP2 MSTORE PUSH1 0x4 ADD PUSH2 0x6A0 SWAP1 PUSH2 0x24A3 JUMP JUMPDEST PUSH1 0x0 DUP2 DUP2 MSTORE PUSH1 0x4 PUSH1 0x20 MSTORE PUSH1 0x40 SWAP1 KECCAK256 DUP1 SLOAD PUSH32 0xFFFFFFFFFFFFFFFFFFFFFFFF0000000000000000000000000000000000000000 AND PUSH1 0x1 PUSH1 0x1 PUSH1 0xA0 SHL SUB DUP5 AND SWAP1 DUP2 OR SWAP1 SWAP2 SSTORE DUP2 SWAP1 PUSH2 0xFB9 DUP3 PUSH2 0xA2C JUMP JUMPDEST PUSH1 0x1 PUSH1 0x1 PUSH1 0xA0 SHL SUB AND PUSH32 0x8C5BE1E5EBEC7D5BD14F71427D1E84F3DD0314C0F7B2291E5B200AC8C7C3B925 PUSH1 0x40 MLOAD PUSH1 0x40 MLOAD DUP1 SWAP2 SUB SWAP1 LOG4 POP POP JUMP JUMPDEST PUSH1 0x0 DUP1 PUSH2 0xFFE DUP4 PUSH2 0xA2C JUMP JUMPDEST SWAP1 POP DUP1 PUSH1 0x1 PUSH1 0x1 PUSH1 0xA0 SHL SUB AND DUP5 PUSH1 0x1 PUSH1 0x1 PUSH1 0xA0 SHL SUB AND EQ DUP1 PUSH2 0x1045 JUMPI POP PUSH1 0x1 PUSH1 0x1 PUSH1 0xA0 SHL SUB DUP1 DUP3 AND PUSH1 0x0 SWAP1 DUP2 MSTORE PUSH1 0x5 PUSH1 0x20 SWAP1 DUP2 MSTORE PUSH1 0x40 DUP1 DUP4 KECCAK256 SWAP4 DUP9 AND DUP4 MSTORE SWAP3 SWAP1 MSTORE KECCAK256 SLOAD PUSH1 0xFF AND JUMPDEST DUP1 PUSH2 0x1069 JUMPI POP DUP4 PUSH1 0x1 PUSH1 0x1 PUSH1 0xA0 SHL SUB AND PUSH2 0x105E DUP5 PUSH2 0x63B JUMP JUMPDEST PUSH1 0x1 PUSH1 0x1 PUSH1 0xA0 SHL SUB AND EQ JUMPDEST SWAP5 SWAP4 POP POP POP POP JUMP JUMPDEST DUP3 PUSH1 0x1 PUSH1 0x1 PUSH1 0xA0 SHL SUB AND PUSH2 0x1084 DUP3 PUSH2 0xA2C JUMP JUMPDEST PUSH1 0x1 PUSH1 0x1 PUSH1 0xA0 SHL SUB AND EQ PUSH2 0x10AA JUMPI PUSH1 0x40 MLOAD PUSH3 0x461BCD PUSH1 0xE5 SHL DUP2 MSTORE PUSH1 0x4 ADD PUSH2 0x6A0 SWAP1 PUSH2 0x26B3 JUMP JUMPDEST PUSH1 0x1 PUSH1 0x1 PUSH1 0xA0 SHL SUB DUP3 AND PUSH2 0x10D0 JUMPI PUSH1 0x40 MLOAD PUSH3 0x461BCD PUSH1 0xE5 SHL DUP2 MSTORE PUSH1 0x4 ADD PUSH2 0x6A0 SWAP1 PUSH2 0x271D JUMP JUMPDEST PUSH2 0x10DD DUP4 DUP4 DUP4 PUSH1 0x1 PUSH2 0x14F1 JUMP JUMPDEST DUP3 PUSH1 0x1 PUSH1 0x1 PUSH1 0xA0 SHL SUB AND PUSH2 0x10F0 DUP3 PUSH2 0xA2C JUMP JUMPDEST PUSH1 0x1 PUSH1 0x1 PUSH1 0xA0 SHL SUB AND EQ PUSH2 0x1116 JUMPI PUSH1 0x40 MLOAD PUSH3 0x461BCD PUSH1 0xE5 SHL DUP2 MSTORE PUSH1 0x4 ADD PUSH2 0x6A0 SWAP1 PUSH2 0x26B3 JUMP JUMPDEST PUSH1 0x0 DUP2 DUP2 MSTORE PUSH1 0x4 PUSH1 0x20 SWAP1 DUP2 MSTORE PUSH1 0x40 DUP1 DUP4 KECCAK256 DUP1 SLOAD PUSH32 0xFFFFFFFFFFFFFFFFFFFFFFFF0000000000000000000000000000000000000000 SWAP1 DUP2 AND SWAP1 SWAP2 SSTORE PUSH1 0x1 PUSH1 0x1 PUSH1 0xA0 SHL SUB DUP8 DUP2 AND DUP1 DUP7 MSTORE PUSH1 0x3 DUP6 MSTORE DUP4 DUP7 KECCAK256 DUP1 SLOAD PUSH1 0x0 NOT ADD SWAP1 SSTORE SWAP1 DUP8 AND DUP1 DUP7 MSTORE DUP4 DUP7 KECCAK256 DUP1 SLOAD PUSH1 0x1 ADD SWAP1 SSTORE DUP7 DUP7 MSTORE PUSH1 0x2 SWAP1 SWAP5 MSTORE DUP3 DUP6 KECCAK256 DUP1 SLOAD SWAP1 SWAP3 AND DUP5 OR SWAP1 SWAP2 SSTORE SWAP1 MLOAD DUP5 SWAP4 PUSH32 0xDDF252AD1BE2C89B69C2B068FC378DAA952BA7F163C4A11628F55A4DF523B3EF SWAP2 LOG4 POP POP POP JUMP JUMPDEST PUSH2 0xBB2 DUP3 DUP3 PUSH1 0x40 MLOAD DUP1 PUSH1 0x20 ADD PUSH1 0x40 MSTORE DUP1 PUSH1 0x0 DUP2 MSTORE POP PUSH2 0x14FD JUMP JUMPDEST PUSH1 0xA SLOAD PUSH1 0x1 PUSH1 0x1 PUSH1 0xA0 SHL SUB AND CALLER EQ PUSH2 0xAB7 JUMPI PUSH1 0x40 MLOAD PUSH3 0x461BCD PUSH1 0xE5 SHL DUP2 MSTORE PUSH1 0x4 ADD PUSH2 0x6A0 SWAP1 PUSH2 0x275F JUMP JUMPDEST PUSH1 0xA DUP1 SLOAD PUSH1 0x1 PUSH1 0x1 PUSH1 0xA0 SHL SUB DUP4 DUP2 AND PUSH32 0xFFFFFFFFFFFFFFFFFFFFFFFF0000000000000000000000000000000000000000 DUP4 AND DUP2 OR SWAP1 SWAP4 SSTORE PUSH1 0x40 MLOAD SWAP2 AND SWAP2 SWAP1 DUP3 SWAP1 PUSH32 0x8BE0079C531659141344CD1FD0A4F28419497F9722A3DAAFE3B4186F6B6457E0 SWAP1 PUSH1 0x0 SWAP1 LOG3 POP POP JUMP JUMPDEST DUP2 PUSH1 0x1 PUSH1 0x1 PUSH1 0xA0 SHL SUB AND DUP4 PUSH1 0x1 PUSH1 0x1 PUSH1 0xA0 SHL SUB AND SUB PUSH2 0x129D JUMPI PUSH1 0x40 MLOAD PUSH3 0x461BCD PUSH1 0xE5 SHL DUP2 MSTORE PUSH1 0x4 ADD PUSH2 0x6A0 SWAP1 PUSH2 0x27A3 JUMP JUMPDEST PUSH1 0x1 PUSH1 0x1 PUSH1 0xA0 SHL SUB DUP4 DUP2 AND PUSH1 0x0 DUP2 DUP2 MSTORE PUSH1 0x5 PUSH1 0x20 SWAP1 DUP2 MSTORE PUSH1 0x40 DUP1 DUP4 KECCAK256 SWAP5 DUP8 AND DUP1 DUP5 MSTORE SWAP5 SWAP1 SWAP2 MSTORE SWAP1 DUP2 SWAP1 KECCAK256 DUP1 SLOAD PUSH32 0xFFFFFFFFFFFFFFFFFFFFFFFFFFFFFFFFFFFFFFFFFFFFFFFFFFFFFFFFFFFFFF00 AND DUP6 ISZERO ISZERO OR SWAP1 SSTORE MLOAD PUSH32 0x17307EAB39AB6107E8899845AD3D59BD9653F200F220920489CA2B5937696C31 SWAP1 PUSH2 0x131F SWAP1 DUP6 SWAP1 PUSH2 0x1BED JUMP JUMPDEST PUSH1 0x40 MLOAD DUP1 SWAP2 SUB SWAP1 LOG3 POP POP POP JUMP JUMPDEST PUSH2 0x1337 DUP5 DUP5 DUP5 PUSH2 0x1071 JUMP JUMPDEST PUSH2 0x1343 DUP5 DUP5 DUP5 DUP5 PUSH2 0x1530 JUMP JUMPDEST PUSH2 0x82A JUMPI PUSH1 0x40 MLOAD PUSH3 0x461BCD PUSH1 0xE5 SHL DUP2 MSTORE PUSH1 0x4 ADD PUSH2 0x6A0 SWAP1 PUSH2 0x280D JUMP JUMPDEST PUSH1 0x60 PUSH1 0xB DUP1 SLOAD PUSH2 0x5B8 SWAP1 PUSH2 0x20A2 JUMP JUMPDEST PUSH1 0x60 PUSH1 0x0 PUSH2 0x137B DUP4 PUSH2 0x167B JUMP JUMPDEST PUSH1 0x1 ADD SWAP1 POP PUSH1 0x0 DUP2 PUSH8 0xFFFFFFFFFFFFFFFF DUP2 GT ISZERO PUSH2 0x139B JUMPI PUSH2 0x139B PUSH2 0x1DD8 JUMP JUMPDEST PUSH1 0x40 MLOAD SWAP1 DUP1 DUP3 MSTORE DUP1 PUSH1 0x1F ADD PUSH1 0x1F NOT AND PUSH1 0x20 ADD DUP3 ADD PUSH1 0x40 MSTORE DUP1 ISZERO PUSH2 0x13C5 JUMPI PUSH1 0x20 DUP3 ADD DUP2 DUP1 CALLDATASIZE DUP4 CALLDATACOPY ADD SWAP1 POP JUMPDEST POP SWAP1 POP DUP2 DUP2 ADD PUSH1 0x20 ADD JUMPDEST PUSH1 0x0 NOT ADD PUSH32 0x3031323334353637383961626364656600000000000000000000000000000000 PUSH1 0xA DUP7 MOD BYTE DUP2 MSTORE8 PUSH1 0xA DUP6 DIV SWAP5 POP DUP5 PUSH2 0x13CF JUMPI POP SWAP4 SWAP3 POP POP POP JUMP JUMPDEST PUSH1 0x0 PUSH32 0xFFFFFFFF00000000000000000000000000000000000000000000000000000000 DUP3 AND PUSH32 0x80AC58CD00000000000000000000000000000000000000000000000000000000 EQ DUP1 PUSH2 0x14A1 JUMPI POP PUSH32 0xFFFFFFFF00000000000000000000000000000000000000000000000000000000 DUP3 AND PUSH32 0x5B5E139F00000000000000000000000000000000000000000000000000000000 EQ JUMPDEST DUP1 PUSH2 0x5A3 JUMPI POP PUSH32 0x1FFC9A700000000000000000000000000000000000000000000000000000000 PUSH32 0xFFFFFFFF00000000000000000000000000000000000000000000000000000000 DUP4 AND EQ PUSH2 0x5A3 JUMP JUMPDEST PUSH2 0x82A DUP5 DUP5 DUP5 DUP5 PUSH2 0x175D JUMP JUMPDEST PUSH2 0x1507 DUP4 DUP4 PUSH2 0x184F JUMP JUMPDEST PUSH2 0x1514 PUSH1 0x0 DUP5 DUP5 DUP5 PUSH2 0x1530 JUMP JUMPDEST PUSH2 0x6EB JUMPI PUSH1 0x40 MLOAD PUSH3 0x461BCD PUSH1 0xE5 SHL DUP2 MSTORE PUSH1 0x4 ADD PUSH2 0x6A0 SWAP1 PUSH2 0x280D JUMP JUMPDEST PUSH1 0x0 PUSH1 0x1 PUSH1 0x1 PUSH1 0xA0 SHL SUB DUP5 AND EXTCODESIZE ISZERO PUSH2 0x1670 JUMPI PUSH1 0x40 MLOAD PUSH32 0x150B7A0200000000000000000000000000000000000000000000000000000000 DUP2 MSTORE PUSH1 0x1 PUSH1 0x1 PUSH1 0xA0 SHL SUB DUP6 AND SWAP1 PUSH4 0x150B7A02 SWAP1 PUSH2 0x158D SWAP1 CALLER SWAP1 DUP10 SWAP1 DUP9 SWAP1 DUP9 SWAP1 PUSH1 0x4 ADD PUSH2 0x281D JUMP JUMPDEST PUSH1 0x20 PUSH1 0x40 MLOAD DUP1 DUP4 SUB DUP2 PUSH1 0x0 DUP8 GAS CALL SWAP3 POP POP POP DUP1 ISZERO PUSH2 0x15C8 JUMPI POP PUSH1 0x40 DUP1 MLOAD PUSH1 0x1F RETURNDATASIZE SWAP1 DUP2 ADD PUSH1 0x1F NOT AND DUP3 ADD SWAP1 SWAP3 MSTORE PUSH2 0x15C5 SWAP2 DUP2 ADD SWAP1 PUSH2 0x286C JUMP JUMPDEST PUSH1 0x1 JUMPDEST PUSH2 0x1625 JUMPI RETURNDATASIZE DUP1 DUP1 ISZERO PUSH2 0x15F6 JUMPI PUSH1 0x40 MLOAD SWAP2 POP PUSH1 0x1F NOT PUSH1 0x3F RETURNDATASIZE ADD AND DUP3 ADD PUSH1 0x40 MSTORE RETURNDATASIZE DUP3 MSTORE RETURNDATASIZE PUSH1 0x0 PUSH1 0x20 DUP5 ADD RETURNDATACOPY PUSH2 0x15FB JUMP JUMPDEST PUSH1 0x60 SWAP2 POP JUMPDEST POP DUP1 MLOAD PUSH1 0x0 SUB PUSH2 0x161D JUMPI PUSH1 0x40 MLOAD PUSH3 0x461BCD PUSH1 0xE5 SHL DUP2 MSTORE PUSH1 0x4 ADD PUSH2 0x6A0 SWAP1 PUSH2 0x280D JUMP JUMPDEST DUP1 MLOAD DUP2 PUSH1 0x20 ADD REVERT JUMPDEST PUSH32 0xFFFFFFFF00000000000000000000000000000000000000000000000000000000 AND PUSH32 0x150B7A0200000000000000000000000000000000000000000000000000000000 EQ SWAP1 POP PUSH2 0x1069 JUMP JUMPDEST POP PUSH1 0x1 SWAP5 SWAP4 POP POP POP POP JUMP JUMPDEST PUSH1 0x0 DUP1 PUSH27 0x184F03E93FF9F4DAA797ED6E38ED64BF6A1F010000000000000000 DUP4 LT PUSH2 0x16C4 JUMPI PUSH27 0x184F03E93FF9F4DAA797ED6E38ED64BF6A1F010000000000000000 DUP4 DIV SWAP3 POP PUSH1 0x40 ADD JUMPDEST PUSH14 0x4EE2D6D415B85ACEF8100000000 DUP4 LT PUSH2 0x16F0 JUMPI PUSH14 0x4EE2D6D415B85ACEF8100000000 DUP4 DIV SWAP3 POP PUSH1 0x20 ADD JUMPDEST PUSH7 0x2386F26FC10000 DUP4 LT PUSH2 0x170E JUMPI PUSH7 0x2386F26FC10000 DUP4 DIV SWAP3 POP PUSH1 0x10 ADD JUMPDEST PUSH4 0x5F5E100 DUP4 LT PUSH2 0x1726 JUMPI PUSH4 0x5F5E100 DUP4 DIV SWAP3 POP PUSH1 0x8 ADD JUMPDEST PUSH2 0x2710 DUP4 LT PUSH2 0x173A JUMPI PUSH2 0x2710 DUP4 DIV SWAP3 POP PUSH1 0x4 ADD JUMPDEST PUSH1 0x64 DUP4 LT PUSH2 0x174C JUMPI PUSH1 0x64 DUP4 DIV SWAP3 POP PUSH1 0x2 ADD JUMPDEST PUSH1 0xA DUP4 LT PUSH2 0x5A3 JUMPI PUSH1 0x1 ADD SWAP3 SWAP2 POP POP JUMP JUMPDEST PUSH2 0x1769 DUP5 DUP5 DUP5 DUP5 PUSH2 0x1970 JUMP JUMPDEST PUSH1 0x1 DUP2 GT ISZERO PUSH2 0x178A JUMPI PUSH1 0x40 MLOAD PUSH3 0x461BCD PUSH1 0xE5 SHL DUP2 MSTORE PUSH1 0x4 ADD PUSH2 0x6A0 SWAP1 PUSH2 0x28E7 JUMP JUMPDEST DUP2 PUSH1 0x1 PUSH1 0x1 PUSH1 0xA0 SHL SUB DUP6 AND PUSH2 0x17E6 JUMPI PUSH2 0x17E1 DUP2 PUSH1 0x8 DUP1 SLOAD PUSH1 0x0 DUP4 DUP2 MSTORE PUSH1 0x9 PUSH1 0x20 MSTORE PUSH1 0x40 DUP2 KECCAK256 DUP3 SWAP1 SSTORE PUSH1 0x1 DUP3 ADD DUP4 SSTORE SWAP2 SWAP1 SWAP2 MSTORE PUSH32 0xF3F7A9FE364FAAB93B216DA50A3214154F22A0A2B415B23A84C8169E8B636EE3 ADD SSTORE JUMP JUMPDEST PUSH2 0x1809 JUMP JUMPDEST DUP4 PUSH1 0x1 PUSH1 0x1 PUSH1 0xA0 SHL SUB AND DUP6 PUSH1 0x1 PUSH1 0x1 PUSH1 0xA0 SHL SUB AND EQ PUSH2 0x1809 JUMPI PUSH2 0x1809 DUP6 DUP3 PUSH2 0x19F8 JUMP JUMPDEST PUSH1 0x1 PUSH1 0x1 PUSH1 0xA0 SHL SUB DUP5 AND PUSH2 0x1825 JUMPI PUSH2 0x1820 DUP2 PUSH2 0x1A95 JUMP JUMPDEST PUSH2 0x1848 JUMP JUMPDEST DUP5 PUSH1 0x1 PUSH1 0x1 PUSH1 0xA0 SHL SUB AND DUP5 PUSH1 0x1 PUSH1 0x1 PUSH1 0xA0 SHL SUB AND EQ PUSH2 0x1848 JUMPI PUSH2 0x1848 DUP5 DUP3 PUSH2 0x1B44 JUMP JUMPDEST POP POP POP POP POP JUMP JUMPDEST PUSH1 0x1 PUSH1 0x1 PUSH1 0xA0 SHL SUB DUP3 AND PUSH2 0x1875 JUMPI PUSH1 0x40 MLOAD PUSH3 0x461BCD PUSH1 0xE5 SHL DUP2 MSTORE PUSH1 0x4 ADD PUSH2 0x6A0 SWAP1 PUSH2 0x2929 JUMP JUMPDEST PUSH1 0x0 DUP2 DUP2 MSTORE PUSH1 0x2 PUSH1 0x20 MSTORE PUSH1 0x40 SWAP1 KECCAK256 SLOAD PUSH1 0x1 PUSH1 0x1 PUSH1 0xA0 SHL SUB AND ISZERO PUSH2 0x18AA JUMPI PUSH1 0x40 MLOAD PUSH3 0x461BCD PUSH1 0xE5 SHL DUP2 MSTORE PUSH1 0x4 ADD PUSH2 0x6A0 SWAP1 PUSH2 0x296D JUMP JUMPDEST PUSH2 0x18B8 PUSH1 0x0 DUP4 DUP4 PUSH1 0x1 PUSH2 0x14F1 JUMP JUMPDEST PUSH1 0x0 DUP2 DUP2 MSTORE PUSH1 0x2 PUSH1 0x20 MSTORE PUSH1 0x40 SWAP1 KECCAK256 SLOAD PUSH1 0x1 PUSH1 0x1 PUSH1 0xA0 SHL SUB AND ISZERO PUSH2 0x18ED JUMPI PUSH1 0x40 MLOAD PUSH3 0x461BCD PUSH1 0xE5 SHL DUP2 MSTORE PUSH1 0x4 ADD PUSH2 0x6A0 SWAP1 PUSH2 0x296D JUMP JUMPDEST PUSH1 0x1 PUSH1 0x1 PUSH1 0xA0 SHL SUB DUP3 AND PUSH1 0x0 DUP2 DUP2 MSTORE PUSH1 0x3 PUSH1 0x20 SWAP1 DUP2 MSTORE PUSH1 0x40 DUP1 DUP4 KECCAK256 DUP1 SLOAD PUSH1 0x1 ADD SWAP1 SSTORE DUP5 DUP4 MSTORE PUSH1 0x2 SWAP1 SWAP2 MSTORE DUP1 DUP3 KECCAK256 DUP1 SLOAD PUSH32 0xFFFFFFFFFFFFFFFFFFFFFFFF0000000000000000000000000000000000000000 AND DUP5 OR SWAP1 SSTORE MLOAD DUP4 SWAP3 SWAP2 SWAP1 PUSH32 0xDDF252AD1BE2C89B69C2B068FC378DAA952BA7F163C4A11628F55A4DF523B3EF SWAP1 DUP3 SWAP1 LOG4 POP POP JUMP JUMPDEST PUSH1 0x1 DUP2 GT ISZERO PUSH2 0x82A JUMPI PUSH1 0x1 PUSH1 0x1 PUSH1 0xA0 SHL SUB DUP5 AND ISZERO PUSH2 0x19B6 JUMPI PUSH1 0x1 PUSH1 0x1 PUSH1 0xA0 SHL SUB DUP5 AND PUSH1 0x0 SWAP1 DUP2 MSTORE PUSH1 0x3 PUSH1 0x20 MSTORE PUSH1 0x40 DUP2 KECCAK256 DUP1 SLOAD DUP4 SWAP3 SWAP1 PUSH2 0x19B0 SWAP1 DUP5 SWAP1 PUSH2 0x297D JUMP JUMPDEST SWAP1 SWAP2 SSTORE POP POP JUMPDEST PUSH1 0x1 PUSH1 0x1 PUSH1 0xA0 SHL SUB DUP4 AND ISZERO PUSH2 0x82A JUMPI PUSH1 0x1 PUSH1 0x1 PUSH1 0xA0 SHL SUB DUP4 AND PUSH1 0x0 SWAP1 DUP2 MSTORE PUSH1 0x3 PUSH1 0x20 MSTORE PUSH1 0x40 DUP2 KECCAK256 DUP1 SLOAD DUP4 SWAP3 SWAP1 PUSH2 0x19ED SWAP1 DUP5 SWAP1 PUSH2 0x22E9 JUMP JUMPDEST SWAP1 SWAP2 SSTORE POP POP POP POP POP POP JUMP JUMPDEST PUSH1 0x0 PUSH1 0x1 PUSH2 0x1A05 DUP5 PUSH2 0xA61 JUMP JUMPDEST PUSH2 0x1A0F SWAP2 SWAP1 PUSH2 0x297D JUMP JUMPDEST PUSH1 0x0 DUP4 DUP2 MSTORE PUSH1 0x7 PUSH1 0x20 MSTORE PUSH1 0x40 SWAP1 KECCAK256 SLOAD SWAP1 SWAP2 POP DUP1 DUP3 EQ PUSH2 0x1A62 JUMPI PUSH1 0x1 PUSH1 0x1 PUSH1 0xA0 SHL SUB DUP5 AND PUSH1 0x0 SWAP1 DUP2 MSTORE PUSH1 0x6 PUSH1 0x20 SWAP1 DUP2 MSTORE PUSH1 0x40 DUP1 DUP4 KECCAK256 DUP6 DUP5 MSTORE DUP3 MSTORE DUP1 DUP4 KECCAK256 SLOAD DUP5 DUP5 MSTORE DUP2 DUP5 KECCAK256 DUP2 SWAP1 SSTORE DUP4 MSTORE PUSH1 0x7 SWAP1 SWAP2 MSTORE SWAP1 KECCAK256 DUP2 SWAP1 SSTORE JUMPDEST POP PUSH1 0x0 SWAP2 DUP3 MSTORE PUSH1 0x7 PUSH1 0x20 SWAP1 DUP2 MSTORE PUSH1 0x40 DUP1 DUP5 KECCAK256 DUP5 SWAP1 SSTORE PUSH1 0x1 PUSH1 0x1 PUSH1 0xA0 SHL SUB SWAP1 SWAP5 AND DUP4 MSTORE PUSH1 0x6 DUP2 MSTORE DUP4 DUP4 KECCAK256 SWAP2 DUP4 MSTORE MSTORE SWAP1 DUP2 KECCAK256 SSTORE JUMP JUMPDEST PUSH1 0x8 SLOAD PUSH1 0x0 SWAP1 PUSH2 0x1AA7 SWAP1 PUSH1 0x1 SWAP1 PUSH2 0x297D JUMP JUMPDEST PUSH1 0x0 DUP4 DUP2 MSTORE PUSH1 0x9 PUSH1 0x20 MSTORE PUSH1 0x40 DUP2 KECCAK256 SLOAD PUSH1 0x8 DUP1 SLOAD SWAP4 SWAP5 POP SWAP1 SWAP3 DUP5 SWAP1 DUP2 LT PUSH2 0x1ACF JUMPI PUSH2 0x1ACF PUSH2 0x2440 JUMP JUMPDEST SWAP1 PUSH1 0x0 MSTORE PUSH1 0x20 PUSH1 0x0 KECCAK256 ADD SLOAD SWAP1 POP DUP1 PUSH1 0x8 DUP4 DUP2 SLOAD DUP2 LT PUSH2 0x1AF0 JUMPI PUSH2 0x1AF0 PUSH2 0x2440 JUMP JUMPDEST PUSH1 0x0 SWAP2 DUP3 MSTORE PUSH1 0x20 DUP1 DUP4 KECCAK256 SWAP1 SWAP2 ADD SWAP3 SWAP1 SWAP3 SSTORE DUP3 DUP2 MSTORE PUSH1 0x9 SWAP1 SWAP2 MSTORE PUSH1 0x40 DUP1 DUP3 KECCAK256 DUP5 SWAP1 SSTORE DUP6 DUP3 MSTORE DUP2 KECCAK256 SSTORE PUSH1 0x8 DUP1 SLOAD DUP1 PUSH2 0x1B28 JUMPI PUSH2 0x1B28 PUSH2 0x2990 JUMP JUMPDEST PUSH1 0x1 SWAP1 SUB DUP2 DUP2 SWAP1 PUSH1 0x0 MSTORE PUSH1 0x20 PUSH1 0x0 KECCAK256 ADD PUSH1 0x0 SWAP1 SSTORE SWAP1 SSTORE POP POP POP POP JUMP JUMPDEST PUSH1 0x0 PUSH2 0x1B4F DUP4 PUSH2 0xA61 JUMP JUMPDEST PUSH1 0x1 PUSH1 0x1 PUSH1 0xA0 SHL SUB SWAP1 SWAP4 AND PUSH1 0x0 SWAP1 DUP2 MSTORE PUSH1 0x6 PUSH1 0x20 SWAP1 DUP2 MSTORE PUSH1 0x40 DUP1 DUP4 KECCAK256 DUP7 DUP5 MSTORE DUP3 MSTORE DUP1 DUP4 KECCAK256 DUP6 SWAP1 SSTORE SWAP4 DUP3 MSTORE PUSH1 0x7 SWAP1 MSTORE SWAP2 SWAP1 SWAP2 KECCAK256 SWAP2 SWAP1 SWAP2 SSTORE POP JUMP JUMPDEST PUSH32 0xFFFFFFFF00000000000000000000000000000000000000000000000000000000 DUP2 AND JUMPDEST DUP2 EQ PUSH2 0xEDF JUMPI PUSH1 0x0 DUP1 REVERT JUMPDEST DUP1 CALLDATALOAD PUSH2 0x5A3 DUP2 PUSH2 0x1B88 JUMP JUMPDEST PUSH1 0x0 PUSH1 0x20 DUP3 DUP5 SUB SLT ISZERO PUSH2 0x1BD7 JUMPI PUSH2 0x1BD7 PUSH1 0x0 DUP1 REVERT JUMPDEST PUSH1 0x0 PUSH2 0x1069 DUP5 DUP5 PUSH2 0x1BB7 JUMP JUMPDEST DUP1 ISZERO ISZERO JUMPDEST DUP3 MSTORE POP POP JUMP JUMPDEST PUSH1 0x20 DUP2 ADD PUSH2 0x5A3 DUP3 DUP5 PUSH2 0x1BE3 JUMP JUMPDEST PUSH1 0x0 JUMPDEST DUP4 DUP2 LT ISZERO PUSH2 0x1C16 JUMPI DUP2 DUP2 ADD MLOAD DUP4 DUP3 ADD MSTORE PUSH1 0x20 ADD PUSH2 0x1BFE JUMP JUMPDEST POP POP PUSH1 0x0 SWAP2 ADD MSTORE JUMP JUMPDEST PUSH1 0x0 PUSH2 0x1C29 DUP3 MLOAD SWAP1 JUMP JUMPDEST DUP1 DUP5 MSTORE PUSH1 0x20 DUP5 ADD SWAP4 POP PUSH2 0x1C40 DUP2 DUP6 PUSH1 0x20 DUP7 ADD PUSH2 0x1BFB JUMP JUMPDEST PUSH1 0x1F ADD PUSH1 0x1F NOT AND SWAP3 SWAP1 SWAP3 ADD SWAP3 SWAP2 POP POP JUMP JUMPDEST PUSH1 0x20 DUP1 DUP3 MSTORE DUP2 ADD PUSH2 0xCB3 DUP2 DUP5 PUSH2 0x1C1F JUMP JUMPDEST DUP1 PUSH2 0x1BAC JUMP JUMPDEST DUP1 CALLDATALOAD PUSH2 0x5A3 DUP2 PUSH2 0x1C62 JUMP JUMPDEST PUSH1 0x0 PUSH1 0x20 DUP3 DUP5 SUB SLT ISZERO PUSH2 0x1C88 JUMPI PUSH2 0x1C88 PUSH1 0x0 DUP1 REVERT JUMPDEST PUSH1 0x0 PUSH2 0x1069 DUP5 DUP5 PUSH2 0x1C68 JUMP JUMPDEST PUSH1 0x0 PUSH1 0x1 PUSH1 0x1 PUSH1 0xA0 SHL SUB DUP3 AND PUSH2 0x5A3 JUMP JUMPDEST PUSH2 0x1BE7 DUP2 PUSH2 0x1C94 JUMP JUMPDEST PUSH1 0x20 DUP2 ADD PUSH2 0x5A3 DUP3 DUP5 PUSH2 0x1CA5 JUMP JUMPDEST PUSH2 0x1BAC DUP2 PUSH2 0x1C94 JUMP JUMPDEST DUP1 CALLDATALOAD PUSH2 0x5A3 DUP2 PUSH2 0x1CBC JUMP JUMPDEST PUSH1 0x0 DUP1 PUSH1 0x40 DUP4 DUP6 SUB SLT ISZERO PUSH2 0x1CE6 JUMPI PUSH2 0x1CE6 PUSH1 0x0 DUP1 REVERT JUMPDEST PUSH1 0x0 PUSH2 0x1CF2 DUP6 DUP6 PUSH2 0x1CC5 JUMP JUMPDEST SWAP3 POP POP PUSH1 0x20 PUSH2 0x1D03 DUP6 DUP3 DUP7 ADD PUSH2 0x1C68 JUMP JUMPDEST SWAP2 POP POP SWAP3 POP SWAP3 SWAP1 POP JUMP JUMPDEST DUP1 PUSH2 0x1BE7 JUMP JUMPDEST PUSH1 0x20 DUP2 ADD PUSH2 0x5A3 DUP3 DUP5 PUSH2 0x1D0D JUMP JUMPDEST PUSH1 0x0 DUP1 PUSH1 0x0 PUSH1 0x60 DUP5 DUP7 SUB SLT ISZERO PUSH2 0x1D39 JUMPI PUSH2 0x1D39 PUSH1 0x0 DUP1 REVERT JUMPDEST PUSH1 0x0 PUSH2 0x1D45 DUP7 DUP7 PUSH2 0x1CC5 JUMP JUMPDEST SWAP4 POP POP PUSH1 0x20 PUSH2 0x1D56 DUP7 DUP3 DUP8 ADD PUSH2 0x1CC5 JUMP JUMPDEST SWAP3 POP POP PUSH1 0x40 PUSH2 0x1D67 DUP7 DUP3 DUP8 ADD PUSH2 0x1C68 JUMP JUMPDEST SWAP2 POP POP SWAP3 POP SWAP3 POP SWAP3 JUMP JUMPDEST PUSH1 0x0 PUSH1 0x20 DUP3 DUP5 SUB SLT ISZERO PUSH2 0x1D86 JUMPI PUSH2 0x1D86 PUSH1 0x0 DUP1 REVERT JUMPDEST PUSH1 0x0 PUSH2 0x1069 DUP5 DUP5 PUSH2 0x1CC5 JUMP JUMPDEST DUP1 ISZERO ISZERO PUSH2 0x1BAC JUMP JUMPDEST DUP1 CALLDATALOAD PUSH2 0x5A3 DUP2 PUSH2 0x1D92 JUMP JUMPDEST PUSH1 0x0 DUP1 PUSH1 0x40 DUP4 DUP6 SUB SLT ISZERO PUSH2 0x1DBB JUMPI PUSH2 0x1DBB PUSH1 0x0 DUP1 REVERT JUMPDEST PUSH1 0x0 PUSH2 0x1DC7 DUP6 DUP6 PUSH2 0x1CC5 JUMP JUMPDEST SWAP3 POP POP PUSH1 0x20 PUSH2 0x1D03 DUP6 DUP3 DUP7 ADD PUSH2 0x1D9A JUMP JUMPDEST PUSH32 0x4E487B7100000000000000000000000000000000000000000000000000000000 PUSH1 0x0 MSTORE PUSH1 0x41 PUSH1 0x4 MSTORE PUSH1 0x24 PUSH1 0x0 REVERT JUMPDEST PUSH1 0x1F NOT PUSH1 0x1F DUP4 ADD AND DUP2 ADD DUP2 DUP2 LT PUSH8 0xFFFFFFFFFFFFFFFF DUP3 GT OR ISZERO PUSH2 0x1E2D JUMPI PUSH2 0x1E2D PUSH2 0x1DD8 JUMP JUMPDEST PUSH1 0x40 MSTORE POP POP JUMP JUMPDEST PUSH1 0x0 PUSH2 0x1E3F PUSH1 0x40 MLOAD SWAP1 JUMP JUMPDEST SWAP1 POP PUSH2 0x1E4B DUP3 DUP3 PUSH2 0x1E07 JUMP JUMPDEST SWAP2 SWAP1 POP JUMP JUMPDEST PUSH1 0x0 PUSH8 0xFFFFFFFFFFFFFFFF DUP3 GT ISZERO PUSH2 0x1E6A JUMPI PUSH2 0x1E6A PUSH2 0x1DD8 JUMP JUMPDEST PUSH1 0x1F NOT PUSH1 0x1F DUP4 ADD AND PUSH1 0x20 ADD SWAP3 SWAP2 POP POP JUMP JUMPDEST DUP3 DUP2 DUP4 CALLDATACOPY POP PUSH1 0x0 SWAP2 ADD MSTORE JUMP JUMPDEST PUSH1 0x0 PUSH2 0x1E9A PUSH2 0x1E95 DUP5 PUSH2 0x1E50 JUMP JUMPDEST PUSH2 0x1E34 JUMP JUMPDEST SWAP1 POP DUP3 DUP2 MSTORE PUSH1 0x20 DUP2 ADD DUP5 DUP5 DUP5 ADD GT ISZERO PUSH2 0x1EB5 JUMPI PUSH2 0x1EB5 PUSH1 0x0 DUP1 REVERT JUMPDEST PUSH2 0xCE3 DUP5 DUP3 DUP6 PUSH2 0x1E7B JUMP JUMPDEST PUSH1 0x0 DUP3 PUSH1 0x1F DUP4 ADD SLT PUSH2 0x1ED4 JUMPI PUSH2 0x1ED4 PUSH1 0x0 DUP1 REVERT JUMPDEST DUP2 CALLDATALOAD PUSH2 0x1069 DUP5 DUP3 PUSH1 0x20 DUP7 ADD PUSH2 0x1E87 JUMP JUMPDEST PUSH1 0x0 DUP1 PUSH1 0x0 DUP1 PUSH1 0x80 DUP6 DUP8 SUB SLT ISZERO PUSH2 0x1EFD JUMPI PUSH2 0x1EFD PUSH1 0x0 DUP1 REVERT JUMPDEST PUSH1 0x0 PUSH2 0x1F09 DUP8 DUP8 PUSH2 0x1CC5 JUMP JUMPDEST SWAP5 POP POP PUSH1 0x20 PUSH2 0x1F1A DUP8 DUP3 DUP9 ADD PUSH2 0x1CC5 JUMP JUMPDEST SWAP4 POP POP PUSH1 0x40 PUSH2 0x1F2B DUP8 DUP3 DUP9 ADD PUSH2 0x1C68 JUMP JUMPDEST SWAP3 POP POP PUSH1 0x60 DUP6 ADD CALLDATALOAD PUSH8 0xFFFFFFFFFFFFFFFF DUP2 GT ISZERO PUSH2 0x1F4B JUMPI PUSH2 0x1F4B PUSH1 0x0 DUP1 REVERT JUMPDEST PUSH2 0x1F57 DUP8 DUP3 DUP9 ADD PUSH2 0x1EC0 JUMP JUMPDEST SWAP2 POP POP SWAP3 SWAP6 SWAP2 SWAP5 POP SWAP3 POP JUMP JUMPDEST PUSH1 0x0 PUSH2 0x1F6F DUP4 DUP4 PUSH2 0x1D0D JUMP JUMPDEST POP POP PUSH1 0x20 ADD SWAP1 JUMP JUMPDEST PUSH1 0x0 PUSH2 0x1F81 DUP3 MLOAD SWAP1 JUMP JUMPDEST DUP1 DUP5 MSTORE PUSH1 0x20 SWAP4 DUP5 ADD SWAP4 DUP4 ADD DUP1 PUSH1 0x0 JUMPDEST DUP4 DUP2 LT ISZERO PUSH2 0x1FB5 JUMPI DUP2 MLOAD PUSH2 0x1FA4 DUP9 DUP3 PUSH2 0x1F63 JUMP JUMPDEST SWAP8 POP PUSH1 0x20 DUP4 ADD SWAP3 POP POP PUSH1 0x1 ADD PUSH2 0x1F90 JUMP JUMPDEST POP SWAP5 SWAP6 SWAP5 POP POP POP POP POP JUMP JUMPDEST PUSH1 0x20 DUP1 DUP3 MSTORE DUP2 ADD PUSH2 0xCB3 DUP2 DUP5 PUSH2 0x1F77 JUMP JUMPDEST PUSH1 0x0 PUSH2 0x1F6F DUP4 DUP4 PUSH2 0x1CA5 JUMP JUMPDEST PUSH1 0x0 PUSH2 0x1FE7 DUP3 MLOAD SWAP1 JUMP JUMPDEST DUP1 DUP5 MSTORE PUSH1 0x20 SWAP4 DUP5 ADD SWAP4 DUP4 ADD DUP1 PUSH1 0x0 JUMPDEST DUP4 DUP2 LT ISZERO PUSH2 0x1FB5 JUMPI DUP2 MLOAD PUSH2 0x200A DUP9 DUP3 PUSH2 0x1FD1 JUMP JUMPDEST SWAP8 POP PUSH1 0x20 DUP4 ADD SWAP3 POP POP PUSH1 0x1 ADD PUSH2 0x1FF6 JUMP JUMPDEST PUSH1 0x40 DUP1 DUP3 MSTORE DUP2 ADD PUSH2 0x202C DUP2 DUP6 PUSH2 0x1FDD JUMP JUMPDEST SWAP1 POP DUP2 DUP2 SUB PUSH1 0x20 DUP4 ADD MSTORE PUSH2 0x1069 DUP2 DUP5 PUSH2 0x1F77 JUMP JUMPDEST PUSH1 0x0 DUP1 PUSH1 0x40 DUP4 DUP6 SUB SLT ISZERO PUSH2 0x2056 JUMPI PUSH2 0x2056 PUSH1 0x0 DUP1 REVERT JUMPDEST PUSH1 0x0 PUSH2 0x2062 DUP6 DUP6 PUSH2 0x1CC5 JUMP JUMPDEST SWAP3 POP POP PUSH1 0x20 PUSH2 0x1D03 DUP6 DUP3 DUP7 ADD PUSH2 0x1CC5 JUMP JUMPDEST PUSH32 0x4E487B7100000000000000000000000000000000000000000000000000000000 PUSH1 0x0 MSTORE PUSH1 0x22 PUSH1 0x4 MSTORE PUSH1 0x24 PUSH1 0x0 REVERT JUMPDEST PUSH1 0x2 DUP2 DIV PUSH1 0x1 DUP3 AND DUP1 PUSH2 0x20B6 JUMPI PUSH1 0x7F DUP3 AND SWAP2 POP JUMPDEST PUSH1 0x20 DUP3 LT DUP2 SUB PUSH2 0xD76 JUMPI PUSH2 0xD76 PUSH2 0x2073 JUMP JUMPDEST PUSH1 0x21 DUP2 MSTORE PUSH1 0x0 PUSH1 0x20 DUP3 ADD PUSH32 0x4552433732313A20617070726F76616C20746F2063757272656E74206F776E65 DUP2 MSTORE PUSH32 0x7200000000000000000000000000000000000000000000000000000000000000 PUSH1 0x20 DUP3 ADD MSTORE SWAP2 POP JUMPDEST POP PUSH1 0x40 ADD SWAP1 JUMP JUMPDEST PUSH1 0x20 DUP1 DUP3 MSTORE DUP2 ADD PUSH2 0x5A3 DUP2 PUSH2 0x20C8 JUMP JUMPDEST PUSH1 0x3D DUP2 MSTORE PUSH1 0x0 PUSH1 0x20 DUP3 ADD PUSH32 0x4552433732313A20617070726F76652063616C6C6572206973206E6F7420746F DUP2 MSTORE PUSH32 0x6B656E206F776E6572206F7220617070726F76656420666F7220616C6C000000 PUSH1 0x20 DUP3 ADD MSTORE SWAP2 POP PUSH2 0x211E JUMP JUMPDEST PUSH1 0x20 DUP1 DUP3 MSTORE DUP2 ADD PUSH2 0x5A3 DUP2 PUSH2 0x2135 JUMP JUMPDEST PUSH1 0x2D DUP2 MSTORE PUSH1 0x0 PUSH1 0x20 DUP3 ADD PUSH32 0x4552433732313A2063616C6C6572206973206E6F7420746F6B656E206F776E65 DUP2 MSTORE PUSH32 0x72206F7220617070726F76656400000000000000000000000000000000000000 PUSH1 0x20 DUP3 ADD MSTORE SWAP2 POP PUSH2 0x211E JUMP JUMPDEST PUSH1 0x20 DUP1 DUP3 MSTORE DUP2 ADD PUSH2 0x5A3 DUP2 PUSH2 0x219F JUMP JUMPDEST PUSH1 0x2B DUP2 MSTORE PUSH1 0x0 PUSH1 0x20 DUP3 ADD PUSH32 0x455243373231456E756D657261626C653A206F776E657220696E646578206F75 DUP2 MSTORE PUSH32 0x74206F6620626F756E6473000000000000000000000000000000000000000000 PUSH1 0x20 DUP3 ADD MSTORE SWAP2 POP PUSH2 0x211E JUMP JUMPDEST PUSH1 0x20 DUP1 DUP3 MSTORE DUP2 ADD PUSH2 0x5A3 DUP2 PUSH2 0x2209 JUMP JUMPDEST PUSH1 0xC DUP2 MSTORE PUSH1 0x0 PUSH1 0x20 DUP3 ADD PUSH32 0x53616C6520506175736564210000000000000000000000000000000000000000 DUP2 MSTORE SWAP2 POP JUMPDEST POP PUSH1 0x20 ADD SWAP1 JUMP JUMPDEST PUSH1 0x20 DUP1 DUP3 MSTORE DUP2 ADD PUSH2 0x5A3 DUP2 PUSH2 0x2273 JUMP JUMPDEST PUSH32 0x4E487B7100000000000000000000000000000000000000000000000000000000 PUSH1 0x0 MSTORE PUSH1 0x11 PUSH1 0x4 MSTORE PUSH1 0x24 PUSH1 0x0 REVERT JUMPDEST DUP1 DUP3 ADD DUP1 DUP3 GT ISZERO PUSH2 0x5A3 JUMPI PUSH2 0x5A3 PUSH2 0x22BA JUMP JUMPDEST PUSH1 0x13 DUP2 MSTORE PUSH1 0x0 PUSH1 0x20 DUP3 ADD PUSH32 0x4D617820737570706C7920726561636865642100000000000000000000000000 DUP2 MSTORE SWAP2 POP PUSH2 0x22A3 JUMP JUMPDEST PUSH1 0x20 DUP1 DUP3 MSTORE DUP2 ADD PUSH2 0x5A3 DUP2 PUSH2 0x22FC JUMP JUMPDEST PUSH1 0x0 PUSH1 0x0 NOT DUP3 SUB PUSH2 0x2353 JUMPI PUSH2 0x2353 PUSH2 0x22BA JUMP JUMPDEST POP PUSH1 0x1 ADD SWAP1 JUMP JUMPDEST PUSH1 0x40 DUP2 ADD PUSH2 0x2368 DUP3 DUP6 PUSH2 0x1D0D JUMP JUMPDEST PUSH2 0xCB3 PUSH1 0x20 DUP4 ADD DUP5 PUSH2 0x1CA5 JUMP JUMPDEST PUSH1 0x0 DUP2 PUSH1 0x0 NOT DIV DUP4 GT DUP3 ISZERO ISZERO AND ISZERO PUSH2 0x238F JUMPI PUSH2 0x238F PUSH2 0x22BA JUMP JUMPDEST POP MUL SWAP1 JUMP JUMPDEST PUSH1 0x20 DUP1 DUP3 MSTORE PUSH32 0x4E6F7420656E6F756768204554482073656E742C20636865636B207072696365 SWAP2 ADD SWAP1 DUP2 MSTORE PUSH1 0x0 PUSH2 0x22A3 JUMP JUMPDEST PUSH1 0x20 DUP1 DUP3 MSTORE DUP2 ADD PUSH2 0x5A3 DUP2 PUSH2 0x2394 JUMP JUMPDEST PUSH1 0x2C DUP2 MSTORE PUSH1 0x0 PUSH1 0x20 DUP3 ADD PUSH32 0x455243373231456E756D657261626C653A20676C6F62616C20696E646578206F DUP2 MSTORE PUSH32 0x7574206F6620626F756E64730000000000000000000000000000000000000000 PUSH1 0x20 DUP3 ADD MSTORE SWAP2 POP PUSH2 0x211E JUMP JUMPDEST PUSH1 0x20 DUP1 DUP3 MSTORE DUP2 ADD PUSH2 0x5A3 DUP2 PUSH2 0x23D6 JUMP JUMPDEST PUSH32 0x4E487B7100000000000000000000000000000000000000000000000000000000 PUSH1 0x0 MSTORE PUSH1 0x32 PUSH1 0x4 MSTORE PUSH1 0x24 PUSH1 0x0 REVERT JUMPDEST PUSH1 0x18 DUP2 MSTORE PUSH1 0x0 PUSH1 0x20 DUP3 ADD PUSH32 0x4552433732313A20696E76616C696420746F6B656E2049440000000000000000 DUP2 MSTORE SWAP2 POP PUSH2 0x22A3 JUMP JUMPDEST PUSH1 0x20 DUP1 DUP3 MSTORE DUP2 ADD PUSH2 0x5A3 DUP2 PUSH2 0x246F JUMP JUMPDEST PUSH1 0x29 DUP2 MSTORE PUSH1 0x0 PUSH1 0x20 DUP3 ADD PUSH32 0x4552433732313A2061646472657373207A65726F206973206E6F742061207661 DUP2 MSTORE PUSH32 0x6C6964206F776E65720000000000000000000000000000000000000000000000 PUSH1 0x20 DUP3 ADD MSTORE SWAP2 POP PUSH2 0x211E JUMP JUMPDEST PUSH1 0x20 DUP1 DUP3 MSTORE DUP2 ADD PUSH2 0x5A3 DUP2 PUSH2 0x24B3 JUMP JUMPDEST PUSH1 0x2F DUP2 MSTORE PUSH1 0x0 PUSH1 0x20 DUP3 ADD PUSH32 0x4552433732314D657461646174613A2055524920717565727920666F72206E6F DUP2 MSTORE PUSH32 0x6E6578697374656E7420746F6B656E0000000000000000000000000000000000 PUSH1 0x20 DUP3 ADD MSTORE SWAP2 POP PUSH2 0x211E JUMP JUMPDEST PUSH1 0x20 DUP1 DUP3 MSTORE DUP2 ADD PUSH2 0x5A3 DUP2 PUSH2 0x251D JUMP JUMPDEST PUSH1 0x0 PUSH2 0x2591 DUP3 MLOAD SWAP1 JUMP JUMPDEST PUSH2 0x259F DUP2 DUP6 PUSH1 0x20 DUP7 ADD PUSH2 0x1BFB JUMP JUMPDEST SWAP3 SWAP1 SWAP3 ADD SWAP3 SWAP2 POP POP JUMP JUMPDEST PUSH1 0x0 PUSH2 0x25B5 DUP3 DUP6 PUSH2 0x2587 JUMP JUMPDEST SWAP2 POP PUSH2 0x25C1 DUP3 DUP5 PUSH2 0x2587 JUMP JUMPDEST PUSH32 0x2E6A736F6E000000000000000000000000000000000000000000000000000000 DUP2 MSTORE SWAP2 POP PUSH1 0x5 DUP3 ADD PUSH2 0x1069 JUMP JUMPDEST PUSH1 0x26 DUP2 MSTORE PUSH1 0x0 PUSH1 0x20 DUP3 ADD PUSH32 0x4F776E61626C653A206E6577206F776E657220697320746865207A65726F2061 DUP2 MSTORE PUSH32 0x6464726573730000000000000000000000000000000000000000000000000000 PUSH1 0x20 DUP3 ADD MSTORE SWAP2 POP PUSH2 0x211E JUMP JUMPDEST PUSH1 0x20 DUP1 DUP3 MSTORE DUP2 ADD PUSH2 0x5A3 DUP2 PUSH2 0x25EF JUMP JUMPDEST PUSH1 0x25 DUP2 MSTORE PUSH1 0x0 PUSH1 0x20 DUP3 ADD PUSH32 0x4552433732313A207472616E736665722066726F6D20696E636F727265637420 DUP2 MSTORE PUSH32 0x6F776E6572000000000000000000000000000000000000000000000000000000 PUSH1 0x20 DUP3 ADD MSTORE SWAP2 POP PUSH2 0x211E JUMP JUMPDEST PUSH1 0x20 DUP1 DUP3 MSTORE DUP2 ADD PUSH2 0x5A3 DUP2 PUSH2 0x2659 JUMP JUMPDEST PUSH1 0x24 DUP2 MSTORE PUSH1 0x0 PUSH1 0x20 DUP3 ADD PUSH32 0x4552433732313A207472616E7366657220746F20746865207A65726F20616464 DUP2 MSTORE PUSH32 0x7265737300000000000000000000000000000000000000000000000000000000 PUSH1 0x20 DUP3 ADD MSTORE SWAP2 POP PUSH2 0x211E JUMP JUMPDEST PUSH1 0x20 DUP1 DUP3 MSTORE DUP2 ADD PUSH2 0x5A3 DUP2 PUSH2 0x26C3 JUMP JUMPDEST PUSH1 0x20 DUP1 DUP3 MSTORE PUSH32 0x4F776E61626C653A2063616C6C6572206973206E6F7420746865206F776E6572 SWAP2 ADD SWAP1 DUP2 MSTORE PUSH1 0x0 PUSH2 0x22A3 JUMP JUMPDEST PUSH1 0x20 DUP1 DUP3 MSTORE DUP2 ADD PUSH2 0x5A3 DUP2 PUSH2 0x272D JUMP JUMPDEST PUSH1 0x19 DUP2 MSTORE PUSH1 0x0 PUSH1 0x20 DUP3 ADD PUSH32 0x4552433732313A20617070726F766520746F2063616C6C657200000000000000 DUP2 MSTORE SWAP2 POP PUSH2 0x22A3 JUMP JUMPDEST PUSH1 0x20 DUP1 DUP3 MSTORE DUP2 ADD PUSH2 0x5A3 DUP2 PUSH2 0x276F JUMP JUMPDEST PUSH1 0x32 DUP2 MSTORE PUSH1 0x0 PUSH1 0x20 DUP3 ADD PUSH32 0x4552433732313A207472616E7366657220746F206E6F6E204552433732315265 DUP2 MSTORE PUSH32 0x63656976657220696D706C656D656E7465720000000000000000000000000000 PUSH1 0x20 DUP3 ADD MSTORE SWAP2 POP PUSH2 0x211E JUMP JUMPDEST PUSH1 0x20 DUP1 DUP3 MSTORE DUP2 ADD PUSH2 0x5A3 DUP2 PUSH2 0x27B3 JUMP JUMPDEST PUSH1 0x80 DUP2 ADD PUSH2 0x282B DUP3 DUP8 PUSH2 0x1CA5 JUMP JUMPDEST PUSH2 0x2838 PUSH1 0x20 DUP4 ADD DUP7 PUSH2 0x1CA5 JUMP JUMPDEST PUSH2 0x2845 PUSH1 0x40 DUP4 ADD DUP6 PUSH2 0x1D0D JUMP JUMPDEST DUP2 DUP2 SUB PUSH1 0x60 DUP4 ADD MSTORE PUSH2 0x2857 DUP2 DUP5 PUSH2 0x1C1F JUMP JUMPDEST SWAP7 SWAP6 POP POP POP POP POP POP JUMP JUMPDEST DUP1 MLOAD PUSH2 0x5A3 DUP2 PUSH2 0x1B88 JUMP JUMPDEST PUSH1 0x0 PUSH1 0x20 DUP3 DUP5 SUB SLT ISZERO PUSH2 0x2881 JUMPI PUSH2 0x2881 PUSH1 0x0 DUP1 REVERT JUMPDEST PUSH1 0x0 PUSH2 0x1069 DUP5 DUP5 PUSH2 0x2861 JUMP JUMPDEST PUSH1 0x35 DUP2 MSTORE PUSH1 0x0 PUSH1 0x20 DUP3 ADD PUSH32 0x455243373231456E756D657261626C653A20636F6E7365637574697665207472 DUP2 MSTORE PUSH32 0x616E7366657273206E6F7420737570706F727465640000000000000000000000 PUSH1 0x20 DUP3 ADD MSTORE SWAP2 POP PUSH2 0x211E JUMP JUMPDEST PUSH1 0x20 DUP1 DUP3 MSTORE DUP2 ADD PUSH2 0x5A3 DUP2 PUSH2 0x288D JUMP JUMPDEST PUSH1 0x20 DUP1 DUP3 MSTORE PUSH32 0x4552433732313A206D696E7420746F20746865207A65726F2061646472657373 SWAP2 ADD SWAP1 DUP2 MSTORE PUSH1 0x0 PUSH2 0x22A3 JUMP JUMPDEST PUSH1 0x20 DUP1 DUP3 MSTORE DUP2 ADD PUSH2 0x5A3 DUP2 PUSH2 0x28F7 JUMP JUMPDEST PUSH1 0x1C DUP2 MSTORE PUSH1 0x0 PUSH1 0x20 DUP3 ADD PUSH32 0x4552433732313A20746F6B656E20616C7265616479206D696E74656400000000 DUP2 MSTORE SWAP2 POP PUSH2 0x22A3 JUMP JUMPDEST PUSH1 0x20 DUP1 DUP3 MSTORE DUP2 ADD PUSH2 0x5A3 DUP2 PUSH2 0x2939 JUMP JUMPDEST DUP2 DUP2 SUB DUP2 DUP2 GT ISZERO PUSH2 0x5A3 JUMPI PUSH2 0x5A3 PUSH2 0x22BA JUMP JUMPDEST PUSH32 0x4E487B7100000000000000000000000000000000000000000000000000000000 PUSH1 0x0 MSTORE PUSH1 0x31 PUSH1 0x4 MSTORE PUSH1 0x24 PUSH1 0x0 REVERT INVALID LOG2 PUSH5 0x6970667358 0x22 SLT KECCAK256 SGT 0xBF MLOAD PUSH2 0xE6C2 DUP1 0xAE 0xCB 0xE0 SHR 0xC0 0xA7 NUMBER 0xAD PUSH10 0x8EEB6CFE485BCD92697 0xC1 LOG1 0xFC 0x25 LOG4 0x4B PUSH5 0x736F6C6343 STOP ADDMOD LT STOP CALLER PUSH9 0x747470733A2F2F6D65 PUSH8 0x6166616E732E6D79 PUSH17 0x696E6174612E636C6F75642F697066732F MLOAD PUSH14 0x564C705765776644507977577836 0x4D PUSH16 0x70623959326F775641426443544B3770 POP BASEFEE 0x4E PUSH21 0x48787A70714C50452F000000000000000000000000 "},"gasEstimates":{"creation":{"codeDepositCost":"2148200","executionCost":"infinite","totalCost":"infinite"},"external":{"approve(address,uint256)":"infinite","balanceOf(address)":"infinite","changePrice(uint256)":"infinite","contractPaused()":"2455","getApproved(uint256)":"infinite","internalMint(address,uint256)":"infinite","isApprovedForAll(address,address)":"infinite","listAllNFTAndOwner()":"infinite","listMyNFTs(address)":"infinite","mint(address,uint256)":"infinite","mint(uint256)":"infinite","name()":"infinite","owner()":"infinite","ownerOf(uint256)":"infinite","pauseContract()":"26574","price()":"2439","renounceOwnership()":"infinite","safeTransferFrom(address,address,uint256)":"infinite","safeTransferFrom(address,address,uint256,bytes)":"infinite","setApprovalForAll(address,bool)":"infinite","supportsInterface(bytes4)":"infinite","symbol()":"infinite","tokenByIndex(uint256)":"infinite","tokenOfOwnerByIndex(address,uint256)":"infinite","tokenURI(uint256)":"infinite","totalSupply()":"2426","transferFrom(address,address,uint256)":"infinite","transferOwnership(address)":"infinite","unpauseContract()":"26590","withdraw()":"infinite"},"internal":{"_baseURI()":"infinite","_beforeTokenTransfer(address,address,uint256,uint256)":"infinite"}},"methodIdentifiers":{"approve(address,uint256)":"095ea7b3","balanceOf(address)":"70a08231","changePrice(uint256)":"a2b40d19","contractPaused()":"8a67456a","getApproved(uint256)":"081812fc","internalMint(address,uint256)":"35001a1a","isApprovedForAll(address,address)":"e985e9c5","listAllNFTAndOwner()":"e8d62750","listMyNFTs(address)":"d3bfe077","mint(address,uint256)":"40c10f19","mint(uint256)":"a0712d68","name()":"06fdde03","owner()":"8da5cb5b","ownerOf(uint256)":"6352211e","pauseContract()":"439766ce","price()":"a035b1fe","renounceOwnership()":"715018a6","safeTransferFrom(address,address,uint256)":"42842e0e","safeTransferFrom(address,address,uint256,bytes)":"b88d4fde","setApprovalForAll(address,bool)":"a22cb465","supportsInterface(bytes4)":"01ffc9a7","symbol()":"95d89b41","tokenByIndex(uint256)":"4f6ccce7","tokenOfOwnerByIndex(address,uint256)":"2f745c59","tokenURI(uint256)":"c87b56dd","totalSupply()":"18160ddd","transferFrom(address,address,uint256)":"23b872dd","transferOwnership(address)":"f2fde38b","unpauseContract()":"b33712c5","withdraw()":"3ccfd60b"}},"storageLayout":{"storage":[{"astId":138,"contract":"contracts/MegaNFT.sol:MegaNFT","label":"_name","offset":0,"slot":"0","type":"t_string_storage"},{"astId":140,"contract":"contracts/MegaNFT.sol:MegaNFT","label":"_symbol","offset":0,"slot":"1","type":"t_string_storage"},{"astId":144,"contract":"contracts/MegaNFT.sol:MegaNFT","label":"_owners","offset":0,"slot":"2","type":"t_mapping(t_uint256,t_address)"},{"astId":148,"contract":"contracts/MegaNFT.sol:MegaNFT","label":"_balances","offset":0,"slot":"3","type":"t_mapping(t_address,t_uint256)"},{"astId":152,"contract":"contracts/MegaNFT.sol:MegaNFT","label":"_tokenApprovals","offset":0,"slot":"4","type":"t_mapping(t_uint256,t_address)"},{"astId":158,"contract":"contracts/MegaNFT.sol:MegaNFT","label":"_operatorApprovals","offset":0,"slot":"5","type":"t_mapping(t_address,t_mapping(t_address,t_bool))"},{"astId":1206,"contract":"contracts/MegaNFT.sol:MegaNFT","label":"_ownedTokens","offset":0,"slot":"6","type":"t_mapping(t_address,t_mapping(t_uint256,t_uint256))"},{"astId":1210,"contract":"contracts/MegaNFT.sol:MegaNFT","label":"_ownedTokensIndex","offset":0,"slot":"7","type":"t_mapping(t_uint256,t_uint256)"},{"astId":1213,"contract":"contracts/MegaNFT.sol:MegaNFT","label":"_allTokens","offset":0,"slot":"8","type":"t_array(t_uint256)dyn_storage"},{"astId":1217,"contract":"contracts/MegaNFT.sol:MegaNFT","label":"_allTokensIndex","offset":0,"slot":"9","type":"t_mapping(t_uint256,t_uint256)"},{"astId":7,"contract":"contracts/MegaNFT.sol:MegaNFT","label":"_owner","offset":0,"slot":"10","type":"t_address"},{"astId":3047,"contract":"contracts/MegaNFT.sol:MegaNFT","label":"contractPaused","offset":20,"slot":"10","type":"t_bool"},{"astId":3049,"contract":"contracts/MegaNFT.sol:MegaNFT","label":"baseTokenURI","offset":0,"slot":"11","type":"t_string_storage"},{"astId":3051,"contract":"contracts/MegaNFT.sol:MegaNFT","label":"maxSupply","offset":0,"slot":"12","type":"t_uint256"},{"astId":3053,"contract":"contracts/MegaNFT.sol:MegaNFT","label":"price","offset":0,"slot":"13","type":"t_uint256"}],"types":{"t_address":{"encoding":"inplace","label":"address","numberOfBytes":"20"},"t_array(t_uint256)dyn_storage":{"base":"t_uint256","encoding":"dynamic_array","label":"uint256[]","numberOfBytes":"32"},"t_bool":{"encoding":"inplace","label":"bool","numberOfBytes":"1"},"t_mapping(t_address,t_bool)":{"encoding":"mapping","key":"t_address","label":"mapping(address => bool)","numberOfBytes":"32","value":"t_bool"},"t_mapping(t_address,t_mapping(t_address,t_bool))":{"encoding":"mapping","key":"t_address","label":"mapping(address => mapping(address => bool))","numberOfBytes":"32","value":"t_mapping(t_address,t_bool)"},"t_mapping(t_address,t_mapping(t_uint256,t_uint256))":{"encoding":"mapping","key":"t_address","label":"mapping(address => mapping(uint256 => uint256))","numberOfBytes":"32","value":"t_mapping(t_uint256,t_uint256)"},"t_mapping(t_address,t_uint256)":{"encoding":"mapping","key":"t_address","label":"mapping(address => uint256)","numberOfBytes":"32","value":"t_uint256"},"t_mapping(t_uint256,t_address)":{"encoding":"mapping","key":"t_uint256","label":"mapping(uint256 => address)","numberOfBytes":"32","value":"t_address"},"t_mapping(t_uint256,t_uint256)":{"encoding":"mapping","key":"t_uint256","label":"mapping(uint256 => uint256)","numberOfBytes":"32","value":"t_uint256"},"t_string_storage":{"encoding":"bytes","label":"string","numberOfBytes":"32"},"t_uint256":{"encoding":"inplace","label":"uint256","numberOfBytes":"32"}}},"userdoc":{"kind":"user","methods":{},"version":1}}}}