{
  "_format": "hh-sol-artifact-1",
  "contractName": "MegaNFT",
  "sourceName": "contracts/MegaNFT.sol",
  "abi": [
    {
      "inputs": [
        {
          "internalType": "string",
          "name": "_name",
          "type": "string"
        },
        {
          "internalType": "string",
          "name": "_symbol",
          "type": "string"
        },
        {
          "internalType": "address",
          "name": "controller_",
          "type": "address"
        }
      ],
      "stateMutability": "nonpayable",
      "type": "constructor"
    },
    {
      "anonymous": false,
      "inputs": [
        {
          "indexed": true,
          "internalType": "address",
          "name": "owner",
          "type": "address"
        },
        {
          "indexed": true,
          "internalType": "address",
          "name": "approved",
          "type": "address"
        },
        {
          "indexed": true,
          "internalType": "uint256",
          "name": "tokenId",
          "type": "uint256"
        }
      ],
      "name": "Approval",
      "type": "event"
    },
    {
      "anonymous": false,
      "inputs": [
        {
          "indexed": true,
          "internalType": "address",
          "name": "owner",
          "type": "address"
        },
        {
          "indexed": true,
          "internalType": "address",
          "name": "operator",
          "type": "address"
        },
        {
          "indexed": false,
          "internalType": "bool",
          "name": "approved",
          "type": "bool"
        }
      ],
      "name": "ApprovalForAll",
      "type": "event"
    },
    {
      "anonymous": false,
      "inputs": [
        {
          "indexed": true,
          "internalType": "address",
          "name": "previousOwner",
          "type": "address"
        },
        {
          "indexed": true,
          "internalType": "address",
          "name": "newOwner",
          "type": "address"
        }
      ],
      "name": "OwnershipTransferred",
      "type": "event"
    },
    {
      "anonymous": false,
      "inputs": [
        {
          "indexed": true,
          "internalType": "address",
          "name": "from",
          "type": "address"
        },
        {
          "indexed": true,
          "internalType": "address",
          "name": "to",
          "type": "address"
        },
        {
          "indexed": true,
          "internalType": "uint256",
          "name": "tokenId",
          "type": "uint256"
        }
      ],
      "name": "Transfer",
      "type": "event"
    },
    {
      "anonymous": false,
      "inputs": [
        {
          "indexed": false,
          "internalType": "uint256",
          "name": "amount",
          "type": "uint256"
        },
        {
          "indexed": false,
          "internalType": "address",
          "name": "addr",
          "type": "address"
        }
      ],
      "name": "Withdraw",
      "type": "event"
    },
    {
      "inputs": [
        {
          "internalType": "address",
          "name": "to",
          "type": "address"
        },
        {
          "internalType": "uint256",
          "name": "tokenId",
          "type": "uint256"
        }
      ],
      "name": "approve",
      "outputs": [],
      "stateMutability": "nonpayable",
      "type": "function"
    },
    {
      "inputs": [
        {
          "internalType": "address",
          "name": "owner",
          "type": "address"
        }
      ],
      "name": "balanceOf",
      "outputs": [
        {
          "internalType": "uint256",
          "name": "",
          "type": "uint256"
        }
      ],
      "stateMutability": "view",
      "type": "function"
    },
    {
      "inputs": [
        {
          "internalType": "uint256",
          "name": "_price",
          "type": "uint256"
        }
      ],
      "name": "changePrice",
      "outputs": [],
      "stateMutability": "nonpayable",
      "type": "function"
    },
    {
      "inputs": [],
      "name": "contractPaused",
      "outputs": [
        {
          "internalType": "bool",
          "name": "",
          "type": "bool"
        }
      ],
      "stateMutability": "view",
      "type": "function"
    },
    {
      "inputs": [
        {
          "internalType": "uint256",
          "name": "tokenId",
          "type": "uint256"
        }
      ],
      "name": "getApproved",
      "outputs": [
        {
          "internalType": "address",
          "name": "",
          "type": "address"
        }
      ],
      "stateMutability": "view",
      "type": "function"
    },
    {
      "inputs": [
        {
          "internalType": "address",
          "name": "_to",
          "type": "address"
        },
        {
          "internalType": "uint256",
          "name": "num",
          "type": "uint256"
        }
      ],
      "name": "internalMint",
      "outputs": [],
      "stateMutability": "nonpayable",
      "type": "function"
    },
    {
      "inputs": [
        {
          "internalType": "address",
          "name": "owner",
          "type": "address"
        },
        {
          "internalType": "address",
          "name": "operator",
          "type": "address"
        }
      ],
      "name": "isApprovedForAll",
      "outputs": [
        {
          "internalType": "bool",
          "name": "",
          "type": "bool"
        }
      ],
      "stateMutability": "view",
      "type": "function"
    },
    {
      "inputs": [],
      "name": "listAllNFTAndOwner",
      "outputs": [
        {
          "internalType": "address[]",
          "name": "",
          "type": "address[]"
        },
        {
          "internalType": "uint256[]",
          "name": "",
          "type": "uint256[]"
        }
      ],
      "stateMutability": "view",
      "type": "function"
    },
    {
      "inputs": [
        {
          "internalType": "address",
          "name": "_owner",
          "type": "address"
        }
      ],
      "name": "listMyNFTs",
      "outputs": [
        {
          "internalType": "uint256[]",
          "name": "",
          "type": "uint256[]"
        }
      ],
      "stateMutability": "view",
      "type": "function"
    },
    {
      "inputs": [
        {
          "internalType": "address",
          "name": "_to",
          "type": "address"
        },
        {
          "internalType": "uint256",
          "name": "num",
          "type": "uint256"
        }
      ],
      "name": "mint",
      "outputs": [],
      "stateMutability": "payable",
      "type": "function"
    },
    {
      "inputs": [
        {
          "internalType": "uint256",
          "name": "num",
          "type": "uint256"
        }
      ],
      "name": "mint",
      "outputs": [],
      "stateMutability": "payable",
      "type": "function"
    },
    {
      "inputs": [],
      "name": "name",
      "outputs": [
        {
          "internalType": "string",
          "name": "",
          "type": "string"
        }
      ],
      "stateMutability": "view",
      "type": "function"
    },
    {
      "inputs": [],
      "name": "owner",
      "outputs": [
        {
          "internalType": "address",
          "name": "",
          "type": "address"
        }
      ],
      "stateMutability": "view",
      "type": "function"
    },
    {
      "inputs": [
        {
          "internalType": "uint256",
          "name": "tokenId",
          "type": "uint256"
        }
      ],
      "name": "ownerOf",
      "outputs": [
        {
          "internalType": "address",
          "name": "",
          "type": "address"
        }
      ],
      "stateMutability": "view",
      "type": "function"
    },
    {
      "inputs": [],
      "name": "pauseContract",
      "outputs": [],
      "stateMutability": "nonpayable",
      "type": "function"
    },
    {
      "inputs": [],
      "name": "price",
      "outputs": [
        {
          "internalType": "uint256",
          "name": "",
          "type": "uint256"
        }
      ],
      "stateMutability": "view",
      "type": "function"
    },
    {
      "inputs": [],
      "name": "renounceOwnership",
      "outputs": [],
      "stateMutability": "nonpayable",
      "type": "function"
    },
    {
      "inputs": [
        {
          "internalType": "address",
          "name": "from",
          "type": "address"
        },
        {
          "internalType": "address",
          "name": "to",
          "type": "address"
        },
        {
          "internalType": "uint256",
          "name": "tokenId",
          "type": "uint256"
        }
      ],
      "name": "safeTransferFrom",
      "outputs": [],
      "stateMutability": "nonpayable",
      "type": "function"
    },
    {
      "inputs": [
        {
          "internalType": "address",
          "name": "from",
          "type": "address"
        },
        {
          "internalType": "address",
          "name": "to",
          "type": "address"
        },
        {
          "internalType": "uint256",
          "name": "tokenId",
          "type": "uint256"
        },
        {
          "internalType": "bytes",
          "name": "data",
          "type": "bytes"
        }
      ],
      "name": "safeTransferFrom",
      "outputs": [],
      "stateMutability": "nonpayable",
      "type": "function"
    },
    {
      "inputs": [
        {
          "internalType": "address",
          "name": "operator",
          "type": "address"
        },
        {
          "internalType": "bool",
          "name": "approved",
          "type": "bool"
        }
      ],
      "name": "setApprovalForAll",
      "outputs": [],
      "stateMutability": "nonpayable",
      "type": "function"
    },
    {
      "inputs": [
        {
          "internalType": "bytes4",
          "name": "interfaceId",
          "type": "bytes4"
        }
      ],
      "name": "supportsInterface",
      "outputs": [
        {
          "internalType": "bool",
          "name": "",
          "type": "bool"
        }
      ],
      "stateMutability": "view",
      "type": "function"
    },
    {
      "inputs": [],
      "name": "symbol",
      "outputs": [
        {
          "internalType": "string",
          "name": "",
          "type": "string"
        }
      ],
      "stateMutability": "view",
      "type": "function"
    },
    {
      "inputs": [
        {
          "internalType": "uint256",
          "name": "index",
          "type": "uint256"
        }
      ],
      "name": "tokenByIndex",
      "outputs": [
        {
          "internalType": "uint256",
          "name": "",
          "type": "uint256"
        }
      ],
      "stateMutability": "view",
      "type": "function"
    },
    {
      "inputs": [
        {
          "internalType": "address",
          "name": "owner",
          "type": "address"
        },
        {
          "internalType": "uint256",
          "name": "index",
          "type": "uint256"
        }
      ],
      "name": "tokenOfOwnerByIndex",
      "outputs": [
        {
          "internalType": "uint256",
          "name": "",
          "type": "uint256"
        }
      ],
      "stateMutability": "view",
      "type": "function"
    },
    {
      "inputs": [
        {
          "internalType": "uint256",
          "name": "tokenId",
          "type": "uint256"
        }
      ],
      "name": "tokenURI",
      "outputs": [
        {
          "internalType": "string",
          "name": "",
          "type": "string"
        }
      ],
      "stateMutability": "view",
      "type": "function"
    },
    {
      "inputs": [],
      "name": "totalSupply",
      "outputs": [
        {
          "internalType": "uint256",
          "name": "",
          "type": "uint256"
        }
      ],
      "stateMutability": "view",
      "type": "function"
    },
    {
      "inputs": [
        {
          "internalType": "address",
          "name": "from",
          "type": "address"
        },
        {
          "internalType": "address",
          "name": "to",
          "type": "address"
        },
        {
          "internalType": "uint256",
          "name": "tokenId",
          "type": "uint256"
        }
      ],
      "name": "transferFrom",
      "outputs": [],
      "stateMutability": "nonpayable",
      "type": "function"
    },
    {
      "inputs": [
        {
          "internalType": "address",
          "name": "newOwner",
          "type": "address"
        }
      ],
      "name": "transferOwnership",
      "outputs": [],
      "stateMutability": "nonpayable",
      "type": "function"
    },
    {
      "inputs": [],
      "name": "unpauseContract",
      "outputs": [],
      "stateMutability": "nonpayable",
      "type": "function"
    },
    {
      "inputs": [],
      "name": "withdraw",
      "outputs": [],
      "stateMutability": "payable",
      "type": "function"
    }
  ],
  "bytecode": "0x60806040523480156200001157600080fd5b506040516200303b3803806200303b833981016040819052620000349162000300565b828260006200004483826200048c565b5060016200005382826200048c565b505050620000706200006a620000ca60201b60201c565b620000ce565b611388600c55652d79883d2000600d55600a805460ff60a01b191690556040805160808101909152605480825262002fe76020830139600b90620000b590826200048c565b50620000c18162000120565b505050620005e2565b3390565b600a80546001600160a01b038381166001600160a01b0319831681179093556040519116919082907f8be0079c531659141344cd1fd0a4f28419497f9722a3daafe3b4186f6b6457e090600090a35050565b6200012a6200016a565b6001600160a01b0381166200015c5760405162461bcd60e51b815260040162000153906200055c565b60405180910390fd5b6200016781620000ce565b50565b600a546001600160a01b03163314620001975760405162461bcd60e51b81526004016200015390620005a7565b565b634e487b7160e01b600052604160045260246000fd5b601f19601f83011681018181106001600160401b0382111715620001d757620001d762000199565b6040525050565b6000620001ea60405190565b9050620001f88282620001af565b919050565b60006001600160401b0382111562000219576200021962000199565b601f19601f83011660200192915050565b60005b83811015620002475781810151838201526020016200022d565b50506000910152565b6000620002676200026184620001fd565b620001de565b905082815260208101848484011115620002845762000284600080fd5b620002918482856200022a565b509392505050565b600082601f830112620002af57620002af600080fd5b8151620002c184826020860162000250565b949350505050565b60006001600160a01b0382165b92915050565b620002e781620002c9565b81146200016757600080fd5b8051620002d681620002dc565b6000806000606084860312156200031a576200031a600080fd5b83516001600160401b03811115620003355762000335600080fd5b620003438682870162000299565b93505060208401516001600160401b03811115620003645762000364600080fd5b620003728682870162000299565b92505060406200038586828701620002f3565b9150509250925092565b634e487b7160e01b600052602260045260246000fd5b600281046001821680620003ba57607f821691505b602082108103620003cf57620003cf6200038f565b50919050565b6000620002d6620003e38381565b90565b620003f183620003d5565b81546008840282811b60001990911b908116901990911617825550505050565b600062000420818484620003e6565b505050565b8181101562000444576200043b60008262000411565b60010162000425565b5050565b601f82111562000420576000818152602090206020601f85010481016020851015620004715750805b620004856020601f86010483018262000425565b5050505050565b81516001600160401b03811115620004a857620004a862000199565b620004b48254620003a5565b620004c182828562000448565b6020601f831160018114620004f85760008415620004df5750858201515b600019600886021c198116600286021786555062000554565b600085815260208120601f198616915b828110156200052a578885015182556020948501946001909201910162000508565b86831015620005475784890151600019601f89166008021c191682555b6001600288020188555050505b505050505050565b60208082528101620002d681602681527f4f776e61626c653a206e6577206f776e657220697320746865207a65726f206160208201526564647265737360d01b604082015260600190565b60208082528181019081527f4f776e61626c653a2063616c6c6572206973206e6f7420746865206f776e6572604083015260608201620002d6565b6129f580620005f26000396000f3fe6080604052600436106101cd5760003560e01c8063715018a6116100f7578063a2b40d1911610095578063d3bfe07711610064578063d3bfe077146104df578063e8d627501461050c578063e985e9c51461052f578063f2fde38b1461057857600080fd5b8063a2b40d191461046a578063b33712c51461048a578063b88d4fde1461049f578063c87b56dd146104bf57600080fd5b806395d89b41116100d157806395d89b411461040c578063a035b1fe14610421578063a0712d6814610437578063a22cb4651461044a57600080fd5b8063715018a6146103a75780638a67456a146103bc5780638da5cb5b146103ee57600080fd5b806335001a1a1161016f578063439766ce1161013e578063439766ce146103325780634f6ccce7146103475780636352211e1461036757806370a082311461038757600080fd5b806335001a1a146102d75780633ccfd60b146102f757806340c10f19146102ff57806342842e0e1461031257600080fd5b8063095ea7b3116101ab578063095ea7b31461025757806318160ddd1461027957806323b872dd146102975780632f745c59146102b757600080fd5b806301ffc9a7146101d257806306fdde0314610208578063081812fc1461022a575b600080fd5b3480156101de57600080fd5b506101f26101ed366004611bc2565b610598565b6040516101ff9190611bed565b60405180910390f35b34801561021457600080fd5b5061021d6105a9565b6040516101ff9190611c51565b34801561023657600080fd5b5061024a610245366004611c73565b61063b565b6040516101ff9190611cae565b34801561026357600080fd5b50610277610272366004611cd0565b610662565b005b34801561028557600080fd5b506008545b6040516101ff9190611d13565b3480156102a357600080fd5b506102776102b2366004611d21565b6106f0565b3480156102c357600080fd5b5061028a6102d2366004611cd0565b610721565b3480156102e357600080fd5b506102776102f2366004611cd0565b610773565b610277610830565b61027761030d366004611cd0565b61089b565b34801561031e57600080fd5b5061027761032d366004611d21565b61097a565b34801561033e57600080fd5b50610277610995565b34801561035357600080fd5b5061028a610362366004611c73565b6109de565b34801561037357600080fd5b5061024a610382366004611c73565b610a2c565b34801561039357600080fd5b5061028a6103a2366004611d71565b610a61565b3480156103b357600080fd5b50610277610aa5565b3480156103c857600080fd5b50600a546101f29074010000000000000000000000000000000000000000900460ff1681565b3480156103fa57600080fd5b50600a546001600160a01b031661024a565b34801561041857600080fd5b5061021d610ab9565b34801561042d57600080fd5b5061028a600d5481565b610277610445366004611c73565b610ac8565b34801561045657600080fd5b50610277610465366004611da5565b610ba7565b34801561047657600080fd5b50610277610485366004611c73565b610bb6565b34801561049657600080fd5b50610277610bc3565b3480156104ab57600080fd5b506102776104ba366004611ee4565b610bf5565b3480156104cb57600080fd5b5061021d6104da366004611c73565b610c27565b3480156104eb57600080fd5b506104ff6104fa366004611d71565b610cba565b6040516101ff9190611fc0565b34801561051857600080fd5b50610521610d7c565b6040516101ff92919061201b565b34801561053b57600080fd5b506101f261054a366004612040565b6001600160a01b03918216600090815260056020908152604080832093909416825291909152205460ff1690565b34801561058457600080fd5b50610277610593366004611d71565b610ea8565b60006105a382610ee2565b92915050565b6060600080546105b8906120a2565b80601f01602080910402602001604051908101604052809291908181526020018280546105e4906120a2565b80156106315780601f1061060657610100808354040283529160200191610631565b820191906000526020600020905b81548152906001019060200180831161061457829003601f168201915b5050505050905090565b600061064682610f38565b506000908152600460205260409020546001600160a01b031690565b600061066d82610a2c565b9050806001600160a01b0316836001600160a01b0316036106a95760405162461bcd60e51b81526004016106a090612125565b60405180910390fd5b336001600160a01b03821614806106c557506106c5813361054a565b6106e15760405162461bcd60e51b81526004016106a09061218f565b6106eb8383610f6c565b505050565b6106fa3382610ff2565b6107165760405162461bcd60e51b81526004016106a0906121f9565b6106eb838383611071565b600061072c83610a61565b821061074a5760405162461bcd60e51b81526004016106a090612263565b506001600160a01b03919091166000908152600660209081526040808320938352929052205490565b600a5474010000000000000000000000000000000000000000900460ff16156107ae5760405162461bcd60e51b81526004016106a0906122aa565b600c54816107bb60085490565b6107c591906122e9565b11156107e35760405162461bcd60e51b81526004016106a090612330565b60006107ee60085490565b905060015b6107fe8360016122e9565b81101561082a576108188461081383856122e9565b6111be565b8061082281612340565b9150506107f3565b50505050565b6108386111d8565b6040514790339082156108fc029083906000818181858888f1935050505061085f57600080fd5b7f8353ffcac0876ad14e226d9783c04540bfebf13871e868157d2a391cad98e918813360405161089092919061235a565b60405180910390a150565b600a5474010000000000000000000000000000000000000000900460ff16156108d65760405162461bcd60e51b81526004016106a0906122aa565b600c54816108e360085490565b6108ed91906122e9565b111561090b5760405162461bcd60e51b81526004016106a090612330565b80600d546109199190612375565b3410156109385760405162461bcd60e51b81526004016106a0906123c6565b600061094360085490565b905060015b6109538360016122e9565b81101561082a576109688461081383856122e9565b8061097281612340565b915050610948565b6106eb83838360405180602001604052806000815250610bf5565b61099d6111d8565b600a80547fffffffffffffffffffffff00ffffffffffffffffffffffffffffffffffffffff1674010000000000000000000000000000000000000000179055565b60006109e960085490565b8210610a075760405162461bcd60e51b81526004016106a090612430565b60088281548110610a1a57610a1a612440565b90600052602060002001549050919050565b6000818152600260205260408120546001600160a01b0316806105a35760405162461bcd60e51b81526004016106a0906124a3565b60006001600160a01b038216610a895760405162461bcd60e51b81526004016106a09061250d565b506001600160a01b031660009081526003602052604090205490565b610aad6111d8565b610ab76000611202565b565b6060600180546105b8906120a2565b600a5474010000000000000000000000000000000000000000900460ff1615610b035760405162461bcd60e51b81526004016106a0906122aa565b600c5481610b1060085490565b610b1a91906122e9565b1115610b385760405162461bcd60e51b81526004016106a090612330565b80600d54610b469190612375565b341015610b655760405162461bcd60e51b81526004016106a0906123c6565b6000610b7060085490565b905060015b610b808360016122e9565b8110156106eb57610b953361081383856122e9565b80610b9f81612340565b915050610b75565b610bb233838361126c565b5050565b610bbe6111d8565b600d55565b610bcb6111d8565b600a80547fffffffffffffffffffffff00ffffffffffffffffffffffffffffffffffffffff169055565b610bff3383610ff2565b610c1b5760405162461bcd60e51b81526004016106a0906121f9565b61082a8484848461132c565b6000818152600260205260409020546060906001600160a01b0316610c5e5760405162461bcd60e51b81526004016106a090612577565b6000610c6861135f565b90506000815111610c885760405180602001604052806000815250610cb3565b80610c928461136e565b604051602001610ca39291906125a9565b6040516020818303038152906040525b9392505050565b60606000610cc783610a61565b905080600003610ceb5760408051600080825260208201909252905b509392505050565b60008167ffffffffffffffff811115610d0657610d06611dd8565b604051908082528060200260200182016040528015610d2f578160200160208202803683370190505b50905060005b82811015610ce357610d478582610721565b828281518110610d5957610d59612440565b602090810291909101015280610d6e81612340565b915050610d35565b50919050565b6060806000610d8a60085490565b905060008167ffffffffffffffff811115610da757610da7611dd8565b604051908082528060200260200182016040528015610dd0578160200160208202803683370190505b50905060008267ffffffffffffffff811115610dee57610dee611dd8565b604051908082528060200260200182016040528015610e17578160200160208202803683370190505b50905060005b83811015610e9d57610e336103828260016122e9565b838281518110610e4557610e45612440565b60200260200101906001600160a01b031690816001600160a01b031681525050610e6e816109de565b828281518110610e8057610e80612440565b602090810291909101015280610e9581612340565b915050610e1d565b509094909350915050565b610eb06111d8565b6001600160a01b038116610ed65760405162461bcd60e51b81526004016106a090612649565b610edf81611202565b50565b60007fffffffff0000000000000000000000000000000000000000000000000000000082167f780e9d630000000000000000000000000000000000000000000000000000000014806105a357506105a38261140e565b6000818152600260205260409020546001600160a01b0316610edf5760405162461bcd60e51b81526004016106a0906124a3565b600081815260046020526040902080547fffffffffffffffffffffffff0000000000000000000000000000000000000000166001600160a01b0384169081179091558190610fb982610a2c565b6001600160a01b03167f8c5be1e5ebec7d5bd14f71427d1e84f3dd0314c0f7b2291e5b200ac8c7c3b92560405160405180910390a45050565b600080610ffe83610a2c565b9050806001600160a01b0316846001600160a01b0316148061104557506001600160a01b0380821660009081526005602090815260408083209388168352929052205460ff165b806110695750836001600160a01b031661105e8461063b565b6001600160a01b0316145b949350505050565b826001600160a01b031661108482610a2c565b6001600160a01b0316146110aa5760405162461bcd60e51b81526004016106a0906126b3565b6001600160a01b0382166110d05760405162461bcd60e51b81526004016106a09061271d565b6110dd83838360016114f1565b826001600160a01b03166110f082610a2c565b6001600160a01b0316146111165760405162461bcd60e51b81526004016106a0906126b3565b600081815260046020908152604080832080547fffffffffffffffffffffffff00000000000000000000000000000000000000009081169091556001600160a01b0387811680865260038552838620805460001901905590871680865283862080546001019055868652600290945282852080549092168417909155905184937fddf252ad1be2c89b69c2b068fc378daa952ba7f163c4a11628f55a4df523b3ef91a4505050565b610bb28282604051806020016040528060008152506114fd565b600a546001600160a01b03163314610ab75760405162461bcd60e51b81526004016106a09061275f565b600a80546001600160a01b038381167fffffffffffffffffffffffff0000000000000000000000000000000000000000831681179093556040519116919082907f8be0079c531659141344cd1fd0a4f28419497f9722a3daafe3b4186f6b6457e090600090a35050565b816001600160a01b0316836001600160a01b03160361129d5760405162461bcd60e51b81526004016106a0906127a3565b6001600160a01b038381166000818152600560209081526040808320948716808452949091529081902080547fffffffffffffffffffffffffffffffffffffffffffffffffffffffffffffff0016851515179055517f17307eab39ab6107e8899845ad3d59bd9653f200f220920489ca2b5937696c319061131f908590611bed565b60405180910390a3505050565b611337848484611071565b61134384848484611530565b61082a5760405162461bcd60e51b81526004016106a09061280d565b6060600b80546105b8906120a2565b6060600061137b8361167b565b600101905060008167ffffffffffffffff81111561139b5761139b611dd8565b6040519080825280601f01601f1916602001820160405280156113c5576020820181803683370190505b5090508181016020015b600019017f3031323334353637383961626364656600000000000000000000000000000000600a86061a8153600a85049450846113cf57509392505050565b60007fffffffff0000000000000000000000000000000000000000000000000000000082167f80ac58cd0000000000000000000000000000000000000000000000000000000014806114a157507fffffffff0000000000000000000000000000000000000000000000000000000082167f5b5e139f00000000000000000000000000000000000000000000000000000000145b806105a357507f01ffc9a7000000000000000000000000000000000000000000000000000000007fffffffff000000000000000000000000000000000000000000000000000000008316146105a3565b61082a8484848461175d565b611507838361184f565b6115146000848484611530565b6106eb5760405162461bcd60e51b81526004016106a09061280d565b60006001600160a01b0384163b15611670576040517f150b7a020000000000000000000000000000000000000000000000000000000081526001600160a01b0385169063150b7a029061158d90339089908890889060040161281d565b6020604051808303816000875af19250505080156115c8575060408051601f3d908101601f191682019092526115c59181019061286c565b60015b611625573d8080156115f6576040519150601f19603f3d011682016040523d82523d6000602084013e6115fb565b606091505b50805160000361161d5760405162461bcd60e51b81526004016106a09061280d565b805181602001fd5b7fffffffff00000000000000000000000000000000000000000000000000000000167f150b7a0200000000000000000000000000000000000000000000000000000000149050611069565b506001949350505050565b6000807a184f03e93ff9f4daa797ed6e38ed64bf6a1f01000000000000000083106116c4577a184f03e93ff9f4daa797ed6e38ed64bf6a1f010000000000000000830492506040015b6d04ee2d6d415b85acef810000000083106116f0576d04ee2d6d415b85acef8100000000830492506020015b662386f26fc10000831061170e57662386f26fc10000830492506010015b6305f5e1008310611726576305f5e100830492506008015b612710831061173a57612710830492506004015b6064831061174c576064830492506002015b600a83106105a35760010192915050565b61176984848484611970565b600181111561178a5760405162461bcd60e51b81526004016106a0906128e7565b816001600160a01b0385166117e6576117e181600880546000838152600960205260408120829055600182018355919091527ff3f7a9fe364faab93b216da50a3214154f22a0a2b415b23a84c8169e8b636ee30155565b611809565b836001600160a01b0316856001600160a01b0316146118095761180985826119f8565b6001600160a01b0384166118255761182081611a95565b611848565b846001600160a01b0316846001600160a01b031614611848576118488482611b44565b5050505050565b6001600160a01b0382166118755760405162461bcd60e51b81526004016106a090612929565b6000818152600260205260409020546001600160a01b0316156118aa5760405162461bcd60e51b81526004016106a09061296d565b6118b86000838360016114f1565b6000818152600260205260409020546001600160a01b0316156118ed5760405162461bcd60e51b81526004016106a09061296d565b6001600160a01b038216600081815260036020908152604080832080546001019055848352600290915280822080547fffffffffffffffffffffffff0000000000000000000000000000000000000000168417905551839291907fddf252ad1be2c89b69c2b068fc378daa952ba7f163c4a11628f55a4df523b3ef908290a45050565b600181111561082a576001600160a01b038416156119b6576001600160a01b038416600090815260036020526040812080548392906119b090849061297d565b90915550505b6001600160a01b0383161561082a576001600160a01b038316600090815260036020526040812080548392906119ed9084906122e9565b909155505050505050565b60006001611a0584610a61565b611a0f919061297d565b600083815260076020526040902054909150808214611a62576001600160a01b03841660009081526006602090815260408083208584528252808320548484528184208190558352600790915290208190555b5060009182526007602090815260408084208490556001600160a01b039094168352600681528383209183525290812055565b600854600090611aa79060019061297d565b60008381526009602052604081205460088054939450909284908110611acf57611acf612440565b906000526020600020015490508060088381548110611af057611af0612440565b6000918252602080832090910192909255828152600990915260408082208490558582528120556008805480611b2857611b28612990565b6001900381819060005260206000200160009055905550505050565b6000611b4f83610a61565b6001600160a01b039093166000908152600660209081526040808320868452825280832085905593825260079052919091209190915550565b7fffffffff0000000000000000000000000000000000000000000000000000000081165b8114610edf57600080fd5b80356105a381611b88565b600060208284031215611bd757611bd7600080fd5b60006110698484611bb7565b8015155b82525050565b602081016105a38284611be3565b60005b83811015611c16578181015183820152602001611bfe565b50506000910152565b6000611c29825190565b808452602084019350611c40818560208601611bfb565b601f01601f19169290920192915050565b60208082528101610cb38184611c1f565b80611bac565b80356105a381611c62565b600060208284031215611c8857611c88600080fd5b60006110698484611c68565b60006001600160a01b0382166105a3565b611be781611c94565b602081016105a38284611ca5565b611bac81611c94565b80356105a381611cbc565b60008060408385031215611ce657611ce6600080fd5b6000611cf28585611cc5565b9250506020611d0385828601611c68565b9150509250929050565b80611be7565b602081016105a38284611d0d565b600080600060608486031215611d3957611d39600080fd5b6000611d458686611cc5565b9350506020611d5686828701611cc5565b9250506040611d6786828701611c68565b9150509250925092565b600060208284031215611d8657611d86600080fd5b60006110698484611cc5565b801515611bac565b80356105a381611d92565b60008060408385031215611dbb57611dbb600080fd5b6000611dc78585611cc5565b9250506020611d0385828601611d9a565b7f4e487b7100000000000000000000000000000000000000000000000000000000600052604160045260246000fd5b601f19601f830116810181811067ffffffffffffffff82111715611e2d57611e2d611dd8565b6040525050565b6000611e3f60405190565b9050611e4b8282611e07565b919050565b600067ffffffffffffffff821115611e6a57611e6a611dd8565b601f19601f83011660200192915050565b82818337506000910152565b6000611e9a611e9584611e50565b611e34565b905082815260208101848484011115611eb557611eb5600080fd5b610ce3848285611e7b565b600082601f830112611ed457611ed4600080fd5b8135611069848260208601611e87565b60008060008060808587031215611efd57611efd600080fd5b6000611f098787611cc5565b9450506020611f1a87828801611cc5565b9350506040611f2b87828801611c68565b925050606085013567ffffffffffffffff811115611f4b57611f4b600080fd5b611f5787828801611ec0565b91505092959194509250565b6000611f6f8383611d0d565b505060200190565b6000611f81825190565b80845260209384019383018060005b83811015611fb5578151611fa48882611f63565b975060208301925050600101611f90565b509495945050505050565b60208082528101610cb38184611f77565b6000611f6f8383611ca5565b6000611fe7825190565b80845260209384019383018060005b83811015611fb557815161200a8882611fd1565b975060208301925050600101611ff6565b6040808252810161202c8185611fdd565b905081810360208301526110698184611f77565b6000806040838503121561205657612056600080fd5b60006120628585611cc5565b9250506020611d0385828601611cc5565b7f4e487b7100000000000000000000000000000000000000000000000000000000600052602260045260246000fd5b6002810460018216806120b657607f821691505b602082108103610d7657610d76612073565b602181526000602082017f4552433732313a20617070726f76616c20746f2063757272656e74206f776e6581527f7200000000000000000000000000000000000000000000000000000000000000602082015291505b5060400190565b602080825281016105a3816120c8565b603d81526000602082017f4552433732313a20617070726f76652063616c6c6572206973206e6f7420746f81527f6b656e206f776e6572206f7220617070726f76656420666f7220616c6c0000006020820152915061211e565b602080825281016105a381612135565b602d81526000602082017f4552433732313a2063616c6c6572206973206e6f7420746f6b656e206f776e6581527f72206f7220617070726f766564000000000000000000000000000000000000006020820152915061211e565b602080825281016105a38161219f565b602b81526000602082017f455243373231456e756d657261626c653a206f776e657220696e646578206f7581527f74206f6620626f756e64730000000000000000000000000000000000000000006020820152915061211e565b602080825281016105a381612209565b600c81526000602082017f53616c6520506175736564210000000000000000000000000000000000000000815291505b5060200190565b602080825281016105a381612273565b7f4e487b7100000000000000000000000000000000000000000000000000000000600052601160045260246000fd5b808201808211156105a3576105a36122ba565b601381526000602082017f4d617820737570706c7920726561636865642100000000000000000000000000815291506122a3565b602080825281016105a3816122fc565b60006000198203612353576123536122ba565b5060010190565b604081016123688285611d0d565b610cb36020830184611ca5565b600081600019048311821515161561238f5761238f6122ba565b500290565b60208082527f4e6f7420656e6f756768204554482073656e742c20636865636b207072696365910190815260006122a3565b602080825281016105a381612394565b602c81526000602082017f455243373231456e756d657261626c653a20676c6f62616c20696e646578206f81527f7574206f6620626f756e647300000000000000000000000000000000000000006020820152915061211e565b602080825281016105a3816123d6565b7f4e487b7100000000000000000000000000000000000000000000000000000000600052603260045260246000fd5b601881526000602082017f4552433732313a20696e76616c696420746f6b656e2049440000000000000000815291506122a3565b602080825281016105a38161246f565b602981526000602082017f4552433732313a2061646472657373207a65726f206973206e6f74206120766181527f6c6964206f776e657200000000000000000000000000000000000000000000006020820152915061211e565b602080825281016105a3816124b3565b602f81526000602082017f4552433732314d657461646174613a2055524920717565727920666f72206e6f81527f6e6578697374656e7420746f6b656e00000000000000000000000000000000006020820152915061211e565b602080825281016105a38161251d565b6000612591825190565b61259f818560208601611bfb565b9290920192915050565b60006125b58285612587565b91506125c18284612587565b7f2e6a736f6e0000000000000000000000000000000000000000000000000000008152915060058201611069565b602681526000602082017f4f776e61626c653a206e6577206f776e657220697320746865207a65726f206181527f64647265737300000000000000000000000000000000000000000000000000006020820152915061211e565b602080825281016105a3816125ef565b602581526000602082017f4552433732313a207472616e736665722066726f6d20696e636f72726563742081527f6f776e65720000000000000000000000000000000000000000000000000000006020820152915061211e565b602080825281016105a381612659565b602481526000602082017f4552433732313a207472616e7366657220746f20746865207a65726f2061646481527f72657373000000000000000000000000000000000000000000000000000000006020820152915061211e565b602080825281016105a3816126c3565b60208082527f4f776e61626c653a2063616c6c6572206973206e6f7420746865206f776e6572910190815260006122a3565b602080825281016105a38161272d565b601981526000602082017f4552433732313a20617070726f766520746f2063616c6c657200000000000000815291506122a3565b602080825281016105a38161276f565b603281526000602082017f4552433732313a207472616e7366657220746f206e6f6e20455243373231526581527f63656976657220696d706c656d656e74657200000000000000000000000000006020820152915061211e565b602080825281016105a3816127b3565b6080810161282b8287611ca5565b6128386020830186611ca5565b6128456040830185611d0d565b81810360608301526128578184611c1f565b9695505050505050565b80516105a381611b88565b60006020828403121561288157612881600080fd5b60006110698484612861565b603581526000602082017f455243373231456e756d657261626c653a20636f6e736563757469766520747281527f616e7366657273206e6f7420737570706f7274656400000000000000000000006020820152915061211e565b602080825281016105a38161288d565b60208082527f4552433732313a206d696e7420746f20746865207a65726f2061646472657373910190815260006122a3565b602080825281016105a3816128f7565b601c81526000602082017f4552433732313a20746f6b656e20616c7265616479206d696e74656400000000815291506122a3565b602080825281016105a381612939565b818103818111156105a3576105a36122ba565b7f4e487b7100000000000000000000000000000000000000000000000000000000600052603160045260246000fdfea264697066735822122013bf5161e6c280aecbe01cc0a743ad6908eeb6cfe485bcd92697c1a1fc25a44b64736f6c6343000810003368747470733a2f2f6d65676166616e732e6d7970696e6174612e636c6f75642f697066732f516d564c7057657766445079775778364d6f70623959326f775641426443544b377050484e7448787a70714c50452f",
  "linkReferences": {},
  "deployedLinkReferences": {}
}